{"contracts/ComputeReward.sol":{"ComputeReward":{"abi":[{"inputs":[],"stateMutability":"nonpayable","type":"constructor"},{"inputs":[{"internalType":"address","name":"spender","type":"address"},{"internalType":"uint256","name":"allowance","type":"uint256"},{"internalType":"uint256","name":"needed","type":"uint256"}],"name":"ERC20InsufficientAllowance","type":"error"},{"inputs":[{"internalType":"address","name":"sender","type":"address"},{"internalType":"uint256","name":"balance","type":"uint256"},{"internalType":"uint256","name":"needed","type":"uint256"}],"name":"ERC20InsufficientBalance","type":"error"},{"inputs":[{"internalType":"address","name":"approver","type":"address"}],"name":"ERC20InvalidApprover","type":"error"},{"inputs":[{"internalType":"address","name":"receiver","type":"address"}],"name":"ERC20InvalidReceiver","type":"error"},{"inputs":[{"internalType":"address","name":"sender","type":"address"}],"name":"ERC20InvalidSender","type":"error"},{"inputs":[{"internalType":"address","name":"spender","type":"address"}],"name":"ERC20InvalidSpender","type":"error"},{"inputs":[{"internalType":"address","name":"owner","type":"address"}],"name":"OwnableInvalidOwner","type":"error"},{"inputs":[{"internalType":"address","name":"account","type":"address"}],"name":"OwnableUnauthorizedAccount","type":"error"},{"inputs":[],"name":"ReentrancyGuardReentrantCall","type":"error"},{"anonymous":false,"inputs":[{"indexed":true,"internalType":"address","name":"owner","type":"address"},{"indexed":true,"internalType":"address","name":"spender","type":"address"},{"indexed":false,"internalType":"uint256","name":"value","type":"uint256"}],"name":"Approval","type":"event"},{"anonymous":false,"inputs":[{"indexed":true,"internalType":"address","name":"previousOwner","type":"address"},{"indexed":true,"internalType":"address","name":"newOwner","type":"address"}],"name":"OwnershipTransferred","type":"event"},{"anonymous":false,"inputs":[{"indexed":true,"internalType":"address","name":"worker","type":"address"},{"indexed":false,"internalType":"uint256","name":"amount","type":"uint256"}],"name":"RewardClaimed","type":"event"},{"anonymous":false,"inputs":[{"indexed":true,"internalType":"uint256","name":"taskId","type":"uint256"},{"indexed":true,"internalType":"address","name":"worker","type":"address"}],"name":"TaskAssigned","type":"event"},{"anonymous":false,"inputs":[{"indexed":true,"internalType":"uint256","name":"taskId","type":"uint256"},{"indexed":false,"internalType":"string","name":"resultHash","type":"string"}],"name":"TaskCompleted","type":"event"},{"anonymous":false,"inputs":[{"indexed":true,"internalType":"uint256","name":"taskId","type":"uint256"},{"indexed":true,"internalType":"address","name":"requester","type":"address"},{"indexed":false,"internalType":"uint256","name":"rewardAmount","type":"uint256"}],"name":"TaskCreated","type":"event"},{"anonymous":false,"inputs":[{"indexed":true,"internalType":"uint256","name":"taskId","type":"uint256"},{"indexed":false,"internalType":"string","name":"reason","type":"string"}],"name":"TaskDisputed","type":"event"},{"anonymous":false,"inputs":[{"indexed":true,"internalType":"uint256","name":"taskId","type":"uint256"},{"indexed":true,"internalType":"address","name":"worker","type":"address"},{"indexed":false,"internalType":"uint256","name":"rewardAmount","type":"uint256"}],"name":"TaskVerified","type":"event"},{"anonymous":false,"inputs":[{"indexed":true,"internalType":"address","name":"from","type":"address"},{"indexed":true,"internalType":"address","name":"to","type":"address"},{"indexed":false,"internalType":"uint256","name":"value","type":"uint256"}],"name":"Transfer","type":"event"},{"anonymous":false,"inputs":[{"indexed":true,"internalType":"address","name":"worker","type":"address"},{"indexed":false,"internalType":"string","name":"peerId","type":"string"}],"name":"WorkerRegistered","type":"event"},{"inputs":[],"name":"MIN_REWARD","outputs":[{"internalType":"uint256","name":"","type":"uint256"}],"stateMutability":"view","type":"function"},{"inputs":[],"name":"PLATFORM_FEE_PERCENT","outputs":[{"internalType":"uint256","name":"","type":"uint256"}],"stateMutability":"view","type":"function"},{"inputs":[],"name":"TASK_TIMEOUT","outputs":[{"internalType":"uint256","name":"","type":"uint256"}],"stateMutability":"view","type":"function"},{"inputs":[],"name":"VERIFICATION_PERIOD","outputs":[{"internalType":"uint256","name":"","type":"uint256"}],"stateMutability":"view","type":"function"},{"inputs":[{"internalType":"address","name":"owner","type":"address"},{"internalType":"address","name":"spender","type":"address"}],"name":"allowance","outputs":[{"internalType":"uint256","name":"","type":"uint256"}],"stateMutability":"view","type":"function"},{"inputs":[{"internalType":"address","name":"spender","type":"address"},{"internalType":"uint256","name":"value","type":"uint256"}],"name":"approve","outputs":[{"internalType":"bool","name":"","type":"bool"}],"stateMutability":"nonpayable","type":"function"},{"inputs":[{"internalType":"uint256","name":"taskId","type":"uint256"},{"internalType":"address","name":"worker","type":"address"}],"name":"assignTask","outputs":[],"stateMutability":"nonpayable","type":"function"},{"inputs":[{"internalType":"uint256","name":"taskId","type":"uint256"}],"name":"autoVerifyTask","outputs":[],"stateMutability":"nonpayable","type":"function"},{"inputs":[{"internalType":"address","name":"account","type":"address"}],"name":"balanceOf","outputs":[{"internalType":"uint256","name":"","type":"uint256"}],"stateMutability":"view","type":"function"},{"inputs":[],"name":"claimRewards","outputs":[],"stateMutability":"nonpayable","type":"function"},{"inputs":[{"internalType":"string","name":"taskHash","type":"string"},{"internalType":"uint256","name":"deadline","type":"uint256"}],"name":"createTask","outputs":[],"stateMutability":"payable","type":"function"},{"inputs":[],"name":"decimals","outputs":[{"internalType":"uint8","name":"","type":"uint8"}],"stateMutability":"view","type":"function"},{"inputs":[{"internalType":"uint256","name":"taskId","type":"uint256"},{"internalType":"string","name":"reason","type":"string"}],"name":"disputeTask","outputs":[],"stateMutability":"nonpayable","type":"function"},{"inputs":[{"internalType":"uint256","name":"taskId","type":"uint256"}],"name":"emergencyCancel","outputs":[],"stateMutability":"nonpayable","type":"function"},{"inputs":[{"internalType":"uint256","name":"limit","type":"uint256"}],"name":"getAvailableTasks","outputs":[{"internalType":"uint256[]","name":"","type":"uint256[]"}],"stateMutability":"view","type":"function"},{"inputs":[],"name":"getPlatformStats","outputs":[{"internalType":"uint256","name":"totalTasks","type":"uint256"},{"internalType":"uint256","name":"completedTasks","type":"uint256"},{"internalType":"uint256","name":"totalRewards","type":"uint256"},{"internalType":"uint256","name":"activeWorkers","type":"uint256"}],"stateMutability":"view","type":"function"},{"inputs":[{"internalType":"uint256","name":"taskId","type":"uint256"}],"name":"getTask","outputs":[{"components":[{"internalType":"uint256","name":"taskId","type":"uint256"},{"internalType":"address","name":"requester","type":"address"},{"internalType":"address","name":"worker","type":"address"},{"internalType":"string","name":"taskHash","type":"string"},{"internalType":"uint256","name":"rewardAmount","type":"uint256"},{"internalType":"uint256","name":"deadline","type":"uint256"},{"internalType":"enum ComputeReward.TaskStatus","name":"status","type":"uint8"},{"internalType":"string","name":"resultHash","type":"string"},{"internalType":"uint256","name":"createdAt","type":"uint256"},{"internalType":"uint256","name":"completedAt","type":"uint256"}],"internalType":"struct ComputeReward.ComputeTask","name":"","type":"tuple"}],"stateMutability":"view","type":"function"},{"inputs":[{"internalType":"address","name":"user","type":"address"}],"name":"getUserTasks","outputs":[{"internalType":"uint256[]","name":"","type":"uint256[]"}],"stateMutability":"view","type":"function"},{"inputs":[{"internalType":"address","name":"worker","type":"address"}],"name":"getWorkerInfo","outputs":[{"internalType":"bool","name":"isRegistered","type":"bool"},{"internalType":"string","name":"peerId","type":"string"},{"internalType":"uint256","name":"reputation","type":"uint256"},{"internalType":"uint256","name":"pendingRewards","type":"uint256"},{"internalType":"uint256","name":"completedTasks","type":"uint256"}],"stateMutability":"view","type":"function"},{"inputs":[{"internalType":"address","name":"worker","type":"address"}],"name":"getWorkerTasks","outputs":[{"internalType":"uint256[]","name":"","type":"uint256[]"}],"stateMutability":"view","type":"function"},{"inputs":[],"name":"name","outputs":[{"internalType":"string","name":"","type":"string"}],"stateMutability":"view","type":"function"},{"inputs":[],"name":"nextTaskId","outputs":[{"internalType":"uint256","name":"","type":"uint256"}],"stateMutability":"view","type":"function"},{"inputs":[],"name":"owner","outputs":[{"internalType":"address","name":"","type":"address"}],"stateMutability":"view","type":"function"},{"inputs":[{"internalType":"string","name":"","type":"string"}],"name":"peerIdToWorker","outputs":[{"internalType":"address","name":"","type":"address"}],"stateMutability":"view","type":"function"},{"inputs":[{"internalType":"string","name":"peerId","type":"string"}],"name":"registerWorker","outputs":[],"stateMutability":"nonpayable","type":"function"},{"inputs":[{"internalType":"address","name":"","type":"address"}],"name":"registeredWorkers","outputs":[{"internalType":"bool","name":"","type":"bool"}],"stateMutability":"view","type":"function"},{"inputs":[],"name":"renounceOwnership","outputs":[],"stateMutability":"nonpayable","type":"function"},{"inputs":[{"internalType":"uint256","name":"taskId","type":"uint256"},{"internalType":"string","name":"resultHash","type":"string"}],"name":"submitResult","outputs":[],"stateMutability":"nonpayable","type":"function"},{"inputs":[],"name":"symbol","outputs":[{"internalType":"string","name":"","type":"string"}],"stateMutability":"view","type":"function"},{"inputs":[{"internalType":"uint256","name":"","type":"uint256"}],"name":"tasks","outputs":[{"internalType":"uint256","name":"taskId","type":"uint256"},{"internalType":"address","name":"requester","type":"address"},{"internalType":"address","name":"worker","type":"address"},{"internalType":"string","name":"taskHash","type":"string"},{"internalType":"uint256","name":"rewardAmount","type":"uint256"},{"internalType":"uint256","name":"deadline","type":"uint256"},{"internalType":"enum ComputeReward.TaskStatus","name":"status","type":"uint8"},{"internalType":"string","name":"resultHash","type":"string"},{"internalType":"uint256","name":"createdAt","type":"uint256"},{"internalType":"uint256","name":"completedAt","type":"uint256"}],"stateMutability":"view","type":"function"},{"inputs":[],"name":"totalRewardsDistributed","outputs":[{"internalType":"uint256","name":"","type":"uint256"}],"stateMutability":"view","type":"function"},{"inputs":[],"name":"totalSupply","outputs":[{"internalType":"uint256","name":"","type":"uint256"}],"stateMutability":"view","type":"function"},{"inputs":[],"name":"totalTasksCompleted","outputs":[{"internalType":"uint256","name":"","type":"uint256"}],"stateMutability":"view","type":"function"},{"inputs":[],"name":"totalTasksCreated","outputs":[{"internalType":"uint256","name":"","type":"uint256"}],"stateMutability":"view","type":"function"},{"inputs":[{"internalType":"address","name":"to","type":"address"},{"internalType":"uint256","name":"value","type":"uint256"}],"name":"transfer","outputs":[{"internalType":"bool","name":"","type":"bool"}],"stateMutability":"nonpayable","type":"function"},{"inputs":[{"internalType":"address","name":"from","type":"address"},{"internalType":"address","name":"to","type":"address"},{"internalType":"uint256","name":"value","type":"uint256"}],"name":"transferFrom","outputs":[{"internalType":"bool","name":"","type":"bool"}],"stateMutability":"nonpayable","type":"function"},{"inputs":[{"internalType":"address","name":"newOwner","type":"address"}],"name":"transferOwnership","outputs":[],"stateMutability":"nonpayable","type":"function"},{"inputs":[{"internalType":"address","name":"","type":"address"},{"internalType":"uint256","name":"","type":"uint256"}],"name":"userTasks","outputs":[{"internalType":"uint256","name":"","type":"uint256"}],"stateMutability":"view","type":"function"},{"inputs":[{"internalType":"uint256","name":"taskId","type":"uint256"}],"name":"verifyTask","outputs":[],"stateMutability":"nonpayable","type":"function"},{"inputs":[],"name":"withdrawPlatformFees","outputs":[],"stateMutability":"nonpayable","type":"function"},{"inputs":[{"internalType":"address","name":"","type":"address"}],"name":"workerPeerIds","outputs":[{"internalType":"string","name":"","type":"string"}],"stateMutability":"view","type":"function"},{"inputs":[{"internalType":"address","name":"","type":"address"}],"name":"workerReputation","outputs":[{"internalType":"uint256","name":"","type":"uint256"}],"stateMutability":"view","type":"function"},{"inputs":[{"internalType":"address","name":"","type":"address"}],"name":"workerRewards","outputs":[{"internalType":"uint256","name":"","type":"uint256"}],"stateMutability":"view","type":"function"},{"inputs":[{"internalType":"address","name":"","type":"address"},{"internalType":"uint256","name":"","type":"uint256"}],"name":"workerTasks","outputs":[{"internalType":"uint256","name":"","type":"uint256"}],"stateMutability":"view","type":"function"}],"evm":{"bytecode":{"linkReferences":{},"object":"60806040526001600f553480156200001657600080fd5b50336040518060400160405280600f81526020016e23a82a9021b430b4b7102a37b5b2b760891b815250604051806040016040528060048152602001634750554360e01b81525081600390816200006e919062000357565b5060046200007d828262000357565b5050506001600160a01b038116620000b057604051631e4fbdf760e01b8152600060048201526024015b60405180910390fd5b620000bb81620000ef565b506001600655620000e933620000d46012600a62000538565b620000e390620f424062000550565b62000141565b62000580565b600580546001600160a01b038381166001600160a01b0319831681179093556040519116919082907f8be0079c531659141344cd1fd0a4f28419497f9722a3daafe3b4186f6b6457e090600090a35050565b6001600160a01b0382166200016d5760405163ec442f0560e01b815260006004820152602401620000a7565b6200017b600083836200017f565b5050565b6001600160a01b038316620001ae578060026000828254620001a291906200056a565b90915550620002229050565b6001600160a01b03831660009081526020819052604090205481811015620002035760405163391434e360e21b81526001600160a01b03851660048201526024810182905260448101839052606401620000a7565b6001600160a01b03841660009081526020819052604090209082900390555b6001600160a01b03821662000240576002805482900390556200025f565b6001600160a01b03821660009081526020819052604090208054820190555b816001600160a01b0316836001600160a01b03167fddf252ad1be2c89b69c2b068fc378daa952ba7f163c4a11628f55a4df523b3ef83604051620002a591815260200190565b60405180910390a3505050565b634e487b7160e01b600052604160045260246000fd5b600181811c90821680620002dd57607f821691505b602082108103620002fe57634e487b7160e01b600052602260045260246000fd5b50919050565b601f8211156200035257600081815260208120601f850160051c810160208610156200032d5750805b601f850160051c820191505b818110156200034e5782815560010162000339565b5050505b505050565b81516001600160401b03811115620003735762000373620002b2565b6200038b81620003848454620002c8565b8462000304565b602080601f831160018114620003c35760008415620003aa5750858301515b600019600386901b1c1916600185901b1785556200034e565b600085815260208120601f198616915b82811015620003f457888601518255948401946001909101908401620003d3565b5085821015620004135787850151600019600388901b60f8161c191681555b5050505050600190811b01905550565b634e487b7160e01b600052601160045260246000fd5b600181815b808511156200047a5781600019048211156200045e576200045e62000423565b808516156200046c57918102915b93841c93908002906200043e565b509250929050565b600082620004935750600162000532565b81620004a25750600062000532565b8160018114620004bb5760028114620004c657620004e6565b600191505062000532565b60ff841115620004da57620004da62000423565b50506001821b62000532565b5060208310610133831016604e8410600b84101617156200050b575081810a62000532565b62000517838362000439565b80600019048211156200052e576200052e62000423565b0290505b92915050565b60006200054960ff84168362000482565b9392505050565b808202811582820484141762000532576200053262000423565b8082018082111562000532576200053262000423565b612cc580620005906000396000f3fe6080604052600436106102675760003560e01c806366873a5511610144578063ac760d81116100b6578063dd75cd9b1161007a578063dd75cd9b146107b2578063ee172546146107d2578063f2fde38b146107e8578063fa62375c14610808578063fd4df69b14610849578063fdc3d8d71461085f57600080fd5b8063ac760d81146106e6578063bc5fe2d914610706578063ce8ef7a614610726578063d0b7830b14610757578063dd62ed3e1461076c57600080fd5b80638d977672116101085780638d977672146105fc5780638da5cb5b1461063257806395d576601461066457806395d89b4114610691578063a9059cbb146106a6578063aae895c5146106c657600080fd5b806366873a551461055157806370a0823114610571578063715018a6146105a757806380c8f4fa146105bc5780638c0dd79a146105dc57600080fd5b8063313ce567116101dd5780634bddd209116101a15780634bddd209146104b0578063521523ff146104d05780635293ee81146104e65780635573e3ef14610506578063560d52d4146105265780635e9dbe4f1461053b57600080fd5b8063313ce567146104075780633355bc4d14610423578063372500ab14610450578063420569da1461046557806348ea0c031461049557600080fd5b8063108ab45e1161022f578063108ab45e14610337578063136d88831461034d57806318160ddd146103855780631d65e77e1461039a57806323b872dd146103c75780632bf70dee146103e757600080fd5b806304fe2b341461026c57806306fdde031461028157806308a101b8146102ac578063095ea7b3146102e7578063103027d214610317575b600080fd5b61027f61027a366004612601565b610875565b005b34801561028d57600080fd5b50610296610b33565b6040516102a39190612696565b60405180910390f35b3480156102b857600080fd5b506102d96102c73660046126cc565b600e6020526000908152604090205481565b6040519081526020016102a3565b3480156102f357600080fd5b506103076103023660046126e7565b610bc5565b60405190151581526020016102a3565b34801561032357600080fd5b5061027f610332366004612711565b610bdf565b34801561034357600080fd5b506102d960115481565b34801561035957600080fd5b5060105460115460125460006040805194855260208501939093529183015260608201526080016102a3565b34801561039157600080fd5b506002546102d9565b3480156103a657600080fd5b506103ba6103b5366004612711565b610db9565b6040516102a39190612762565b3480156103d357600080fd5b506103076103e2366004612820565b61100e565b3480156103f357600080fd5b506102d96104023660046126e7565b611032565b34801561041357600080fd5b50604051601281526020016102a3565b34801561042f57600080fd5b506102d961043e3660046126cc565b600a6020526000908152604090205481565b34801561045c57600080fd5b5061027f611063565b34801561047157600080fd5b506103076104803660046126cc565b600d6020526000908152604090205460ff1681565b3480156104a157600080fd5b506102d966038d7ea4c6800081565b3480156104bc57600080fd5b5061027f6104cb36600461285c565b6111b4565b3480156104dc57600080fd5b506102d961025881565b3480156104f257600080fd5b5061027f6105013660046128a3565b611369565b34801561051257600080fd5b5061027f610521366004612711565b611536565b34801561053257600080fd5b506102d9600581565b34801561054757600080fd5b506102d9610e1081565b34801561055d57600080fd5b506102d961056c3660046126e7565b6115f1565b34801561057d57600080fd5b506102d961058c3660046126cc565b6001600160a01b031660009081526020819052604090205490565b3480156105b357600080fd5b5061027f61160d565b3480156105c857600080fd5b5061027f6105d73660046128cf565b61161f565b3480156105e857600080fd5b5061027f6105f736600461285c565b6117ea565b34801561060857600080fd5b5061061c610617366004612711565b6119b2565b6040516102a39a9998979695949392919061290c565b34801561063e57600080fd5b506005546001600160a01b03165b6040516001600160a01b0390911681526020016102a3565b34801561067057600080fd5b5061068461067f3660046126cc565b611b26565b6040516102a39190612988565b34801561069d57600080fd5b50610296611b92565b3480156106b257600080fd5b506103076106c13660046126e7565b611ba1565b3480156106d257600080fd5b506106846106e13660046126cc565b611baf565b3480156106f257600080fd5b50610684610701366004612711565b611c19565b34801561071257600080fd5b506102966107213660046126cc565b611da7565b34801561073257600080fd5b506107466107413660046126cc565b611e41565b6040516102a39594939291906129cc565b34801561076357600080fd5b5061027f611f30565b34801561077857600080fd5b506102d9610787366004612a04565b6001600160a01b03918216600090815260016020908152604080832093909416825291909152205490565b3480156107be57600080fd5b5061027f6107cd366004612711565b612038565b3480156107de57600080fd5b506102d960125481565b3480156107f457600080fd5b5061027f6108033660046126cc565b61218b565b34801561081457600080fd5b5061064c6108233660046128cf565b8051602081830181018051600c825292820191909301209152546001600160a01b031681565b34801561085557600080fd5b506102d960105481565b34801561086b57600080fd5b506102d9600f5481565b61087d6121c6565b66038d7ea4c680003410156108ca5760405162461bcd60e51b815260206004820152600e60248201526d52657761726420746f6f206c6f7760901b60448201526064015b60405180910390fd5b42811161090c5760405162461bcd60e51b815260206004820152601060248201526f496e76616c696420646561646c696e6560801b60448201526064016108c1565b60008251116109515760405162461bcd60e51b8152602060048201526011602482015270092dcecc2d8d2c840e8c2e6d640d0c2e6d607b1b60448201526064016108c1565b600f80546000918261096283612a44565b90915550905060006064610977600534612a5d565b6109819190612a74565b9050600061098f8234612a96565b60408051610140810182528581523360208083019182526000838501818152606085018c81526080860188905260a086018c905260c086018390528651808501885283815260e08701524261010087015261012086018390528a835260079093529490208351815591516001830180546001600160a01b03199081166001600160a01b039384161790915594516002840180549096169116179093559151929350916003820190610a409082612b31565b506080820151816004015560a0820151816005015560c08201518160060160006101000a81548160ff02191690836005811115610a7f57610a7f61272a565b021790555060e08201516007820190610a989082612b31565b506101008201516008808301919091556101209092015160099091015533600090815260209182526040812080546001810182559082529181209091018490556010805491610ae683612a44565b9091555050604051818152339084907f6cf53aa7292e664152c2ea948c3b3c95d4b05c36daeb2626d0293473c4a4a1539060200160405180910390a3505050610b2f6001600655565b5050565b606060038054610b4290612aa9565b80601f0160208091040260200160405190810160405280929190818152602001828054610b6e90612aa9565b8015610bbb5780601f10610b9057610100808354040283529160200191610bbb565b820191906000526020600020905b815481529060010190602001808311610b9e57829003601f168201915b5050505050905090565b600033610bd38185856121f0565b60019150505b92915050565b610be76121c6565b60008181526007602052604081208054909103610c165760405162461bcd60e51b81526004016108c190612bf1565b6002600682015460ff166005811115610c3157610c3161272a565b14610c4e5760405162461bcd60e51b81526004016108c190612c1e565b6102588160090154610c609190612c4a565b4211610cae5760405162461bcd60e51b815260206004820152601f60248201527f566572696669636174696f6e20706572696f64206e6f7420657870697265640060448201526064016108c1565b60068101805460ff19166003179055600481015460028201546001600160a01b03166000908152600a602052604081208054909190610cee908490612c4a565b909155505060118054906000610d0383612a44565b909155505060028101546001600160a01b03166000908152600e602052604090205460641115610d605760028101546001600160a01b03166000908152600e60205260408120805460019290610d5a908490612c4a565b90915550505b600281015460048201546040519081526001600160a01b039091169083907f477d9dbad436f899729571bd347ca39a0d163bbc0870482ce5e298e4145d42519060200160405180910390a350610db66001600655565b50565b610e0e60408051610140810182526000808252602082018190529181018290526060808201526080810182905260a081018290529060c082019081526020016060815260200160008152602001600081525090565b6000828152600760205260408120549003610e3b5760405162461bcd60e51b81526004016108c190612bf1565b6000828152600760209081526040918290208251610140810184528154815260018201546001600160a01b0390811693820193909352600282015490921692820192909252600382018054919291606084019190610e9890612aa9565b80601f0160208091040260200160405190810160405280929190818152602001828054610ec490612aa9565b8015610f115780601f10610ee657610100808354040283529160200191610f11565b820191906000526020600020905b815481529060010190602001808311610ef457829003601f168201915b5050509183525050600482015460208201526005808301546040830152600683015460609092019160ff1690811115610f4c57610f4c61272a565b6005811115610f5d57610f5d61272a565b8152602001600782018054610f7190612aa9565b80601f0160208091040260200160405190810160405280929190818152602001828054610f9d90612aa9565b8015610fea5780601f10610fbf57610100808354040283529160200191610fea565b820191906000526020600020905b815481529060010190602001808311610fcd57829003601f168201915b50505050508152602001600882015481526020016009820154815250509050919050565b60003361101c858285612202565b611027858585612281565b506001949350505050565b6009602052816000526040600020818154811061104e57600080fd5b90600052602060002001600091509150505481565b61106b6121c6565b336000908152600a6020526040902054806110be5760405162461bcd60e51b81526020600482015260136024820152724e6f207265776172647320746f20636c61696d60681b60448201526064016108c1565b336000908152600a60205260408120819055601280548392906110e2908490612c4a565b9091555050604051600090339083908381818185875af1925050503d8060008114611129576040519150601f19603f3d011682016040523d82523d6000602084013e61112e565b606091505b50509050806111715760405162461bcd60e51b815260206004820152600f60248201526e151c985b9cd9995c8819985a5b1959608a1b60448201526064016108c1565b60405182815233907f106f923f993c2149d49b4255ff723acafa1f2d94393f561d3eda32ae348f72419060200160405180910390a250506111b26001600655565b565b600082815260076020526040812080549091036111e35760405162461bcd60e51b81526004016108c190612bf1565b60018101546001600160a01b0316331461122f5760405162461bcd60e51b815260206004820152600d60248201526c4e6f7420796f7572207461736b60981b60448201526064016108c1565b6002600682015460ff16600581111561124a5761124a61272a565b146112675760405162461bcd60e51b81526004016108c190612c1e565b61025881600901546112799190612c4a565b4211156112c85760405162461bcd60e51b815260206004820152601b60248201527f566572696669636174696f6e20706572696f642065787069726564000000000060448201526064016108c1565b60068101805460ff1916600417905560028101546001600160a01b03166000908152600e60205260409020541561132c5760028101546001600160a01b03166000908152600e60205260408120805460059290611326908490612a96565b90915550505b827f08824ea73fe0c710b8488bb1d0d50ab5b21b6019aa7eaebafbe0076e5f7ab9458360405161135c9190612696565b60405180910390a2505050565b600082815260076020526040812080549091036113985760405162461bcd60e51b81526004016108c190612bf1565b6000600682015460ff1660058111156113b3576113b361272a565b146113f55760405162461bcd60e51b81526020600482015260126024820152715461736b206e6f7420617661696c61626c6560701b60448201526064016108c1565b6001600160a01b0382166000908152600d602052604090205460ff166114555760405162461bcd60e51b815260206004820152601560248201527415dbdc9ad95c881b9bdd081c9959da5cdd195c9959605a1b60448201526064016108c1565b60018101546001600160a01b03163314806114785750336001600160a01b038316145b6114b55760405162461bcd60e51b815260206004820152600e60248201526d139bdd08185d5d1a1bdc9a5e995960921b60448201526064016108c1565b6002810180546001600160a01b0319166001600160a01b03841690811790915560068201805460ff191660019081179091556000828152600960209081526040808320805494850181558352908220909201869055905185917f52476d55ecef5cf13caa64038f297fe6bbf865d9584a98b8722a15a6d5db128f91a3505050565b61153e6121c6565b6000818152600760205260408120805490910361156d5760405162461bcd60e51b81526004016108c190612bf1565b60018101546001600160a01b031633146115b95760405162461bcd60e51b815260206004820152600d60248201526c4e6f7420796f7572207461736b60981b60448201526064016108c1565b6002600682015460ff1660058111156115d4576115d461272a565b14610cae5760405162461bcd60e51b81526004016108c190612c1e565b6008602052816000526040600020818154811061104e57600080fd5b6116156122e0565b6111b2600061230d565b60008151116116625760405162461bcd60e51b815260206004820152600f60248201526e125b9d985b1a59081c19595c881251608a1b60448201526064016108c1565b336000908152600d602052604090205460ff16156116b75760405162461bcd60e51b8152602060048201526012602482015271105b1c9958591e481c9959da5cdd195c995960721b60448201526064016108c1565b60006001600160a01b0316600c826040516116d29190612c5d565b908152604051908190036020019020546001600160a01b0316146117305760405162461bcd60e51b81526020600482015260156024820152742832b2b91024a21030b63932b0b23c903a30b5b2b760591b60448201526064016108c1565b336000908152600d60209081526040808320805460ff19166001179055600b909152902061175e8282612b31565b5033600c826040516117709190612c5d565b908152604080516020928190038301812080546001600160a01b0319166001600160a01b039590951694909417909355336000818152600e909352912060329055907fb2bc7d962e634836b6f2383ee5f842b8829c7771d414c3f8862c577f4730a3e8906117df908490612696565b60405180910390a250565b600082815260076020526040812080549091036118195760405162461bcd60e51b81526004016108c190612bf1565b60028101546001600160a01b0316331461186b5760405162461bcd60e51b81526020600482015260136024820152724e6f742061737369676e656420746f20796f7560681b60448201526064016108c1565b6001600682015460ff1660058111156118865761188661272a565b146118ca5760405162461bcd60e51b81526020600482015260146024820152735461736b206e6f7420696e2070726f677265737360601b60448201526064016108c1565b80600501544211156119155760405162461bcd60e51b815260206004820152601460248201527315185cdac8191958591b1a5b99481c185cdcd95960621b60448201526064016108c1565b600082511161195c5760405162461bcd60e51b8152602060048201526013602482015272092dcecc2d8d2c840e4cae6ead8e840d0c2e6d606b1b60448201526064016108c1565b6007810161196a8382612b31565b5060068101805460ff1916600217905542600982015560405183907f7e6ffc29fe63759579d96a0457a8f2e08339aca345bd469f59dc2e61f82a5aeb9061135c908590612696565b600760205260009081526040902080546001820154600283015460038401805493946001600160a01b039384169493909216926119ee90612aa9565b80601f0160208091040260200160405190810160405280929190818152602001828054611a1a90612aa9565b8015611a675780601f10611a3c57610100808354040283529160200191611a67565b820191906000526020600020905b815481529060010190602001808311611a4a57829003601f168201915b5050506004840154600585015460068601546007870180549697939692955060ff909116935090611a9790612aa9565b80601f0160208091040260200160405190810160405280929190818152602001828054611ac390612aa9565b8015611b105780601f10611ae557610100808354040283529160200191611b10565b820191906000526020600020905b815481529060010190602001808311611af357829003601f168201915b505050505090806008015490806009015490508a565b6001600160a01b038116600090815260086020908152604091829020805483518184028101840190945280845260609392830182828015611b8657602002820191906000526020600020905b815481526020019060010190808311611b72575b50505050509050919050565b606060048054610b4290612aa9565b600033610bd3818585612281565b6001600160a01b038116600090815260096020908152604091829020805483518184028101840190945280845260609392830182828015611b865760200282019190600052602060002090815481526020019060010190808311611b725750505050509050919050565b606060008267ffffffffffffffff811115611c3657611c3661255e565b604051908082528060200260200182016040528015611c5f578160200160208202803683370190505b509050600060015b600f5481108015611c7757508482105b15611d025760008181526007602052604081206006015460ff166005811115611ca257611ca261272a565b148015611cbf575060008181526007602052604090206005015442105b15611cf05780838381518110611cd757611cd7612c79565b602090810291909101015281611cec81612a44565b9250505b80611cfa81612a44565b915050611c67565b5060008167ffffffffffffffff811115611d1e57611d1e61255e565b604051908082528060200260200182016040528015611d47578160200160208202803683370190505b50905060005b82811015611d9e57838181518110611d6757611d67612c79565b6020026020010151828281518110611d8157611d81612c79565b602090810291909101015280611d9681612a44565b915050611d4d565b50949350505050565b600b6020526000908152604090208054611dc090612aa9565b80601f0160208091040260200160405190810160405280929190818152602001828054611dec90612aa9565b8015611e395780601f10611e0e57610100808354040283529160200191611e39565b820191906000526020600020905b815481529060010190602001808311611e1c57829003601f168201915b505050505081565b6001600160a01b0381166000908152600d6020908152604080832054600b8352818420600e845282852054600a855283862054600990955292852054815460609587958695869560ff9091169490939192918490611e9e90612aa9565b80601f0160208091040260200160405190810160405280929190818152602001828054611eca90612aa9565b8015611f175780601f10611eec57610100808354040283529160200191611f17565b820191906000526020600020905b815481529060010190602001808311611efa57829003601f168201915b50989f939e50959c50939a509198509650505050505050565b611f386122e0565b611f406121c6565b4780611f845760405162461bcd60e51b81526020600482015260136024820152724e6f206665657320746f20776974686472617760681b60448201526064016108c1565b6000611f986005546001600160a01b031690565b6001600160a01b03168260405160006040518083038185875af1925050503d8060008114611fe2576040519150601f19603f3d011682016040523d82523d6000602084013e611fe7565b606091505b505090508061202c5760405162461bcd60e51b815260206004820152601160248201527015da5d1a191c985dd85b0819985a5b1959607a1b60448201526064016108c1565b50506111b26001600655565b6120406122e0565b6120486121c6565b600081815260076020526040812080549091036120775760405162461bcd60e51b81526004016108c190612bf1565b6003600682015460ff1660058111156120925761209261272a565b036120d75760405162461bcd60e51b815260206004820152601560248201527415185cdac8185b1c9958591e481d995c9a599a5959605a1b60448201526064016108c1565b60068101805460ff19166005179055600181015460048201546040516000926001600160a01b031691908381818185875af1925050503d8060008114612139576040519150601f19603f3d011682016040523d82523d6000602084013e61213e565b606091505b505090508061217f5760405162461bcd60e51b815260206004820152600d60248201526c1499599d5b990819985a5b1959609a1b60448201526064016108c1565b5050610db66001600655565b6121936122e0565b6001600160a01b0381166121bd57604051631e4fbdf760e01b8152600060048201526024016108c1565b610db68161230d565b6002600654036121e957604051633ee5aeb560e01b815260040160405180910390fd5b6002600655565b6121fd838383600161235f565b505050565b6001600160a01b0383811660009081526001602090815260408083209386168352929052205460001981101561227b578181101561226c57604051637dc7a0d960e11b81526001600160a01b038416600482015260248101829052604481018390526064016108c1565b61227b8484848403600061235f565b50505050565b6001600160a01b0383166122ab57604051634b637e8f60e11b8152600060048201526024016108c1565b6001600160a01b0382166122d55760405163ec442f0560e01b8152600060048201526024016108c1565b6121fd838383612434565b6005546001600160a01b031633146111b25760405163118cdaa760e01b81523360048201526024016108c1565b600580546001600160a01b038381166001600160a01b0319831681179093556040519116919082907f8be0079c531659141344cd1fd0a4f28419497f9722a3daafe3b4186f6b6457e090600090a35050565b6001600160a01b0384166123895760405163e602df0560e01b8152600060048201526024016108c1565b6001600160a01b0383166123b357604051634a1406b160e11b8152600060048201526024016108c1565b6001600160a01b038085166000908152600160209081526040808320938716835292905220829055801561227b57826001600160a01b0316846001600160a01b03167f8c5be1e5ebec7d5bd14f71427d1e84f3dd0314c0f7b2291e5b200ac8c7c3b9258460405161242691815260200190565b60405180910390a350505050565b6001600160a01b03831661245f5780600260008282546124549190612c4a565b909155506124d19050565b6001600160a01b038316600090815260208190526040902054818110156124b25760405163391434e360e21b81526001600160a01b038516600482015260248101829052604481018390526064016108c1565b6001600160a01b03841660009081526020819052604090209082900390555b6001600160a01b0382166124ed5760028054829003905561250c565b6001600160a01b03821660009081526020819052604090208054820190555b816001600160a01b0316836001600160a01b03167fddf252ad1be2c89b69c2b068fc378daa952ba7f163c4a11628f55a4df523b3ef8360405161255191815260200190565b60405180910390a3505050565b634e487b7160e01b600052604160045260246000fd5b600082601f83011261258557600080fd5b813567ffffffffffffffff808211156125a0576125a061255e565b604051601f8301601f19908116603f011681019082821181831017156125c8576125c861255e565b816040528381528660208588010111156125e157600080fd5b836020870160208301376000602085830101528094505050505092915050565b6000806040838503121561261457600080fd5b823567ffffffffffffffff81111561262b57600080fd5b61263785828601612574565b95602094909401359450505050565b60005b83811015612661578181015183820152602001612649565b50506000910152565b60008151808452612682816020860160208601612646565b601f01601f19169290920160200192915050565b6020815260006126a9602083018461266a565b9392505050565b80356001600160a01b03811681146126c757600080fd5b919050565b6000602082840312156126de57600080fd5b6126a9826126b0565b600080604083850312156126fa57600080fd5b612703836126b0565b946020939093013593505050565b60006020828403121561272357600080fd5b5035919050565b634e487b7160e01b600052602160045260246000fd5b6006811061275e57634e487b7160e01b600052602160045260246000fd5b9052565b60208152815160208201526000602083015161278960408401826001600160a01b03169052565b5060408301516001600160a01b03811660608401525060608301516101408060808501526127bb61016085018361266a565b9150608085015160a085015260a085015160c085015260c08501516127e360e0860182612740565b5060e0850151610100601f198685030181870152612801848361266a565b9087015161012087810191909152909601519190940152509192915050565b60008060006060848603121561283557600080fd5b61283e846126b0565b925061284c602085016126b0565b9150604084013590509250925092565b6000806040838503121561286f57600080fd5b82359150602083013567ffffffffffffffff81111561288d57600080fd5b61289985828601612574565b9150509250929050565b600080604083850312156128b657600080fd5b823591506128c6602084016126b0565b90509250929050565b6000602082840312156128e157600080fd5b813567ffffffffffffffff8111156128f857600080fd5b61290484828501612574565b949350505050565b8a81526001600160a01b038a81166020830152891660408201526101406060820181905260009061293f8382018b61266a565b90508860808401528760a084015261295a60c0840188612740565b82810360e084015261296c818761266a565b6101008401959095525050610120015298975050505050505050565b6020808252825182820181905260009190848201906040850190845b818110156129c0578351835292840192918401916001016129a4565b50909695505050505050565b851515815260a0602082015260006129e760a083018761266a565b604083019590955250606081019290925260809091015292915050565b60008060408385031215612a1757600080fd5b612a20836126b0565b91506128c6602084016126b0565b634e487b7160e01b600052601160045260246000fd5b600060018201612a5657612a56612a2e565b5060010190565b8082028115828204841417610bd957610bd9612a2e565b600082612a9157634e487b7160e01b600052601260045260246000fd5b500490565b81810381811115610bd957610bd9612a2e565b600181811c90821680612abd57607f821691505b602082108103612add57634e487b7160e01b600052602260045260246000fd5b50919050565b601f8211156121fd57600081815260208120601f850160051c81016020861015612b0a5750805b601f850160051c820191505b81811015612b2957828155600101612b16565b505050505050565b815167ffffffffffffffff811115612b4b57612b4b61255e565b612b5f81612b598454612aa9565b84612ae3565b602080601f831160018114612b945760008415612b7c5750858301515b600019600386901b1c1916600185901b178555612b29565b600085815260208120601f198616915b82811015612bc357888601518255948401946001909101908401612ba4565b5085821015612be15787850151600019600388901b60f8161c191681555b5050505050600190811b01905550565b60208082526013908201527215185cdac8191bd95cc81b9bdd08195e1a5cdd606a1b604082015260600190565b60208082526012908201527115185cdac81b9bdd0818dbdb5c1b195d195960721b604082015260600190565b80820180821115610bd957610bd9612a2e565b60008251612c6f818460208701612646565b9190910192915050565b634e487b7160e01b600052603260045260246000fdfea2646970667358221220c7cb2c9d135b139af2b86a8664be1e7664286c073dc721b37b0cb1ea5a11322564736f6c63430008140033","opcodes":"PUSH1 0x80 PUSH1 0x40 MSTORE PUSH1 0x1 PUSH1 0xF SSTORE CALLVALUE DUP1 ISZERO PUSH3 0x16 JUMPI PUSH1 0x0 DUP1 REVERT JUMPDEST POP CALLER PUSH1 0x40 MLOAD DUP1 PUSH1 0x40 ADD PUSH1 0x40 MSTORE DUP1 PUSH1 0xF DUP2 MSTORE PUSH1 0x20 ADD PUSH15 0x23A82A9021B430B4B7102A37B5B2B7 PUSH1 0x89 SHL DUP2 MSTORE POP PUSH1 0x40 MLOAD DUP1 PUSH1 0x40 ADD PUSH1 0x40 MSTORE DUP1 PUSH1 0x4 DUP2 MSTORE PUSH1 0x20 ADD PUSH4 0x47505543 PUSH1 0xE0 SHL DUP2 MSTORE POP DUP2 PUSH1 0x3 SWAP1 DUP2 PUSH3 0x6E SWAP2 SWAP1 PUSH3 0x357 JUMP JUMPDEST POP PUSH1 0x4 PUSH3 0x7D DUP3 DUP3 PUSH3 0x357 JUMP JUMPDEST POP POP POP PUSH1 0x1 PUSH1 0x1 PUSH1 0xA0 SHL SUB DUP2 AND PUSH3 0xB0 JUMPI PUSH1 0x40 MLOAD PUSH4 0x1E4FBDF7 PUSH1 0xE0 SHL DUP2 MSTORE PUSH1 0x0 PUSH1 0x4 DUP3 ADD MSTORE PUSH1 0x24 ADD JUMPDEST PUSH1 0x40 MLOAD DUP1 SWAP2 SUB SWAP1 REVERT JUMPDEST PUSH3 0xBB DUP2 PUSH3 0xEF JUMP JUMPDEST POP PUSH1 0x1 PUSH1 0x6 SSTORE PUSH3 0xE9 CALLER PUSH3 0xD4 PUSH1 0x12 PUSH1 0xA PUSH3 0x538 JUMP JUMPDEST PUSH3 0xE3 SWAP1 PUSH3 0xF4240 PUSH3 0x550 JUMP JUMPDEST PUSH3 0x141 JUMP JUMPDEST PUSH3 0x580 JUMP JUMPDEST PUSH1 0x5 DUP1 SLOAD PUSH1 0x1 PUSH1 0x1 PUSH1 0xA0 SHL SUB DUP4 DUP2 AND PUSH1 0x1 PUSH1 0x1 PUSH1 0xA0 SHL SUB NOT DUP4 AND DUP2 OR SWAP1 SWAP4 SSTORE PUSH1 0x40 MLOAD SWAP2 AND SWAP2 SWAP1 DUP3 SWAP1 PUSH32 0x8BE0079C531659141344CD1FD0A4F28419497F9722A3DAAFE3B4186F6B6457E0 SWAP1 PUSH1 0x0 SWAP1 LOG3 POP POP JUMP JUMPDEST PUSH1 0x1 PUSH1 0x1 PUSH1 0xA0 SHL SUB DUP3 AND PUSH3 0x16D JUMPI PUSH1 0x40 MLOAD PUSH4 0xEC442F05 PUSH1 0xE0 SHL DUP2 MSTORE PUSH1 0x0 PUSH1 0x4 DUP3 ADD MSTORE PUSH1 0x24 ADD PUSH3 0xA7 JUMP JUMPDEST PUSH3 0x17B PUSH1 0x0 DUP4 DUP4 PUSH3 0x17F JUMP JUMPDEST POP POP JUMP JUMPDEST PUSH1 0x1 PUSH1 0x1 PUSH1 0xA0 SHL SUB DUP4 AND PUSH3 0x1AE JUMPI DUP1 PUSH1 0x2 PUSH1 0x0 DUP3 DUP3 SLOAD PUSH3 0x1A2 SWAP2 SWAP1 PUSH3 0x56A JUMP JUMPDEST SWAP1 SWAP2 SSTORE POP PUSH3 0x222 SWAP1 POP JUMP JUMPDEST PUSH1 0x1 PUSH1 0x1 PUSH1 0xA0 SHL SUB DUP4 AND PUSH1 0x0 SWAP1 DUP2 MSTORE PUSH1 0x20 DUP2 SWAP1 MSTORE PUSH1 0x40 SWAP1 KECCAK256 SLOAD DUP2 DUP2 LT ISZERO PUSH3 0x203 JUMPI PUSH1 0x40 MLOAD PUSH4 0x391434E3 PUSH1 0xE2 SHL DUP2 MSTORE PUSH1 0x1 PUSH1 0x1 PUSH1 0xA0 SHL SUB DUP6 AND PUSH1 0x4 DUP3 ADD MSTORE PUSH1 0x24 DUP2 ADD DUP3 SWAP1 MSTORE PUSH1 0x44 DUP2 ADD DUP4 SWAP1 MSTORE PUSH1 0x64 ADD PUSH3 0xA7 JUMP JUMPDEST PUSH1 0x1 PUSH1 0x1 PUSH1 0xA0 SHL SUB DUP5 AND PUSH1 0x0 SWAP1 DUP2 MSTORE PUSH1 0x20 DUP2 SWAP1 MSTORE PUSH1 0x40 SWAP1 KECCAK256 SWAP1 DUP3 SWAP1 SUB SWAP1 SSTORE JUMPDEST PUSH1 0x1 PUSH1 0x1 PUSH1 0xA0 SHL SUB DUP3 AND PUSH3 0x240 JUMPI PUSH1 0x2 DUP1 SLOAD DUP3 SWAP1 SUB SWAP1 SSTORE PUSH3 0x25F JUMP JUMPDEST PUSH1 0x1 PUSH1 0x1 PUSH1 0xA0 SHL SUB DUP3 AND PUSH1 0x0 SWAP1 DUP2 MSTORE PUSH1 0x20 DUP2 SWAP1 MSTORE PUSH1 0x40 SWAP1 KECCAK256 DUP1 SLOAD DUP3 ADD SWAP1 SSTORE JUMPDEST DUP2 PUSH1 0x1 PUSH1 0x1 PUSH1 0xA0 SHL SUB AND DUP4 PUSH1 0x1 PUSH1 0x1 PUSH1 0xA0 SHL SUB AND PUSH32 0xDDF252AD1BE2C89B69C2B068FC378DAA952BA7F163C4A11628F55A4DF523B3EF DUP4 PUSH1 0x40 MLOAD PUSH3 0x2A5 SWAP2 DUP2 MSTORE PUSH1 0x20 ADD SWAP1 JUMP JUMPDEST PUSH1 0x40 MLOAD DUP1 SWAP2 SUB SWAP1 LOG3 POP POP POP JUMP JUMPDEST PUSH4 0x4E487B71 PUSH1 0xE0 SHL PUSH1 0x0 MSTORE PUSH1 0x41 PUSH1 0x4 MSTORE PUSH1 0x24 PUSH1 0x0 REVERT JUMPDEST PUSH1 0x1 DUP2 DUP2 SHR SWAP1 DUP3 AND DUP1 PUSH3 0x2DD JUMPI PUSH1 0x7F DUP3 AND SWAP2 POP JUMPDEST PUSH1 0x20 DUP3 LT DUP2 SUB PUSH3 0x2FE JUMPI PUSH4 0x4E487B71 PUSH1 0xE0 SHL PUSH1 0x0 MSTORE PUSH1 0x22 PUSH1 0x4 MSTORE PUSH1 0x24 PUSH1 0x0 REVERT JUMPDEST POP SWAP2 SWAP1 POP JUMP JUMPDEST PUSH1 0x1F DUP3 GT ISZERO PUSH3 0x352 JUMPI PUSH1 0x0 DUP2 DUP2 MSTORE PUSH1 0x20 DUP2 KECCAK256 PUSH1 0x1F DUP6 ADD PUSH1 0x5 SHR DUP2 ADD PUSH1 0x20 DUP7 LT ISZERO PUSH3 0x32D JUMPI POP DUP1 JUMPDEST PUSH1 0x1F DUP6 ADD PUSH1 0x5 SHR DUP3 ADD SWAP2 POP JUMPDEST DUP2 DUP2 LT ISZERO PUSH3 0x34E JUMPI DUP3 DUP2 SSTORE PUSH1 0x1 ADD PUSH3 0x339 JUMP JUMPDEST POP POP POP JUMPDEST POP POP POP JUMP JUMPDEST DUP2 MLOAD PUSH1 0x1 PUSH1 0x1 PUSH1 0x40 SHL SUB DUP2 GT ISZERO PUSH3 0x373 JUMPI PUSH3 0x373 PUSH3 0x2B2 JUMP JUMPDEST PUSH3 0x38B DUP2 PUSH3 0x384 DUP5 SLOAD PUSH3 0x2C8 JUMP JUMPDEST DUP5 PUSH3 0x304 JUMP JUMPDEST PUSH1 0x20 DUP1 PUSH1 0x1F DUP4 GT PUSH1 0x1 DUP2 EQ PUSH3 0x3C3 JUMPI PUSH1 0x0 DUP5 ISZERO PUSH3 0x3AA JUMPI POP DUP6 DUP4 ADD MLOAD JUMPDEST PUSH1 0x0 NOT PUSH1 0x3 DUP7 SWAP1 SHL SHR NOT AND PUSH1 0x1 DUP6 SWAP1 SHL OR DUP6 SSTORE PUSH3 0x34E JUMP JUMPDEST PUSH1 0x0 DUP6 DUP2 MSTORE PUSH1 0x20 DUP2 KECCAK256 PUSH1 0x1F NOT DUP7 AND SWAP2 JUMPDEST DUP3 DUP2 LT ISZERO PUSH3 0x3F4 JUMPI DUP9 DUP7 ADD MLOAD DUP3 SSTORE SWAP5 DUP5 ADD SWAP5 PUSH1 0x1 SWAP1 SWAP2 ADD SWAP1 DUP5 ADD PUSH3 0x3D3 JUMP JUMPDEST POP DUP6 DUP3 LT ISZERO PUSH3 0x413 JUMPI DUP8 DUP6 ADD MLOAD PUSH1 0x0 NOT PUSH1 0x3 DUP9 SWAP1 SHL PUSH1 0xF8 AND SHR NOT AND DUP2 SSTORE JUMPDEST POP POP POP POP POP PUSH1 0x1 SWAP1 DUP2 SHL ADD SWAP1 SSTORE POP JUMP JUMPDEST PUSH4 0x4E487B71 PUSH1 0xE0 SHL PUSH1 0x0 MSTORE PUSH1 0x11 PUSH1 0x4 MSTORE PUSH1 0x24 PUSH1 0x0 REVERT JUMPDEST PUSH1 0x1 DUP2 DUP2 JUMPDEST DUP1 DUP6 GT ISZERO PUSH3 0x47A JUMPI DUP2 PUSH1 0x0 NOT DIV DUP3 GT ISZERO PUSH3 0x45E JUMPI PUSH3 0x45E PUSH3 0x423 JUMP JUMPDEST DUP1 DUP6 AND ISZERO PUSH3 0x46C JUMPI SWAP2 DUP2 MUL SWAP2 JUMPDEST SWAP4 DUP5 SHR SWAP4 SWAP1 DUP1 MUL SWAP1 PUSH3 0x43E JUMP JUMPDEST POP SWAP3 POP SWAP3 SWAP1 POP JUMP JUMPDEST PUSH1 0x0 DUP3 PUSH3 0x493 JUMPI POP PUSH1 0x1 PUSH3 0x532 JUMP JUMPDEST DUP2 PUSH3 0x4A2 JUMPI POP PUSH1 0x0 PUSH3 0x532 JUMP JUMPDEST DUP2 PUSH1 0x1 DUP2 EQ PUSH3 0x4BB JUMPI PUSH1 0x2 DUP2 EQ PUSH3 0x4C6 JUMPI PUSH3 0x4E6 JUMP JUMPDEST PUSH1 0x1 SWAP2 POP POP PUSH3 0x532 JUMP JUMPDEST PUSH1 0xFF DUP5 GT ISZERO PUSH3 0x4DA JUMPI PUSH3 0x4DA PUSH3 0x423 JUMP JUMPDEST POP POP PUSH1 0x1 DUP3 SHL PUSH3 0x532 JUMP JUMPDEST POP PUSH1 0x20 DUP4 LT PUSH2 0x133 DUP4 LT AND PUSH1 0x4E DUP5 LT PUSH1 0xB DUP5 LT AND OR ISZERO PUSH3 0x50B JUMPI POP DUP2 DUP2 EXP PUSH3 0x532 JUMP JUMPDEST PUSH3 0x517 DUP4 DUP4 PUSH3 0x439 JUMP JUMPDEST DUP1 PUSH1 0x0 NOT DIV DUP3 GT ISZERO PUSH3 0x52E JUMPI PUSH3 0x52E PUSH3 0x423 JUMP JUMPDEST MUL SWAP1 POP JUMPDEST SWAP3 SWAP2 POP POP JUMP JUMPDEST PUSH1 0x0 PUSH3 0x549 PUSH1 0xFF DUP5 AND DUP4 PUSH3 0x482 JUMP JUMPDEST SWAP4 SWAP3 POP POP POP JUMP JUMPDEST DUP1 DUP3 MUL DUP2 ISZERO DUP3 DUP3 DIV DUP5 EQ OR PUSH3 0x532 JUMPI PUSH3 0x532 PUSH3 0x423 JUMP JUMPDEST DUP1 DUP3 ADD DUP1 DUP3 GT ISZERO PUSH3 0x532 JUMPI PUSH3 0x532 PUSH3 0x423 JUMP JUMPDEST PUSH2 0x2CC5 DUP1 PUSH3 0x590 PUSH1 0x0 CODECOPY PUSH1 0x0 RETURN INVALID PUSH1 0x80 PUSH1 0x40 MSTORE PUSH1 0x4 CALLDATASIZE LT PUSH2 0x267 JUMPI PUSH1 0x0 CALLDATALOAD PUSH1 0xE0 SHR DUP1 PUSH4 0x66873A55 GT PUSH2 0x144 JUMPI DUP1 PUSH4 0xAC760D81 GT PUSH2 0xB6 JUMPI DUP1 PUSH4 0xDD75CD9B GT PUSH2 0x7A JUMPI DUP1 PUSH4 0xDD75CD9B EQ PUSH2 0x7B2 JUMPI DUP1 PUSH4 0xEE172546 EQ PUSH2 0x7D2 JUMPI DUP1 PUSH4 0xF2FDE38B EQ PUSH2 0x7E8 JUMPI DUP1 PUSH4 0xFA62375C EQ PUSH2 0x808 JUMPI DUP1 PUSH4 0xFD4DF69B EQ PUSH2 0x849 JUMPI DUP1 PUSH4 0xFDC3D8D7 EQ PUSH2 0x85F JUMPI PUSH1 0x0 DUP1 REVERT JUMPDEST DUP1 PUSH4 0xAC760D81 EQ PUSH2 0x6E6 JUMPI DUP1 PUSH4 0xBC5FE2D9 EQ PUSH2 0x706 JUMPI DUP1 PUSH4 0xCE8EF7A6 EQ PUSH2 0x726 JUMPI DUP1 PUSH4 0xD0B7830B EQ PUSH2 0x757 JUMPI DUP1 PUSH4 0xDD62ED3E EQ PUSH2 0x76C JUMPI PUSH1 0x0 DUP1 REVERT JUMPDEST DUP1 PUSH4 0x8D977672 GT PUSH2 0x108 JUMPI DUP1 PUSH4 0x8D977672 EQ PUSH2 0x5FC JUMPI DUP1 PUSH4 0x8DA5CB5B EQ PUSH2 0x632 JUMPI DUP1 PUSH4 0x95D57660 EQ PUSH2 0x664 JUMPI DUP1 PUSH4 0x95D89B41 EQ PUSH2 0x691 JUMPI DUP1 PUSH4 0xA9059CBB EQ PUSH2 0x6A6 JUMPI DUP1 PUSH4 0xAAE895C5 EQ PUSH2 0x6C6 JUMPI PUSH1 0x0 DUP1 REVERT JUMPDEST DUP1 PUSH4 0x66873A55 EQ PUSH2 0x551 JUMPI DUP1 PUSH4 0x70A08231 EQ PUSH2 0x571 JUMPI DUP1 PUSH4 0x715018A6 EQ PUSH2 0x5A7 JUMPI DUP1 PUSH4 0x80C8F4FA EQ PUSH2 0x5BC JUMPI DUP1 PUSH4 0x8C0DD79A EQ PUSH2 0x5DC JUMPI PUSH1 0x0 DUP1 REVERT JUMPDEST DUP1 PUSH4 0x313CE567 GT PUSH2 0x1DD JUMPI DUP1 PUSH4 0x4BDDD209 GT PUSH2 0x1A1 JUMPI DUP1 PUSH4 0x4BDDD209 EQ PUSH2 0x4B0 JUMPI DUP1 PUSH4 0x521523FF EQ PUSH2 0x4D0 JUMPI DUP1 PUSH4 0x5293EE81 EQ PUSH2 0x4E6 JUMPI DUP1 PUSH4 0x5573E3EF EQ PUSH2 0x506 JUMPI DUP1 PUSH4 0x560D52D4 EQ PUSH2 0x526 JUMPI DUP1 PUSH4 0x5E9DBE4F EQ PUSH2 0x53B JUMPI PUSH1 0x0 DUP1 REVERT JUMPDEST DUP1 PUSH4 0x313CE567 EQ PUSH2 0x407 JUMPI DUP1 PUSH4 0x3355BC4D EQ PUSH2 0x423 JUMPI DUP1 PUSH4 0x372500AB EQ PUSH2 0x450 JUMPI DUP1 PUSH4 0x420569DA EQ PUSH2 0x465 JUMPI DUP1 PUSH4 0x48EA0C03 EQ PUSH2 0x495 JUMPI PUSH1 0x0 DUP1 REVERT JUMPDEST DUP1 PUSH4 0x108AB45E GT PUSH2 0x22F JUMPI DUP1 PUSH4 0x108AB45E EQ PUSH2 0x337 JUMPI DUP1 PUSH4 0x136D8883 EQ PUSH2 0x34D JUMPI DUP1 PUSH4 0x18160DDD EQ PUSH2 0x385 JUMPI DUP1 PUSH4 0x1D65E77E EQ PUSH2 0x39A JUMPI DUP1 PUSH4 0x23B872DD EQ PUSH2 0x3C7 JUMPI DUP1 PUSH4 0x2BF70DEE EQ PUSH2 0x3E7 JUMPI PUSH1 0x0 DUP1 REVERT JUMPDEST DUP1 PUSH4 0x4FE2B34 EQ PUSH2 0x26C JUMPI DUP1 PUSH4 0x6FDDE03 EQ PUSH2 0x281 JUMPI DUP1 PUSH4 0x8A101B8 EQ PUSH2 0x2AC JUMPI DUP1 PUSH4 0x95EA7B3 EQ PUSH2 0x2E7 JUMPI DUP1 PUSH4 0x103027D2 EQ PUSH2 0x317 JUMPI JUMPDEST PUSH1 0x0 DUP1 REVERT JUMPDEST PUSH2 0x27F PUSH2 0x27A CALLDATASIZE PUSH1 0x4 PUSH2 0x2601 JUMP JUMPDEST PUSH2 0x875 JUMP JUMPDEST STOP JUMPDEST CALLVALUE DUP1 ISZERO PUSH2 0x28D JUMPI PUSH1 0x0 DUP1 REVERT JUMPDEST POP PUSH2 0x296 PUSH2 0xB33 JUMP JUMPDEST PUSH1 0x40 MLOAD PUSH2 0x2A3 SWAP2 SWAP1 PUSH2 0x2696 JUMP JUMPDEST PUSH1 0x40 MLOAD DUP1 SWAP2 SUB SWAP1 RETURN JUMPDEST CALLVALUE DUP1 ISZERO PUSH2 0x2B8 JUMPI PUSH1 0x0 DUP1 REVERT JUMPDEST POP PUSH2 0x2D9 PUSH2 0x2C7 CALLDATASIZE PUSH1 0x4 PUSH2 0x26CC JUMP JUMPDEST PUSH1 0xE PUSH1 0x20 MSTORE PUSH1 0x0 SWAP1 DUP2 MSTORE PUSH1 0x40 SWAP1 KECCAK256 SLOAD DUP2 JUMP JUMPDEST PUSH1 0x40 MLOAD SWAP1 DUP2 MSTORE PUSH1 0x20 ADD PUSH2 0x2A3 JUMP JUMPDEST CALLVALUE DUP1 ISZERO PUSH2 0x2F3 JUMPI PUSH1 0x0 DUP1 REVERT JUMPDEST POP PUSH2 0x307 PUSH2 0x302 CALLDATASIZE PUSH1 0x4 PUSH2 0x26E7 JUMP JUMPDEST PUSH2 0xBC5 JUMP JUMPDEST PUSH1 0x40 MLOAD SWAP1 ISZERO ISZERO DUP2 MSTORE PUSH1 0x20 ADD PUSH2 0x2A3 JUMP JUMPDEST CALLVALUE DUP1 ISZERO PUSH2 0x323 JUMPI PUSH1 0x0 DUP1 REVERT JUMPDEST POP PUSH2 0x27F PUSH2 0x332 CALLDATASIZE PUSH1 0x4 PUSH2 0x2711 JUMP JUMPDEST PUSH2 0xBDF JUMP JUMPDEST CALLVALUE DUP1 ISZERO PUSH2 0x343 JUMPI PUSH1 0x0 DUP1 REVERT JUMPDEST POP PUSH2 0x2D9 PUSH1 0x11 SLOAD DUP2 JUMP JUMPDEST CALLVALUE DUP1 ISZERO PUSH2 0x359 JUMPI PUSH1 0x0 DUP1 REVERT JUMPDEST POP PUSH1 0x10 SLOAD PUSH1 0x11 SLOAD PUSH1 0x12 SLOAD PUSH1 0x0 PUSH1 0x40 DUP1 MLOAD SWAP5 DUP6 MSTORE PUSH1 0x20 DUP6 ADD SWAP4 SWAP1 SWAP4 MSTORE SWAP2 DUP4 ADD MSTORE PUSH1 0x60 DUP3 ADD MSTORE PUSH1 0x80 ADD PUSH2 0x2A3 JUMP JUMPDEST CALLVALUE DUP1 ISZERO PUSH2 0x391 JUMPI PUSH1 0x0 DUP1 REVERT JUMPDEST POP PUSH1 0x2 SLOAD PUSH2 0x2D9 JUMP JUMPDEST CALLVALUE DUP1 ISZERO PUSH2 0x3A6 JUMPI PUSH1 0x0 DUP1 REVERT JUMPDEST POP PUSH2 0x3BA PUSH2 0x3B5 CALLDATASIZE PUSH1 0x4 PUSH2 0x2711 JUMP JUMPDEST PUSH2 0xDB9 JUMP JUMPDEST PUSH1 0x40 MLOAD PUSH2 0x2A3 SWAP2 SWAP1 PUSH2 0x2762 JUMP JUMPDEST CALLVALUE DUP1 ISZERO PUSH2 0x3D3 JUMPI PUSH1 0x0 DUP1 REVERT JUMPDEST POP PUSH2 0x307 PUSH2 0x3E2 CALLDATASIZE PUSH1 0x4 PUSH2 0x2820 JUMP JUMPDEST PUSH2 0x100E JUMP JUMPDEST CALLVALUE DUP1 ISZERO PUSH2 0x3F3 JUMPI PUSH1 0x0 DUP1 REVERT JUMPDEST POP PUSH2 0x2D9 PUSH2 0x402 CALLDATASIZE PUSH1 0x4 PUSH2 0x26E7 JUMP JUMPDEST PUSH2 0x1032 JUMP JUMPDEST CALLVALUE DUP1 ISZERO PUSH2 0x413 JUMPI PUSH1 0x0 DUP1 REVERT JUMPDEST POP PUSH1 0x40 MLOAD PUSH1 0x12 DUP2 MSTORE PUSH1 0x20 ADD PUSH2 0x2A3 JUMP JUMPDEST CALLVALUE DUP1 ISZERO PUSH2 0x42F JUMPI PUSH1 0x0 DUP1 REVERT JUMPDEST POP PUSH2 0x2D9 PUSH2 0x43E CALLDATASIZE PUSH1 0x4 PUSH2 0x26CC JUMP JUMPDEST PUSH1 0xA PUSH1 0x20 MSTORE PUSH1 0x0 SWAP1 DUP2 MSTORE PUSH1 0x40 SWAP1 KECCAK256 SLOAD DUP2 JUMP JUMPDEST CALLVALUE DUP1 ISZERO PUSH2 0x45C JUMPI PUSH1 0x0 DUP1 REVERT JUMPDEST POP PUSH2 0x27F PUSH2 0x1063 JUMP JUMPDEST CALLVALUE DUP1 ISZERO PUSH2 0x471 JUMPI PUSH1 0x0 DUP1 REVERT JUMPDEST POP PUSH2 0x307 PUSH2 0x480 CALLDATASIZE PUSH1 0x4 PUSH2 0x26CC JUMP JUMPDEST PUSH1 0xD PUSH1 0x20 MSTORE PUSH1 0x0 SWAP1 DUP2 MSTORE PUSH1 0x40 SWAP1 KECCAK256 SLOAD PUSH1 0xFF AND DUP2 JUMP JUMPDEST CALLVALUE DUP1 ISZERO PUSH2 0x4A1 JUMPI PUSH1 0x0 DUP1 REVERT JUMPDEST POP PUSH2 0x2D9 PUSH7 0x38D7EA4C68000 DUP2 JUMP JUMPDEST CALLVALUE DUP1 ISZERO PUSH2 0x4BC JUMPI PUSH1 0x0 DUP1 REVERT JUMPDEST POP PUSH2 0x27F PUSH2 0x4CB CALLDATASIZE PUSH1 0x4 PUSH2 0x285C JUMP JUMPDEST PUSH2 0x11B4 JUMP JUMPDEST CALLVALUE DUP1 ISZERO PUSH2 0x4DC JUMPI PUSH1 0x0 DUP1 REVERT JUMPDEST POP PUSH2 0x2D9 PUSH2 0x258 DUP2 JUMP JUMPDEST CALLVALUE DUP1 ISZERO PUSH2 0x4F2 JUMPI PUSH1 0x0 DUP1 REVERT JUMPDEST POP PUSH2 0x27F PUSH2 0x501 CALLDATASIZE PUSH1 0x4 PUSH2 0x28A3 JUMP JUMPDEST PUSH2 0x1369 JUMP JUMPDEST CALLVALUE DUP1 ISZERO PUSH2 0x512 JUMPI PUSH1 0x0 DUP1 REVERT JUMPDEST POP PUSH2 0x27F PUSH2 0x521 CALLDATASIZE PUSH1 0x4 PUSH2 0x2711 JUMP JUMPDEST PUSH2 0x1536 JUMP JUMPDEST CALLVALUE DUP1 ISZERO PUSH2 0x532 JUMPI PUSH1 0x0 DUP1 REVERT JUMPDEST POP PUSH2 0x2D9 PUSH1 0x5 DUP2 JUMP JUMPDEST CALLVALUE DUP1 ISZERO PUSH2 0x547 JUMPI PUSH1 0x0 DUP1 REVERT JUMPDEST POP PUSH2 0x2D9 PUSH2 0xE10 DUP2 JUMP JUMPDEST CALLVALUE DUP1 ISZERO PUSH2 0x55D JUMPI PUSH1 0x0 DUP1 REVERT JUMPDEST POP PUSH2 0x2D9 PUSH2 0x56C CALLDATASIZE PUSH1 0x4 PUSH2 0x26E7 JUMP JUMPDEST PUSH2 0x15F1 JUMP JUMPDEST CALLVALUE DUP1 ISZERO PUSH2 0x57D JUMPI PUSH1 0x0 DUP1 REVERT JUMPDEST POP PUSH2 0x2D9 PUSH2 0x58C CALLDATASIZE PUSH1 0x4 PUSH2 0x26CC JUMP JUMPDEST PUSH1 0x1 PUSH1 0x1 PUSH1 0xA0 SHL SUB AND PUSH1 0x0 SWAP1 DUP2 MSTORE PUSH1 0x20 DUP2 SWAP1 MSTORE PUSH1 0x40 SWAP1 KECCAK256 SLOAD SWAP1 JUMP JUMPDEST CALLVALUE DUP1 ISZERO PUSH2 0x5B3 JUMPI PUSH1 0x0 DUP1 REVERT JUMPDEST POP PUSH2 0x27F PUSH2 0x160D JUMP JUMPDEST CALLVALUE DUP1 ISZERO PUSH2 0x5C8 JUMPI PUSH1 0x0 DUP1 REVERT JUMPDEST POP PUSH2 0x27F PUSH2 0x5D7 CALLDATASIZE PUSH1 0x4 PUSH2 0x28CF JUMP JUMPDEST PUSH2 0x161F JUMP JUMPDEST CALLVALUE DUP1 ISZERO PUSH2 0x5E8 JUMPI PUSH1 0x0 DUP1 REVERT JUMPDEST POP PUSH2 0x27F PUSH2 0x5F7 CALLDATASIZE PUSH1 0x4 PUSH2 0x285C JUMP JUMPDEST PUSH2 0x17EA JUMP JUMPDEST CALLVALUE DUP1 ISZERO PUSH2 0x608 JUMPI PUSH1 0x0 DUP1 REVERT JUMPDEST POP PUSH2 0x61C PUSH2 0x617 CALLDATASIZE PUSH1 0x4 PUSH2 0x2711 JUMP JUMPDEST PUSH2 0x19B2 JUMP JUMPDEST PUSH1 0x40 MLOAD PUSH2 0x2A3 SWAP11 SWAP10 SWAP9 SWAP8 SWAP7 SWAP6 SWAP5 SWAP4 SWAP3 SWAP2 SWAP1 PUSH2 0x290C JUMP JUMPDEST CALLVALUE DUP1 ISZERO PUSH2 0x63E JUMPI PUSH1 0x0 DUP1 REVERT JUMPDEST POP PUSH1 0x5 SLOAD PUSH1 0x1 PUSH1 0x1 PUSH1 0xA0 SHL SUB AND JUMPDEST PUSH1 0x40 MLOAD PUSH1 0x1 PUSH1 0x1 PUSH1 0xA0 SHL SUB SWAP1 SWAP2 AND DUP2 MSTORE PUSH1 0x20 ADD PUSH2 0x2A3 JUMP JUMPDEST CALLVALUE DUP1 ISZERO PUSH2 0x670 JUMPI PUSH1 0x0 DUP1 REVERT JUMPDEST POP PUSH2 0x684 PUSH2 0x67F CALLDATASIZE PUSH1 0x4 PUSH2 0x26CC JUMP JUMPDEST PUSH2 0x1B26 JUMP JUMPDEST PUSH1 0x40 MLOAD PUSH2 0x2A3 SWAP2 SWAP1 PUSH2 0x2988 JUMP JUMPDEST CALLVALUE DUP1 ISZERO PUSH2 0x69D JUMPI PUSH1 0x0 DUP1 REVERT JUMPDEST POP PUSH2 0x296 PUSH2 0x1B92 JUMP JUMPDEST CALLVALUE DUP1 ISZERO PUSH2 0x6B2 JUMPI PUSH1 0x0 DUP1 REVERT JUMPDEST POP PUSH2 0x307 PUSH2 0x6C1 CALLDATASIZE PUSH1 0x4 PUSH2 0x26E7 JUMP JUMPDEST PUSH2 0x1BA1 JUMP JUMPDEST CALLVALUE DUP1 ISZERO PUSH2 0x6D2 JUMPI PUSH1 0x0 DUP1 REVERT JUMPDEST POP PUSH2 0x684 PUSH2 0x6E1 CALLDATASIZE PUSH1 0x4 PUSH2 0x26CC JUMP JUMPDEST PUSH2 0x1BAF JUMP JUMPDEST CALLVALUE DUP1 ISZERO PUSH2 0x6F2 JUMPI PUSH1 0x0 DUP1 REVERT JUMPDEST POP PUSH2 0x684 PUSH2 0x701 CALLDATASIZE PUSH1 0x4 PUSH2 0x2711 JUMP JUMPDEST PUSH2 0x1C19 JUMP JUMPDEST CALLVALUE DUP1 ISZERO PUSH2 0x712 JUMPI PUSH1 0x0 DUP1 REVERT JUMPDEST POP PUSH2 0x296 PUSH2 0x721 CALLDATASIZE PUSH1 0x4 PUSH2 0x26CC JUMP JUMPDEST PUSH2 0x1DA7 JUMP JUMPDEST CALLVALUE DUP1 ISZERO PUSH2 0x732 JUMPI PUSH1 0x0 DUP1 REVERT JUMPDEST POP PUSH2 0x746 PUSH2 0x741 CALLDATASIZE PUSH1 0x4 PUSH2 0x26CC JUMP JUMPDEST PUSH2 0x1E41 JUMP JUMPDEST PUSH1 0x40 MLOAD PUSH2 0x2A3 SWAP6 SWAP5 SWAP4 SWAP3 SWAP2 SWAP1 PUSH2 0x29CC JUMP JUMPDEST CALLVALUE DUP1 ISZERO PUSH2 0x763 JUMPI PUSH1 0x0 DUP1 REVERT JUMPDEST POP PUSH2 0x27F PUSH2 0x1F30 JUMP JUMPDEST CALLVALUE DUP1 ISZERO PUSH2 0x778 JUMPI PUSH1 0x0 DUP1 REVERT JUMPDEST POP PUSH2 0x2D9 PUSH2 0x787 CALLDATASIZE PUSH1 0x4 PUSH2 0x2A04 JUMP JUMPDEST PUSH1 0x1 PUSH1 0x1 PUSH1 0xA0 SHL SUB SWAP2 DUP3 AND PUSH1 0x0 SWAP1 DUP2 MSTORE PUSH1 0x1 PUSH1 0x20 SWAP1 DUP2 MSTORE PUSH1 0x40 DUP1 DUP4 KECCAK256 SWAP4 SWAP1 SWAP5 AND DUP3 MSTORE SWAP2 SWAP1 SWAP2 MSTORE KECCAK256 SLOAD SWAP1 JUMP JUMPDEST CALLVALUE DUP1 ISZERO PUSH2 0x7BE JUMPI PUSH1 0x0 DUP1 REVERT JUMPDEST POP PUSH2 0x27F PUSH2 0x7CD CALLDATASIZE PUSH1 0x4 PUSH2 0x2711 JUMP JUMPDEST PUSH2 0x2038 JUMP JUMPDEST CALLVALUE DUP1 ISZERO PUSH2 0x7DE JUMPI PUSH1 0x0 DUP1 REVERT JUMPDEST POP PUSH2 0x2D9 PUSH1 0x12 SLOAD DUP2 JUMP JUMPDEST CALLVALUE DUP1 ISZERO PUSH2 0x7F4 JUMPI PUSH1 0x0 DUP1 REVERT JUMPDEST POP PUSH2 0x27F PUSH2 0x803 CALLDATASIZE PUSH1 0x4 PUSH2 0x26CC JUMP JUMPDEST PUSH2 0x218B JUMP JUMPDEST CALLVALUE DUP1 ISZERO PUSH2 0x814 JUMPI PUSH1 0x0 DUP1 REVERT JUMPDEST POP PUSH2 0x64C PUSH2 0x823 CALLDATASIZE PUSH1 0x4 PUSH2 0x28CF JUMP JUMPDEST DUP1 MLOAD PUSH1 0x20 DUP2 DUP4 ADD DUP2 ADD DUP1 MLOAD PUSH1 0xC DUP3 MSTORE SWAP3 DUP3 ADD SWAP2 SWAP1 SWAP4 ADD KECCAK256 SWAP2 MSTORE SLOAD PUSH1 0x1 PUSH1 0x1 PUSH1 0xA0 SHL SUB AND DUP2 JUMP JUMPDEST CALLVALUE DUP1 ISZERO PUSH2 0x855 JUMPI PUSH1 0x0 DUP1 REVERT JUMPDEST POP PUSH2 0x2D9 PUSH1 0x10 SLOAD DUP2 JUMP JUMPDEST CALLVALUE DUP1 ISZERO PUSH2 0x86B JUMPI PUSH1 0x0 DUP1 REVERT JUMPDEST POP PUSH2 0x2D9 PUSH1 0xF SLOAD DUP2 JUMP JUMPDEST PUSH2 0x87D PUSH2 0x21C6 JUMP JUMPDEST PUSH7 0x38D7EA4C68000 CALLVALUE LT ISZERO PUSH2 0x8CA JUMPI PUSH1 0x40 MLOAD PUSH3 0x461BCD PUSH1 0xE5 SHL DUP2 MSTORE PUSH1 0x20 PUSH1 0x4 DUP3 ADD MSTORE PUSH1 0xE PUSH1 0x24 DUP3 ADD MSTORE PUSH14 0x52657761726420746F6F206C6F77 PUSH1 0x90 SHL PUSH1 0x44 DUP3 ADD MSTORE PUSH1 0x64 ADD JUMPDEST PUSH1 0x40 MLOAD DUP1 SWAP2 SUB SWAP1 REVERT JUMPDEST TIMESTAMP DUP2 GT PUSH2 0x90C JUMPI PUSH1 0x40 MLOAD PUSH3 0x461BCD PUSH1 0xE5 SHL DUP2 MSTORE PUSH1 0x20 PUSH1 0x4 DUP3 ADD MSTORE PUSH1 0x10 PUSH1 0x24 DUP3 ADD MSTORE PUSH16 0x496E76616C696420646561646C696E65 PUSH1 0x80 SHL PUSH1 0x44 DUP3 ADD MSTORE PUSH1 0x64 ADD PUSH2 0x8C1 JUMP JUMPDEST PUSH1 0x0 DUP3 MLOAD GT PUSH2 0x951 JUMPI PUSH1 0x40 MLOAD PUSH3 0x461BCD PUSH1 0xE5 SHL DUP2 MSTORE PUSH1 0x20 PUSH1 0x4 DUP3 ADD MSTORE PUSH1 0x11 PUSH1 0x24 DUP3 ADD MSTORE PUSH17 0x92DCECC2D8D2C840E8C2E6D640D0C2E6D PUSH1 0x7B SHL PUSH1 0x44 DUP3 ADD MSTORE PUSH1 0x64 ADD PUSH2 0x8C1 JUMP JUMPDEST PUSH1 0xF DUP1 SLOAD PUSH1 0x0 SWAP2 DUP3 PUSH2 0x962 DUP4 PUSH2 0x2A44 JUMP JUMPDEST SWAP1 SWAP2 SSTORE POP SWAP1 POP PUSH1 0x0 PUSH1 0x64 PUSH2 0x977 PUSH1 0x5 CALLVALUE PUSH2 0x2A5D JUMP JUMPDEST PUSH2 0x981 SWAP2 SWAP1 PUSH2 0x2A74 JUMP JUMPDEST SWAP1 POP PUSH1 0x0 PUSH2 0x98F DUP3 CALLVALUE PUSH2 0x2A96 JUMP JUMPDEST PUSH1 0x40 DUP1 MLOAD PUSH2 0x140 DUP2 ADD DUP3 MSTORE DUP6 DUP2 MSTORE CALLER PUSH1 0x20 DUP1 DUP4 ADD SWAP2 DUP3 MSTORE PUSH1 0x0 DUP4 DUP6 ADD DUP2 DUP2 MSTORE PUSH1 0x60 DUP6 ADD DUP13 DUP2 MSTORE PUSH1 0x80 DUP7 ADD DUP9 SWAP1 MSTORE PUSH1 0xA0 DUP7 ADD DUP13 SWAP1 MSTORE PUSH1 0xC0 DUP7 ADD DUP4 SWAP1 MSTORE DUP7 MLOAD DUP1 DUP6 ADD DUP9 MSTORE DUP4 DUP2 MSTORE PUSH1 0xE0 DUP8 ADD MSTORE TIMESTAMP PUSH2 0x100 DUP8 ADD MSTORE PUSH2 0x120 DUP7 ADD DUP4 SWAP1 MSTORE DUP11 DUP4 MSTORE PUSH1 0x7 SWAP1 SWAP4 MSTORE SWAP5 SWAP1 KECCAK256 DUP4 MLOAD DUP2 SSTORE SWAP2 MLOAD PUSH1 0x1 DUP4 ADD DUP1 SLOAD PUSH1 0x1 PUSH1 0x1 PUSH1 0xA0 SHL SUB NOT SWAP1 DUP2 AND PUSH1 0x1 PUSH1 0x1 PUSH1 0xA0 SHL SUB SWAP4 DUP5 AND OR SWAP1 SWAP2 SSTORE SWAP5 MLOAD PUSH1 0x2 DUP5 ADD DUP1 SLOAD SWAP1 SWAP7 AND SWAP2 AND OR SWAP1 SWAP4 SSTORE SWAP2 MLOAD SWAP3 SWAP4 POP SWAP2 PUSH1 0x3 DUP3 ADD SWAP1 PUSH2 0xA40 SWAP1 DUP3 PUSH2 0x2B31 JUMP JUMPDEST POP PUSH1 0x80 DUP3 ADD MLOAD DUP2 PUSH1 0x4 ADD SSTORE PUSH1 0xA0 DUP3 ADD MLOAD DUP2 PUSH1 0x5 ADD SSTORE PUSH1 0xC0 DUP3 ADD MLOAD DUP2 PUSH1 0x6 ADD PUSH1 0x0 PUSH2 0x100 EXP DUP2 SLOAD DUP2 PUSH1 0xFF MUL NOT AND SWAP1 DUP4 PUSH1 0x5 DUP2 GT ISZERO PUSH2 0xA7F JUMPI PUSH2 0xA7F PUSH2 0x272A JUMP JUMPDEST MUL OR SWAP1 SSTORE POP PUSH1 0xE0 DUP3 ADD MLOAD PUSH1 0x7 DUP3 ADD SWAP1 PUSH2 0xA98 SWAP1 DUP3 PUSH2 0x2B31 JUMP JUMPDEST POP PUSH2 0x100 DUP3 ADD MLOAD PUSH1 0x8 DUP1 DUP4 ADD SWAP2 SWAP1 SWAP2 SSTORE PUSH2 0x120 SWAP1 SWAP3 ADD MLOAD PUSH1 0x9 SWAP1 SWAP2 ADD SSTORE CALLER PUSH1 0x0 SWAP1 DUP2 MSTORE PUSH1 0x20 SWAP2 DUP3 MSTORE PUSH1 0x40 DUP2 KECCAK256 DUP1 SLOAD PUSH1 0x1 DUP2 ADD DUP3 SSTORE SWAP1 DUP3 MSTORE SWAP2 DUP2 KECCAK256 SWAP1 SWAP2 ADD DUP5 SWAP1 SSTORE PUSH1 0x10 DUP1 SLOAD SWAP2 PUSH2 0xAE6 DUP4 PUSH2 0x2A44 JUMP JUMPDEST SWAP1 SWAP2 SSTORE POP POP PUSH1 0x40 MLOAD DUP2 DUP2 MSTORE CALLER SWAP1 DUP5 SWAP1 PUSH32 0x6CF53AA7292E664152C2EA948C3B3C95D4B05C36DAEB2626D0293473C4A4A153 SWAP1 PUSH1 0x20 ADD PUSH1 0x40 MLOAD DUP1 SWAP2 SUB SWAP1 LOG3 POP POP POP PUSH2 0xB2F PUSH1 0x1 PUSH1 0x6 SSTORE JUMP JUMPDEST POP POP JUMP JUMPDEST PUSH1 0x60 PUSH1 0x3 DUP1 SLOAD PUSH2 0xB42 SWAP1 PUSH2 0x2AA9 JUMP JUMPDEST DUP1 PUSH1 0x1F ADD PUSH1 0x20 DUP1 SWAP2 DIV MUL PUSH1 0x20 ADD PUSH1 0x40 MLOAD SWAP1 DUP2 ADD PUSH1 0x40 MSTORE DUP1 SWAP3 SWAP2 SWAP1 DUP2 DUP2 MSTORE PUSH1 0x20 ADD DUP3 DUP1 SLOAD PUSH2 0xB6E SWAP1 PUSH2 0x2AA9 JUMP JUMPDEST DUP1 ISZERO PUSH2 0xBBB JUMPI DUP1 PUSH1 0x1F LT PUSH2 0xB90 JUMPI PUSH2 0x100 DUP1 DUP4 SLOAD DIV MUL DUP4 MSTORE SWAP2 PUSH1 0x20 ADD SWAP2 PUSH2 0xBBB JUMP JUMPDEST DUP3 ADD SWAP2 SWAP1 PUSH1 0x0 MSTORE PUSH1 0x20 PUSH1 0x0 KECCAK256 SWAP1 JUMPDEST DUP2 SLOAD DUP2 MSTORE SWAP1 PUSH1 0x1 ADD SWAP1 PUSH1 0x20 ADD DUP1 DUP4 GT PUSH2 0xB9E JUMPI DUP3 SWAP1 SUB PUSH1 0x1F AND DUP3 ADD SWAP2 JUMPDEST POP POP POP POP POP SWAP1 POP SWAP1 JUMP JUMPDEST PUSH1 0x0 CALLER PUSH2 0xBD3 DUP2 DUP6 DUP6 PUSH2 0x21F0 JUMP JUMPDEST PUSH1 0x1 SWAP2 POP POP JUMPDEST SWAP3 SWAP2 POP POP JUMP JUMPDEST PUSH2 0xBE7 PUSH2 0x21C6 JUMP JUMPDEST PUSH1 0x0 DUP2 DUP2 MSTORE PUSH1 0x7 PUSH1 0x20 MSTORE PUSH1 0x40 DUP2 KECCAK256 DUP1 SLOAD SWAP1 SWAP2 SUB PUSH2 0xC16 JUMPI PUSH1 0x40 MLOAD PUSH3 0x461BCD PUSH1 0xE5 SHL DUP2 MSTORE PUSH1 0x4 ADD PUSH2 0x8C1 SWAP1 PUSH2 0x2BF1 JUMP JUMPDEST PUSH1 0x2 PUSH1 0x6 DUP3 ADD SLOAD PUSH1 0xFF AND PUSH1 0x5 DUP2 GT ISZERO PUSH2 0xC31 JUMPI PUSH2 0xC31 PUSH2 0x272A JUMP JUMPDEST EQ PUSH2 0xC4E JUMPI PUSH1 0x40 MLOAD PUSH3 0x461BCD PUSH1 0xE5 SHL DUP2 MSTORE PUSH1 0x4 ADD PUSH2 0x8C1 SWAP1 PUSH2 0x2C1E JUMP JUMPDEST PUSH2 0x258 DUP2 PUSH1 0x9 ADD SLOAD PUSH2 0xC60 SWAP2 SWAP1 PUSH2 0x2C4A JUMP JUMPDEST TIMESTAMP GT PUSH2 0xCAE JUMPI PUSH1 0x40 MLOAD PUSH3 0x461BCD PUSH1 0xE5 SHL DUP2 MSTORE PUSH1 0x20 PUSH1 0x4 DUP3 ADD MSTORE PUSH1 0x1F PUSH1 0x24 DUP3 ADD MSTORE PUSH32 0x566572696669636174696F6E20706572696F64206E6F74206578706972656400 PUSH1 0x44 DUP3 ADD MSTORE PUSH1 0x64 ADD PUSH2 0x8C1 JUMP JUMPDEST PUSH1 0x6 DUP2 ADD DUP1 SLOAD PUSH1 0xFF NOT AND PUSH1 0x3 OR SWAP1 SSTORE PUSH1 0x4 DUP2 ADD SLOAD PUSH1 0x2 DUP3 ADD SLOAD PUSH1 0x1 PUSH1 0x1 PUSH1 0xA0 SHL SUB AND PUSH1 0x0 SWAP1 DUP2 MSTORE PUSH1 0xA PUSH1 0x20 MSTORE PUSH1 0x40 DUP2 KECCAK256 DUP1 SLOAD SWAP1 SWAP2 SWAP1 PUSH2 0xCEE SWAP1 DUP5 SWAP1 PUSH2 0x2C4A JUMP JUMPDEST SWAP1 SWAP2 SSTORE POP POP PUSH1 0x11 DUP1 SLOAD SWAP1 PUSH1 0x0 PUSH2 0xD03 DUP4 PUSH2 0x2A44 JUMP JUMPDEST SWAP1 SWAP2 SSTORE POP POP PUSH1 0x2 DUP2 ADD SLOAD PUSH1 0x1 PUSH1 0x1 PUSH1 0xA0 SHL SUB AND PUSH1 0x0 SWAP1 DUP2 MSTORE PUSH1 0xE PUSH1 0x20 MSTORE PUSH1 0x40 SWAP1 KECCAK256 SLOAD PUSH1 0x64 GT ISZERO PUSH2 0xD60 JUMPI PUSH1 0x2 DUP2 ADD SLOAD PUSH1 0x1 PUSH1 0x1 PUSH1 0xA0 SHL SUB AND PUSH1 0x0 SWAP1 DUP2 MSTORE PUSH1 0xE PUSH1 0x20 MSTORE PUSH1 0x40 DUP2 KECCAK256 DUP1 SLOAD PUSH1 0x1 SWAP3 SWAP1 PUSH2 0xD5A SWAP1 DUP5 SWAP1 PUSH2 0x2C4A JUMP JUMPDEST SWAP1 SWAP2 SSTORE POP POP JUMPDEST PUSH1 0x2 DUP2 ADD SLOAD PUSH1 0x4 DUP3 ADD SLOAD PUSH1 0x40 MLOAD SWAP1 DUP2 MSTORE PUSH1 0x1 PUSH1 0x1 PUSH1 0xA0 SHL SUB SWAP1 SWAP2 AND SWAP1 DUP4 SWAP1 PUSH32 0x477D9DBAD436F899729571BD347CA39A0D163BBC0870482CE5E298E4145D4251 SWAP1 PUSH1 0x20 ADD PUSH1 0x40 MLOAD DUP1 SWAP2 SUB SWAP1 LOG3 POP PUSH2 0xDB6 PUSH1 0x1 PUSH1 0x6 SSTORE JUMP JUMPDEST POP JUMP JUMPDEST PUSH2 0xE0E PUSH1 0x40 DUP1 MLOAD PUSH2 0x140 DUP2 ADD DUP3 MSTORE PUSH1 0x0 DUP1 DUP3 MSTORE PUSH1 0x20 DUP3 ADD DUP2 SWAP1 MSTORE SWAP2 DUP2 ADD DUP3 SWAP1 MSTORE PUSH1 0x60 DUP1 DUP3 ADD MSTORE PUSH1 0x80 DUP2 ADD DUP3 SWAP1 MSTORE PUSH1 0xA0 DUP2 ADD DUP3 SWAP1 MSTORE SWAP1 PUSH1 0xC0 DUP3 ADD SWAP1 DUP2 MSTORE PUSH1 0x20 ADD PUSH1 0x60 DUP2 MSTORE PUSH1 0x20 ADD PUSH1 0x0 DUP2 MSTORE PUSH1 0x20 ADD PUSH1 0x0 DUP2 MSTORE POP SWAP1 JUMP JUMPDEST PUSH1 0x0 DUP3 DUP2 MSTORE PUSH1 0x7 PUSH1 0x20 MSTORE PUSH1 0x40 DUP2 KECCAK256 SLOAD SWAP1 SUB PUSH2 0xE3B JUMPI PUSH1 0x40 MLOAD PUSH3 0x461BCD PUSH1 0xE5 SHL DUP2 MSTORE PUSH1 0x4 ADD PUSH2 0x8C1 SWAP1 PUSH2 0x2BF1 JUMP JUMPDEST PUSH1 0x0 DUP3 DUP2 MSTORE PUSH1 0x7 PUSH1 0x20 SWAP1 DUP2 MSTORE PUSH1 0x40 SWAP2 DUP3 SWAP1 KECCAK256 DUP3 MLOAD PUSH2 0x140 DUP2 ADD DUP5 MSTORE DUP2 SLOAD DUP2 MSTORE PUSH1 0x1 DUP3 ADD SLOAD PUSH1 0x1 PUSH1 0x1 PUSH1 0xA0 SHL SUB SWAP1 DUP2 AND SWAP4 DUP3 ADD SWAP4 SWAP1 SWAP4 MSTORE PUSH1 0x2 DUP3 ADD SLOAD SWAP1 SWAP3 AND SWAP3 DUP3 ADD SWAP3 SWAP1 SWAP3 MSTORE PUSH1 0x3 DUP3 ADD DUP1 SLOAD SWAP2 SWAP3 SWAP2 PUSH1 0x60 DUP5 ADD SWAP2 SWAP1 PUSH2 0xE98 SWAP1 PUSH2 0x2AA9 JUMP JUMPDEST DUP1 PUSH1 0x1F ADD PUSH1 0x20 DUP1 SWAP2 DIV MUL PUSH1 0x20 ADD PUSH1 0x40 MLOAD SWAP1 DUP2 ADD PUSH1 0x40 MSTORE DUP1 SWAP3 SWAP2 SWAP1 DUP2 DUP2 MSTORE PUSH1 0x20 ADD DUP3 DUP1 SLOAD PUSH2 0xEC4 SWAP1 PUSH2 0x2AA9 JUMP JUMPDEST DUP1 ISZERO PUSH2 0xF11 JUMPI DUP1 PUSH1 0x1F LT PUSH2 0xEE6 JUMPI PUSH2 0x100 DUP1 DUP4 SLOAD DIV MUL DUP4 MSTORE SWAP2 PUSH1 0x20 ADD SWAP2 PUSH2 0xF11 JUMP JUMPDEST DUP3 ADD SWAP2 SWAP1 PUSH1 0x0 MSTORE PUSH1 0x20 PUSH1 0x0 KECCAK256 SWAP1 JUMPDEST DUP2 SLOAD DUP2 MSTORE SWAP1 PUSH1 0x1 ADD SWAP1 PUSH1 0x20 ADD DUP1 DUP4 GT PUSH2 0xEF4 JUMPI DUP3 SWAP1 SUB PUSH1 0x1F AND DUP3 ADD SWAP2 JUMPDEST POP POP POP SWAP2 DUP4 MSTORE POP POP PUSH1 0x4 DUP3 ADD SLOAD PUSH1 0x20 DUP3 ADD MSTORE PUSH1 0x5 DUP1 DUP4 ADD SLOAD PUSH1 0x40 DUP4 ADD MSTORE PUSH1 0x6 DUP4 ADD SLOAD PUSH1 0x60 SWAP1 SWAP3 ADD SWAP2 PUSH1 0xFF AND SWAP1 DUP2 GT ISZERO PUSH2 0xF4C JUMPI PUSH2 0xF4C PUSH2 0x272A JUMP JUMPDEST PUSH1 0x5 DUP2 GT ISZERO PUSH2 0xF5D JUMPI PUSH2 0xF5D PUSH2 0x272A JUMP JUMPDEST DUP2 MSTORE PUSH1 0x20 ADD PUSH1 0x7 DUP3 ADD DUP1 SLOAD PUSH2 0xF71 SWAP1 PUSH2 0x2AA9 JUMP JUMPDEST DUP1 PUSH1 0x1F ADD PUSH1 0x20 DUP1 SWAP2 DIV MUL PUSH1 0x20 ADD PUSH1 0x40 MLOAD SWAP1 DUP2 ADD PUSH1 0x40 MSTORE DUP1 SWAP3 SWAP2 SWAP1 DUP2 DUP2 MSTORE PUSH1 0x20 ADD DUP3 DUP1 SLOAD PUSH2 0xF9D SWAP1 PUSH2 0x2AA9 JUMP JUMPDEST DUP1 ISZERO PUSH2 0xFEA JUMPI DUP1 PUSH1 0x1F LT PUSH2 0xFBF JUMPI PUSH2 0x100 DUP1 DUP4 SLOAD DIV MUL DUP4 MSTORE SWAP2 PUSH1 0x20 ADD SWAP2 PUSH2 0xFEA JUMP JUMPDEST DUP3 ADD SWAP2 SWAP1 PUSH1 0x0 MSTORE PUSH1 0x20 PUSH1 0x0 KECCAK256 SWAP1 JUMPDEST DUP2 SLOAD DUP2 MSTORE SWAP1 PUSH1 0x1 ADD SWAP1 PUSH1 0x20 ADD DUP1 DUP4 GT PUSH2 0xFCD JUMPI DUP3 SWAP1 SUB PUSH1 0x1F AND DUP3 ADD SWAP2 JUMPDEST POP POP POP POP POP DUP2 MSTORE PUSH1 0x20 ADD PUSH1 0x8 DUP3 ADD SLOAD DUP2 MSTORE PUSH1 0x20 ADD PUSH1 0x9 DUP3 ADD SLOAD DUP2 MSTORE POP POP SWAP1 POP SWAP2 SWAP1 POP JUMP JUMPDEST PUSH1 0x0 CALLER PUSH2 0x101C DUP6 DUP3 DUP6 PUSH2 0x2202 JUMP JUMPDEST PUSH2 0x1027 DUP6 DUP6 DUP6 PUSH2 0x2281 JUMP JUMPDEST POP PUSH1 0x1 SWAP5 SWAP4 POP POP POP POP JUMP JUMPDEST PUSH1 0x9 PUSH1 0x20 MSTORE DUP2 PUSH1 0x0 MSTORE PUSH1 0x40 PUSH1 0x0 KECCAK256 DUP2 DUP2 SLOAD DUP2 LT PUSH2 0x104E JUMPI PUSH1 0x0 DUP1 REVERT JUMPDEST SWAP1 PUSH1 0x0 MSTORE PUSH1 0x20 PUSH1 0x0 KECCAK256 ADD PUSH1 0x0 SWAP2 POP SWAP2 POP POP SLOAD DUP2 JUMP JUMPDEST PUSH2 0x106B PUSH2 0x21C6 JUMP JUMPDEST CALLER PUSH1 0x0 SWAP1 DUP2 MSTORE PUSH1 0xA PUSH1 0x20 MSTORE PUSH1 0x40 SWAP1 KECCAK256 SLOAD DUP1 PUSH2 0x10BE JUMPI PUSH1 0x40 MLOAD PUSH3 0x461BCD PUSH1 0xE5 SHL DUP2 MSTORE PUSH1 0x20 PUSH1 0x4 DUP3 ADD MSTORE PUSH1 0x13 PUSH1 0x24 DUP3 ADD MSTORE PUSH19 0x4E6F207265776172647320746F20636C61696D PUSH1 0x68 SHL PUSH1 0x44 DUP3 ADD MSTORE PUSH1 0x64 ADD PUSH2 0x8C1 JUMP JUMPDEST CALLER PUSH1 0x0 SWAP1 DUP2 MSTORE PUSH1 0xA PUSH1 0x20 MSTORE PUSH1 0x40 DUP2 KECCAK256 DUP2 SWAP1 SSTORE PUSH1 0x12 DUP1 SLOAD DUP4 SWAP3 SWAP1 PUSH2 0x10E2 SWAP1 DUP5 SWAP1 PUSH2 0x2C4A JUMP JUMPDEST SWAP1 SWAP2 SSTORE POP POP PUSH1 0x40 MLOAD PUSH1 0x0 SWAP1 CALLER SWAP1 DUP4 SWAP1 DUP4 DUP2 DUP2 DUP2 DUP6 DUP8 GAS CALL SWAP3 POP POP POP RETURNDATASIZE DUP1 PUSH1 0x0 DUP2 EQ PUSH2 0x1129 JUMPI PUSH1 0x40 MLOAD SWAP2 POP PUSH1 0x1F NOT PUSH1 0x3F RETURNDATASIZE ADD AND DUP3 ADD PUSH1 0x40 MSTORE RETURNDATASIZE DUP3 MSTORE RETURNDATASIZE PUSH1 0x0 PUSH1 0x20 DUP5 ADD RETURNDATACOPY PUSH2 0x112E JUMP JUMPDEST PUSH1 0x60 SWAP2 POP JUMPDEST POP POP SWAP1 POP DUP1 PUSH2 0x1171 JUMPI PUSH1 0x40 MLOAD PUSH3 0x461BCD PUSH1 0xE5 SHL DUP2 MSTORE PUSH1 0x20 PUSH1 0x4 DUP3 ADD MSTORE PUSH1 0xF PUSH1 0x24 DUP3 ADD MSTORE PUSH15 0x151C985B9CD9995C8819985A5B1959 PUSH1 0x8A SHL PUSH1 0x44 DUP3 ADD MSTORE PUSH1 0x64 ADD PUSH2 0x8C1 JUMP JUMPDEST PUSH1 0x40 MLOAD DUP3 DUP2 MSTORE CALLER SWAP1 PUSH32 0x106F923F993C2149D49B4255FF723ACAFA1F2D94393F561D3EDA32AE348F7241 SWAP1 PUSH1 0x20 ADD PUSH1 0x40 MLOAD DUP1 SWAP2 SUB SWAP1 LOG2 POP POP PUSH2 0x11B2 PUSH1 0x1 PUSH1 0x6 SSTORE JUMP JUMPDEST JUMP JUMPDEST PUSH1 0x0 DUP3 DUP2 MSTORE PUSH1 0x7 PUSH1 0x20 MSTORE PUSH1 0x40 DUP2 KECCAK256 DUP1 SLOAD SWAP1 SWAP2 SUB PUSH2 0x11E3 JUMPI PUSH1 0x40 MLOAD PUSH3 0x461BCD PUSH1 0xE5 SHL DUP2 MSTORE PUSH1 0x4 ADD PUSH2 0x8C1 SWAP1 PUSH2 0x2BF1 JUMP JUMPDEST PUSH1 0x1 DUP2 ADD SLOAD PUSH1 0x1 PUSH1 0x1 PUSH1 0xA0 SHL SUB AND CALLER EQ PUSH2 0x122F JUMPI PUSH1 0x40 MLOAD PUSH3 0x461BCD PUSH1 0xE5 SHL DUP2 MSTORE PUSH1 0x20 PUSH1 0x4 DUP3 ADD MSTORE PUSH1 0xD PUSH1 0x24 DUP3 ADD MSTORE PUSH13 0x4E6F7420796F7572207461736B PUSH1 0x98 SHL PUSH1 0x44 DUP3 ADD MSTORE PUSH1 0x64 ADD PUSH2 0x8C1 JUMP JUMPDEST PUSH1 0x2 PUSH1 0x6 DUP3 ADD SLOAD PUSH1 0xFF AND PUSH1 0x5 DUP2 GT ISZERO PUSH2 0x124A JUMPI PUSH2 0x124A PUSH2 0x272A JUMP JUMPDEST EQ PUSH2 0x1267 JUMPI PUSH1 0x40 MLOAD PUSH3 0x461BCD PUSH1 0xE5 SHL DUP2 MSTORE PUSH1 0x4 ADD PUSH2 0x8C1 SWAP1 PUSH2 0x2C1E JUMP JUMPDEST PUSH2 0x258 DUP2 PUSH1 0x9 ADD SLOAD PUSH2 0x1279 SWAP2 SWAP1 PUSH2 0x2C4A JUMP JUMPDEST TIMESTAMP GT ISZERO PUSH2 0x12C8 JUMPI PUSH1 0x40 MLOAD PUSH3 0x461BCD PUSH1 0xE5 SHL DUP2 MSTORE PUSH1 0x20 PUSH1 0x4 DUP3 ADD MSTORE PUSH1 0x1B PUSH1 0x24 DUP3 ADD MSTORE PUSH32 0x566572696669636174696F6E20706572696F6420657870697265640000000000 PUSH1 0x44 DUP3 ADD MSTORE PUSH1 0x64 ADD PUSH2 0x8C1 JUMP JUMPDEST PUSH1 0x6 DUP2 ADD DUP1 SLOAD PUSH1 0xFF NOT AND PUSH1 0x4 OR SWAP1 SSTORE PUSH1 0x2 DUP2 ADD SLOAD PUSH1 0x1 PUSH1 0x1 PUSH1 0xA0 SHL SUB AND PUSH1 0x0 SWAP1 DUP2 MSTORE PUSH1 0xE PUSH1 0x20 MSTORE PUSH1 0x40 SWAP1 KECCAK256 SLOAD ISZERO PUSH2 0x132C JUMPI PUSH1 0x2 DUP2 ADD SLOAD PUSH1 0x1 PUSH1 0x1 PUSH1 0xA0 SHL SUB AND PUSH1 0x0 SWAP1 DUP2 MSTORE PUSH1 0xE PUSH1 0x20 MSTORE PUSH1 0x40 DUP2 KECCAK256 DUP1 SLOAD PUSH1 0x5 SWAP3 SWAP1 PUSH2 0x1326 SWAP1 DUP5 SWAP1 PUSH2 0x2A96 JUMP JUMPDEST SWAP1 SWAP2 SSTORE POP POP JUMPDEST DUP3 PUSH32 0x8824EA73FE0C710B8488BB1D0D50AB5B21B6019AA7EAEBAFBE0076E5F7AB945 DUP4 PUSH1 0x40 MLOAD PUSH2 0x135C SWAP2 SWAP1 PUSH2 0x2696 JUMP JUMPDEST PUSH1 0x40 MLOAD DUP1 SWAP2 SUB SWAP1 LOG2 POP POP POP JUMP JUMPDEST PUSH1 0x0 DUP3 DUP2 MSTORE PUSH1 0x7 PUSH1 0x20 MSTORE PUSH1 0x40 DUP2 KECCAK256 DUP1 SLOAD SWAP1 SWAP2 SUB PUSH2 0x1398 JUMPI PUSH1 0x40 MLOAD PUSH3 0x461BCD PUSH1 0xE5 SHL DUP2 MSTORE PUSH1 0x4 ADD PUSH2 0x8C1 SWAP1 PUSH2 0x2BF1 JUMP JUMPDEST PUSH1 0x0 PUSH1 0x6 DUP3 ADD SLOAD PUSH1 0xFF AND PUSH1 0x5 DUP2 GT ISZERO PUSH2 0x13B3 JUMPI PUSH2 0x13B3 PUSH2 0x272A JUMP JUMPDEST EQ PUSH2 0x13F5 JUMPI PUSH1 0x40 MLOAD PUSH3 0x461BCD PUSH1 0xE5 SHL DUP2 MSTORE PUSH1 0x20 PUSH1 0x4 DUP3 ADD MSTORE PUSH1 0x12 PUSH1 0x24 DUP3 ADD MSTORE PUSH18 0x5461736B206E6F7420617661696C61626C65 PUSH1 0x70 SHL PUSH1 0x44 DUP3 ADD MSTORE PUSH1 0x64 ADD PUSH2 0x8C1 JUMP JUMPDEST PUSH1 0x1 PUSH1 0x1 PUSH1 0xA0 SHL SUB DUP3 AND PUSH1 0x0 SWAP1 DUP2 MSTORE PUSH1 0xD PUSH1 0x20 MSTORE PUSH1 0x40 SWAP1 KECCAK256 SLOAD PUSH1 0xFF AND PUSH2 0x1455 JUMPI PUSH1 0x40 MLOAD PUSH3 0x461BCD PUSH1 0xE5 SHL DUP2 MSTORE PUSH1 0x20 PUSH1 0x4 DUP3 ADD MSTORE PUSH1 0x15 PUSH1 0x24 DUP3 ADD MSTORE PUSH21 0x15DBDC9AD95C881B9BDD081C9959DA5CDD195C9959 PUSH1 0x5A SHL PUSH1 0x44 DUP3 ADD MSTORE PUSH1 0x64 ADD PUSH2 0x8C1 JUMP JUMPDEST PUSH1 0x1 DUP2 ADD SLOAD PUSH1 0x1 PUSH1 0x1 PUSH1 0xA0 SHL SUB AND CALLER EQ DUP1 PUSH2 0x1478 JUMPI POP CALLER PUSH1 0x1 PUSH1 0x1 PUSH1 0xA0 SHL SUB DUP4 AND EQ JUMPDEST PUSH2 0x14B5 JUMPI PUSH1 0x40 MLOAD PUSH3 0x461BCD PUSH1 0xE5 SHL DUP2 MSTORE PUSH1 0x20 PUSH1 0x4 DUP3 ADD MSTORE PUSH1 0xE PUSH1 0x24 DUP3 ADD MSTORE PUSH14 0x139BDD08185D5D1A1BDC9A5E9959 PUSH1 0x92 SHL PUSH1 0x44 DUP3 ADD MSTORE PUSH1 0x64 ADD PUSH2 0x8C1 JUMP JUMPDEST PUSH1 0x2 DUP2 ADD DUP1 SLOAD PUSH1 0x1 PUSH1 0x1 PUSH1 0xA0 SHL SUB NOT AND PUSH1 0x1 PUSH1 0x1 PUSH1 0xA0 SHL SUB DUP5 AND SWAP1 DUP2 OR SWAP1 SWAP2 SSTORE PUSH1 0x6 DUP3 ADD DUP1 SLOAD PUSH1 0xFF NOT AND PUSH1 0x1 SWAP1 DUP2 OR SWAP1 SWAP2 SSTORE PUSH1 0x0 DUP3 DUP2 MSTORE PUSH1 0x9 PUSH1 0x20 SWAP1 DUP2 MSTORE PUSH1 0x40 DUP1 DUP4 KECCAK256 DUP1 SLOAD SWAP5 DUP6 ADD DUP2 SSTORE DUP4 MSTORE SWAP1 DUP3 KECCAK256 SWAP1 SWAP3 ADD DUP7 SWAP1 SSTORE SWAP1 MLOAD DUP6 SWAP2 PUSH32 0x52476D55ECEF5CF13CAA64038F297FE6BBF865D9584A98B8722A15A6D5DB128F SWAP2 LOG3 POP POP POP JUMP JUMPDEST PUSH2 0x153E PUSH2 0x21C6 JUMP JUMPDEST PUSH1 0x0 DUP2 DUP2 MSTORE PUSH1 0x7 PUSH1 0x20 MSTORE PUSH1 0x40 DUP2 KECCAK256 DUP1 SLOAD SWAP1 SWAP2 SUB PUSH2 0x156D JUMPI PUSH1 0x40 MLOAD PUSH3 0x461BCD PUSH1 0xE5 SHL DUP2 MSTORE PUSH1 0x4 ADD PUSH2 0x8C1 SWAP1 PUSH2 0x2BF1 JUMP JUMPDEST PUSH1 0x1 DUP2 ADD SLOAD PUSH1 0x1 PUSH1 0x1 PUSH1 0xA0 SHL SUB AND CALLER EQ PUSH2 0x15B9 JUMPI PUSH1 0x40 MLOAD PUSH3 0x461BCD PUSH1 0xE5 SHL DUP2 MSTORE PUSH1 0x20 PUSH1 0x4 DUP3 ADD MSTORE PUSH1 0xD PUSH1 0x24 DUP3 ADD MSTORE PUSH13 0x4E6F7420796F7572207461736B PUSH1 0x98 SHL PUSH1 0x44 DUP3 ADD MSTORE PUSH1 0x64 ADD PUSH2 0x8C1 JUMP JUMPDEST PUSH1 0x2 PUSH1 0x6 DUP3 ADD SLOAD PUSH1 0xFF AND PUSH1 0x5 DUP2 GT ISZERO PUSH2 0x15D4 JUMPI PUSH2 0x15D4 PUSH2 0x272A JUMP JUMPDEST EQ PUSH2 0xCAE JUMPI PUSH1 0x40 MLOAD PUSH3 0x461BCD PUSH1 0xE5 SHL DUP2 MSTORE PUSH1 0x4 ADD PUSH2 0x8C1 SWAP1 PUSH2 0x2C1E JUMP JUMPDEST PUSH1 0x8 PUSH1 0x20 MSTORE DUP2 PUSH1 0x0 MSTORE PUSH1 0x40 PUSH1 0x0 KECCAK256 DUP2 DUP2 SLOAD DUP2 LT PUSH2 0x104E JUMPI PUSH1 0x0 DUP1 REVERT JUMPDEST PUSH2 0x1615 PUSH2 0x22E0 JUMP JUMPDEST PUSH2 0x11B2 PUSH1 0x0 PUSH2 0x230D JUMP JUMPDEST PUSH1 0x0 DUP2 MLOAD GT PUSH2 0x1662 JUMPI PUSH1 0x40 MLOAD PUSH3 0x461BCD PUSH1 0xE5 SHL DUP2 MSTORE PUSH1 0x20 PUSH1 0x4 DUP3 ADD MSTORE PUSH1 0xF PUSH1 0x24 DUP3 ADD MSTORE PUSH15 0x125B9D985B1A59081C19595C881251 PUSH1 0x8A SHL PUSH1 0x44 DUP3 ADD MSTORE PUSH1 0x64 ADD PUSH2 0x8C1 JUMP JUMPDEST CALLER PUSH1 0x0 SWAP1 DUP2 MSTORE PUSH1 0xD PUSH1 0x20 MSTORE PUSH1 0x40 SWAP1 KECCAK256 SLOAD PUSH1 0xFF AND ISZERO PUSH2 0x16B7 JUMPI PUSH1 0x40 MLOAD PUSH3 0x461BCD PUSH1 0xE5 SHL DUP2 MSTORE PUSH1 0x20 PUSH1 0x4 DUP3 ADD MSTORE PUSH1 0x12 PUSH1 0x24 DUP3 ADD MSTORE PUSH18 0x105B1C9958591E481C9959DA5CDD195C9959 PUSH1 0x72 SHL PUSH1 0x44 DUP3 ADD MSTORE PUSH1 0x64 ADD PUSH2 0x8C1 JUMP JUMPDEST PUSH1 0x0 PUSH1 0x1 PUSH1 0x1 PUSH1 0xA0 SHL SUB AND PUSH1 0xC DUP3 PUSH1 0x40 MLOAD PUSH2 0x16D2 SWAP2 SWAP1 PUSH2 0x2C5D JUMP JUMPDEST SWAP1 DUP2 MSTORE PUSH1 0x40 MLOAD SWAP1 DUP2 SWAP1 SUB PUSH1 0x20 ADD SWAP1 KECCAK256 SLOAD PUSH1 0x1 PUSH1 0x1 PUSH1 0xA0 SHL SUB AND EQ PUSH2 0x1730 JUMPI PUSH1 0x40 MLOAD PUSH3 0x461BCD PUSH1 0xE5 SHL DUP2 MSTORE PUSH1 0x20 PUSH1 0x4 DUP3 ADD MSTORE PUSH1 0x15 PUSH1 0x24 DUP3 ADD MSTORE PUSH21 0x2832B2B91024A21030B63932B0B23C903A30B5B2B7 PUSH1 0x59 SHL PUSH1 0x44 DUP3 ADD MSTORE PUSH1 0x64 ADD PUSH2 0x8C1 JUMP JUMPDEST CALLER PUSH1 0x0 SWAP1 DUP2 MSTORE PUSH1 0xD PUSH1 0x20 SWAP1 DUP2 MSTORE PUSH1 0x40 DUP1 DUP4 KECCAK256 DUP1 SLOAD PUSH1 0xFF NOT AND PUSH1 0x1 OR SWAP1 SSTORE PUSH1 0xB SWAP1 SWAP2 MSTORE SWAP1 KECCAK256 PUSH2 0x175E DUP3 DUP3 PUSH2 0x2B31 JUMP JUMPDEST POP CALLER PUSH1 0xC DUP3 PUSH1 0x40 MLOAD PUSH2 0x1770 SWAP2 SWAP1 PUSH2 0x2C5D JUMP JUMPDEST SWAP1 DUP2 MSTORE PUSH1 0x40 DUP1 MLOAD PUSH1 0x20 SWAP3 DUP2 SWAP1 SUB DUP4 ADD DUP2 KECCAK256 DUP1 SLOAD PUSH1 0x1 PUSH1 0x1 PUSH1 0xA0 SHL SUB NOT AND PUSH1 0x1 PUSH1 0x1 PUSH1 0xA0 SHL SUB SWAP6 SWAP1 SWAP6 AND SWAP5 SWAP1 SWAP5 OR SWAP1 SWAP4 SSTORE CALLER PUSH1 0x0 DUP2 DUP2 MSTORE PUSH1 0xE SWAP1 SWAP4 MSTORE SWAP2 KECCAK256 PUSH1 0x32 SWAP1 SSTORE SWAP1 PUSH32 0xB2BC7D962E634836B6F2383EE5F842B8829C7771D414C3F8862C577F4730A3E8 SWAP1 PUSH2 0x17DF SWAP1 DUP5 SWAP1 PUSH2 0x2696 JUMP JUMPDEST PUSH1 0x40 MLOAD DUP1 SWAP2 SUB SWAP1 LOG2 POP JUMP JUMPDEST PUSH1 0x0 DUP3 DUP2 MSTORE PUSH1 0x7 PUSH1 0x20 MSTORE PUSH1 0x40 DUP2 KECCAK256 DUP1 SLOAD SWAP1 SWAP2 SUB PUSH2 0x1819 JUMPI PUSH1 0x40 MLOAD PUSH3 0x461BCD PUSH1 0xE5 SHL DUP2 MSTORE PUSH1 0x4 ADD PUSH2 0x8C1 SWAP1 PUSH2 0x2BF1 JUMP JUMPDEST PUSH1 0x2 DUP2 ADD SLOAD PUSH1 0x1 PUSH1 0x1 PUSH1 0xA0 SHL SUB AND CALLER EQ PUSH2 0x186B JUMPI PUSH1 0x40 MLOAD PUSH3 0x461BCD PUSH1 0xE5 SHL DUP2 MSTORE PUSH1 0x20 PUSH1 0x4 DUP3 ADD MSTORE PUSH1 0x13 PUSH1 0x24 DUP3 ADD MSTORE PUSH19 0x4E6F742061737369676E656420746F20796F75 PUSH1 0x68 SHL PUSH1 0x44 DUP3 ADD MSTORE PUSH1 0x64 ADD PUSH2 0x8C1 JUMP JUMPDEST PUSH1 0x1 PUSH1 0x6 DUP3 ADD SLOAD PUSH1 0xFF AND PUSH1 0x5 DUP2 GT ISZERO PUSH2 0x1886 JUMPI PUSH2 0x1886 PUSH2 0x272A JUMP JUMPDEST EQ PUSH2 0x18CA JUMPI PUSH1 0x40 MLOAD PUSH3 0x461BCD PUSH1 0xE5 SHL DUP2 MSTORE PUSH1 0x20 PUSH1 0x4 DUP3 ADD MSTORE PUSH1 0x14 PUSH1 0x24 DUP3 ADD MSTORE PUSH20 0x5461736B206E6F7420696E2070726F6772657373 PUSH1 0x60 SHL PUSH1 0x44 DUP3 ADD MSTORE PUSH1 0x64 ADD PUSH2 0x8C1 JUMP JUMPDEST DUP1 PUSH1 0x5 ADD SLOAD TIMESTAMP GT ISZERO PUSH2 0x1915 JUMPI PUSH1 0x40 MLOAD PUSH3 0x461BCD PUSH1 0xE5 SHL DUP2 MSTORE PUSH1 0x20 PUSH1 0x4 DUP3 ADD MSTORE PUSH1 0x14 PUSH1 0x24 DUP3 ADD MSTORE PUSH20 0x15185CDAC8191958591B1A5B99481C185CDCD959 PUSH1 0x62 SHL PUSH1 0x44 DUP3 ADD MSTORE PUSH1 0x64 ADD PUSH2 0x8C1 JUMP JUMPDEST PUSH1 0x0 DUP3 MLOAD GT PUSH2 0x195C JUMPI PUSH1 0x40 MLOAD PUSH3 0x461BCD PUSH1 0xE5 SHL DUP2 MSTORE PUSH1 0x20 PUSH1 0x4 DUP3 ADD MSTORE PUSH1 0x13 PUSH1 0x24 DUP3 ADD MSTORE PUSH19 0x92DCECC2D8D2C840E4CAE6EAD8E840D0C2E6D PUSH1 0x6B SHL PUSH1 0x44 DUP3 ADD MSTORE PUSH1 0x64 ADD PUSH2 0x8C1 JUMP JUMPDEST PUSH1 0x7 DUP2 ADD PUSH2 0x196A DUP4 DUP3 PUSH2 0x2B31 JUMP JUMPDEST POP PUSH1 0x6 DUP2 ADD DUP1 SLOAD PUSH1 0xFF NOT AND PUSH1 0x2 OR SWAP1 SSTORE TIMESTAMP PUSH1 0x9 DUP3 ADD SSTORE PUSH1 0x40 MLOAD DUP4 SWAP1 PUSH32 0x7E6FFC29FE63759579D96A0457A8F2E08339ACA345BD469F59DC2E61F82A5AEB SWAP1 PUSH2 0x135C SWAP1 DUP6 SWAP1 PUSH2 0x2696 JUMP JUMPDEST PUSH1 0x7 PUSH1 0x20 MSTORE PUSH1 0x0 SWAP1 DUP2 MSTORE PUSH1 0x40 SWAP1 KECCAK256 DUP1 SLOAD PUSH1 0x1 DUP3 ADD SLOAD PUSH1 0x2 DUP4 ADD SLOAD PUSH1 0x3 DUP5 ADD DUP1 SLOAD SWAP4 SWAP5 PUSH1 0x1 PUSH1 0x1 PUSH1 0xA0 SHL SUB SWAP4 DUP5 AND SWAP5 SWAP4 SWAP1 SWAP3 AND SWAP3 PUSH2 0x19EE SWAP1 PUSH2 0x2AA9 JUMP JUMPDEST DUP1 PUSH1 0x1F ADD PUSH1 0x20 DUP1 SWAP2 DIV MUL PUSH1 0x20 ADD PUSH1 0x40 MLOAD SWAP1 DUP2 ADD PUSH1 0x40 MSTORE DUP1 SWAP3 SWAP2 SWAP1 DUP2 DUP2 MSTORE PUSH1 0x20 ADD DUP3 DUP1 SLOAD PUSH2 0x1A1A SWAP1 PUSH2 0x2AA9 JUMP JUMPDEST DUP1 ISZERO PUSH2 0x1A67 JUMPI DUP1 PUSH1 0x1F LT PUSH2 0x1A3C JUMPI PUSH2 0x100 DUP1 DUP4 SLOAD DIV MUL DUP4 MSTORE SWAP2 PUSH1 0x20 ADD SWAP2 PUSH2 0x1A67 JUMP JUMPDEST DUP3 ADD SWAP2 SWAP1 PUSH1 0x0 MSTORE PUSH1 0x20 PUSH1 0x0 KECCAK256 SWAP1 JUMPDEST DUP2 SLOAD DUP2 MSTORE SWAP1 PUSH1 0x1 ADD SWAP1 PUSH1 0x20 ADD DUP1 DUP4 GT PUSH2 0x1A4A JUMPI DUP3 SWAP1 SUB PUSH1 0x1F AND DUP3 ADD SWAP2 JUMPDEST POP POP POP PUSH1 0x4 DUP5 ADD SLOAD PUSH1 0x5 DUP6 ADD SLOAD PUSH1 0x6 DUP7 ADD SLOAD PUSH1 0x7 DUP8 ADD DUP1 SLOAD SWAP7 SWAP8 SWAP4 SWAP7 SWAP3 SWAP6 POP PUSH1 0xFF SWAP1 SWAP2 AND SWAP4 POP SWAP1 PUSH2 0x1A97 SWAP1 PUSH2 0x2AA9 JUMP JUMPDEST DUP1 PUSH1 0x1F ADD PUSH1 0x20 DUP1 SWAP2 DIV MUL PUSH1 0x20 ADD PUSH1 0x40 MLOAD SWAP1 DUP2 ADD PUSH1 0x40 MSTORE DUP1 SWAP3 SWAP2 SWAP1 DUP2 DUP2 MSTORE PUSH1 0x20 ADD DUP3 DUP1 SLOAD PUSH2 0x1AC3 SWAP1 PUSH2 0x2AA9 JUMP JUMPDEST DUP1 ISZERO PUSH2 0x1B10 JUMPI DUP1 PUSH1 0x1F LT PUSH2 0x1AE5 JUMPI PUSH2 0x100 DUP1 DUP4 SLOAD DIV MUL DUP4 MSTORE SWAP2 PUSH1 0x20 ADD SWAP2 PUSH2 0x1B10 JUMP JUMPDEST DUP3 ADD SWAP2 SWAP1 PUSH1 0x0 MSTORE PUSH1 0x20 PUSH1 0x0 KECCAK256 SWAP1 JUMPDEST DUP2 SLOAD DUP2 MSTORE SWAP1 PUSH1 0x1 ADD SWAP1 PUSH1 0x20 ADD DUP1 DUP4 GT PUSH2 0x1AF3 JUMPI DUP3 SWAP1 SUB PUSH1 0x1F AND DUP3 ADD SWAP2 JUMPDEST POP POP POP POP POP SWAP1 DUP1 PUSH1 0x8 ADD SLOAD SWAP1 DUP1 PUSH1 0x9 ADD SLOAD SWAP1 POP DUP11 JUMP JUMPDEST PUSH1 0x1 PUSH1 0x1 PUSH1 0xA0 SHL SUB DUP2 AND PUSH1 0x0 SWAP1 DUP2 MSTORE PUSH1 0x8 PUSH1 0x20 SWAP1 DUP2 MSTORE PUSH1 0x40 SWAP2 DUP3 SWAP1 KECCAK256 DUP1 SLOAD DUP4 MLOAD DUP2 DUP5 MUL DUP2 ADD DUP5 ADD SWAP1 SWAP5 MSTORE DUP1 DUP5 MSTORE PUSH1 0x60 SWAP4 SWAP3 DUP4 ADD DUP3 DUP3 DUP1 ISZERO PUSH2 0x1B86 JUMPI PUSH1 0x20 MUL DUP3 ADD SWAP2 SWAP1 PUSH1 0x0 MSTORE PUSH1 0x20 PUSH1 0x0 KECCAK256 SWAP1 JUMPDEST DUP2 SLOAD DUP2 MSTORE PUSH1 0x20 ADD SWAP1 PUSH1 0x1 ADD SWAP1 DUP1 DUP4 GT PUSH2 0x1B72 JUMPI JUMPDEST POP POP POP POP POP SWAP1 POP SWAP2 SWAP1 POP JUMP JUMPDEST PUSH1 0x60 PUSH1 0x4 DUP1 SLOAD PUSH2 0xB42 SWAP1 PUSH2 0x2AA9 JUMP JUMPDEST PUSH1 0x0 CALLER PUSH2 0xBD3 DUP2 DUP6 DUP6 PUSH2 0x2281 JUMP JUMPDEST PUSH1 0x1 PUSH1 0x1 PUSH1 0xA0 SHL SUB DUP2 AND PUSH1 0x0 SWAP1 DUP2 MSTORE PUSH1 0x9 PUSH1 0x20 SWAP1 DUP2 MSTORE PUSH1 0x40 SWAP2 DUP3 SWAP1 KECCAK256 DUP1 SLOAD DUP4 MLOAD DUP2 DUP5 MUL DUP2 ADD DUP5 ADD SWAP1 SWAP5 MSTORE DUP1 DUP5 MSTORE PUSH1 0x60 SWAP4 SWAP3 DUP4 ADD DUP3 DUP3 DUP1 ISZERO PUSH2 0x1B86 JUMPI PUSH1 0x20 MUL DUP3 ADD SWAP2 SWAP1 PUSH1 0x0 MSTORE PUSH1 0x20 PUSH1 0x0 KECCAK256 SWAP1 DUP2 SLOAD DUP2 MSTORE PUSH1 0x20 ADD SWAP1 PUSH1 0x1 ADD SWAP1 DUP1 DUP4 GT PUSH2 0x1B72 JUMPI POP POP POP POP POP SWAP1 POP SWAP2 SWAP1 POP JUMP JUMPDEST PUSH1 0x60 PUSH1 0x0 DUP3 PUSH8 0xFFFFFFFFFFFFFFFF DUP2 GT ISZERO PUSH2 0x1C36 JUMPI PUSH2 0x1C36 PUSH2 0x255E JUMP JUMPDEST PUSH1 0x40 MLOAD SWAP1 DUP1 DUP3 MSTORE DUP1 PUSH1 0x20 MUL PUSH1 0x20 ADD DUP3 ADD PUSH1 0x40 MSTORE DUP1 ISZERO PUSH2 0x1C5F JUMPI DUP2 PUSH1 0x20 ADD PUSH1 0x20 DUP3 MUL DUP1 CALLDATASIZE DUP4 CALLDATACOPY ADD SWAP1 POP JUMPDEST POP SWAP1 POP PUSH1 0x0 PUSH1 0x1 JUMPDEST PUSH1 0xF SLOAD DUP2 LT DUP1 ISZERO PUSH2 0x1C77 JUMPI POP DUP5 DUP3 LT JUMPDEST ISZERO PUSH2 0x1D02 JUMPI PUSH1 0x0 DUP2 DUP2 MSTORE PUSH1 0x7 PUSH1 0x20 MSTORE PUSH1 0x40 DUP2 KECCAK256 PUSH1 0x6 ADD SLOAD PUSH1 0xFF AND PUSH1 0x5 DUP2 GT ISZERO PUSH2 0x1CA2 JUMPI PUSH2 0x1CA2 PUSH2 0x272A JUMP JUMPDEST EQ DUP1 ISZERO PUSH2 0x1CBF JUMPI POP PUSH1 0x0 DUP2 DUP2 MSTORE PUSH1 0x7 PUSH1 0x20 MSTORE PUSH1 0x40 SWAP1 KECCAK256 PUSH1 0x5 ADD SLOAD TIMESTAMP LT JUMPDEST ISZERO PUSH2 0x1CF0 JUMPI DUP1 DUP4 DUP4 DUP2 MLOAD DUP2 LT PUSH2 0x1CD7 JUMPI PUSH2 0x1CD7 PUSH2 0x2C79 JUMP JUMPDEST PUSH1 0x20 SWAP1 DUP2 MUL SWAP2 SWAP1 SWAP2 ADD ADD MSTORE DUP2 PUSH2 0x1CEC DUP2 PUSH2 0x2A44 JUMP JUMPDEST SWAP3 POP POP JUMPDEST DUP1 PUSH2 0x1CFA DUP2 PUSH2 0x2A44 JUMP JUMPDEST SWAP2 POP POP PUSH2 0x1C67 JUMP JUMPDEST POP PUSH1 0x0 DUP2 PUSH8 0xFFFFFFFFFFFFFFFF DUP2 GT ISZERO PUSH2 0x1D1E JUMPI PUSH2 0x1D1E PUSH2 0x255E JUMP JUMPDEST PUSH1 0x40 MLOAD SWAP1 DUP1 DUP3 MSTORE DUP1 PUSH1 0x20 MUL PUSH1 0x20 ADD DUP3 ADD PUSH1 0x40 MSTORE DUP1 ISZERO PUSH2 0x1D47 JUMPI DUP2 PUSH1 0x20 ADD PUSH1 0x20 DUP3 MUL DUP1 CALLDATASIZE DUP4 CALLDATACOPY ADD SWAP1 POP JUMPDEST POP SWAP1 POP PUSH1 0x0 JUMPDEST DUP3 DUP2 LT ISZERO PUSH2 0x1D9E JUMPI DUP4 DUP2 DUP2 MLOAD DUP2 LT PUSH2 0x1D67 JUMPI PUSH2 0x1D67 PUSH2 0x2C79 JUMP JUMPDEST PUSH1 0x20 MUL PUSH1 0x20 ADD ADD MLOAD DUP3 DUP3 DUP2 MLOAD DUP2 LT PUSH2 0x1D81 JUMPI PUSH2 0x1D81 PUSH2 0x2C79 JUMP JUMPDEST PUSH1 0x20 SWAP1 DUP2 MUL SWAP2 SWAP1 SWAP2 ADD ADD MSTORE DUP1 PUSH2 0x1D96 DUP2 PUSH2 0x2A44 JUMP JUMPDEST SWAP2 POP POP PUSH2 0x1D4D JUMP JUMPDEST POP SWAP5 SWAP4 POP POP POP POP JUMP JUMPDEST PUSH1 0xB PUSH1 0x20 MSTORE PUSH1 0x0 SWAP1 DUP2 MSTORE PUSH1 0x40 SWAP1 KECCAK256 DUP1 SLOAD PUSH2 0x1DC0 SWAP1 PUSH2 0x2AA9 JUMP JUMPDEST DUP1 PUSH1 0x1F ADD PUSH1 0x20 DUP1 SWAP2 DIV MUL PUSH1 0x20 ADD PUSH1 0x40 MLOAD SWAP1 DUP2 ADD PUSH1 0x40 MSTORE DUP1 SWAP3 SWAP2 SWAP1 DUP2 DUP2 MSTORE PUSH1 0x20 ADD DUP3 DUP1 SLOAD PUSH2 0x1DEC SWAP1 PUSH2 0x2AA9 JUMP JUMPDEST DUP1 ISZERO PUSH2 0x1E39 JUMPI DUP1 PUSH1 0x1F LT PUSH2 0x1E0E JUMPI PUSH2 0x100 DUP1 DUP4 SLOAD DIV MUL DUP4 MSTORE SWAP2 PUSH1 0x20 ADD SWAP2 PUSH2 0x1E39 JUMP JUMPDEST DUP3 ADD SWAP2 SWAP1 PUSH1 0x0 MSTORE PUSH1 0x20 PUSH1 0x0 KECCAK256 SWAP1 JUMPDEST DUP2 SLOAD DUP2 MSTORE SWAP1 PUSH1 0x1 ADD SWAP1 PUSH1 0x20 ADD DUP1 DUP4 GT PUSH2 0x1E1C JUMPI DUP3 SWAP1 SUB PUSH1 0x1F AND DUP3 ADD SWAP2 JUMPDEST POP POP POP POP POP DUP2 JUMP JUMPDEST PUSH1 0x1 PUSH1 0x1 PUSH1 0xA0 SHL SUB DUP2 AND PUSH1 0x0 SWAP1 DUP2 MSTORE PUSH1 0xD PUSH1 0x20 SWAP1 DUP2 MSTORE PUSH1 0x40 DUP1 DUP4 KECCAK256 SLOAD PUSH1 0xB DUP4 MSTORE DUP2 DUP5 KECCAK256 PUSH1 0xE DUP5 MSTORE DUP3 DUP6 KECCAK256 SLOAD PUSH1 0xA DUP6 MSTORE DUP4 DUP7 KECCAK256 SLOAD PUSH1 0x9 SWAP1 SWAP6 MSTORE SWAP3 DUP6 KECCAK256 SLOAD DUP2 SLOAD PUSH1 0x60 SWAP6 DUP8 SWAP6 DUP7 SWAP6 DUP7 SWAP6 PUSH1 0xFF SWAP1 SWAP2 AND SWAP5 SWAP1 SWAP4 SWAP2 SWAP3 SWAP2 DUP5 SWAP1 PUSH2 0x1E9E SWAP1 PUSH2 0x2AA9 JUMP JUMPDEST DUP1 PUSH1 0x1F ADD PUSH1 0x20 DUP1 SWAP2 DIV MUL PUSH1 0x20 ADD PUSH1 0x40 MLOAD SWAP1 DUP2 ADD PUSH1 0x40 MSTORE DUP1 SWAP3 SWAP2 SWAP1 DUP2 DUP2 MSTORE PUSH1 0x20 ADD DUP3 DUP1 SLOAD PUSH2 0x1ECA SWAP1 PUSH2 0x2AA9 JUMP JUMPDEST DUP1 ISZERO PUSH2 0x1F17 JUMPI DUP1 PUSH1 0x1F LT PUSH2 0x1EEC JUMPI PUSH2 0x100 DUP1 DUP4 SLOAD DIV MUL DUP4 MSTORE SWAP2 PUSH1 0x20 ADD SWAP2 PUSH2 0x1F17 JUMP JUMPDEST DUP3 ADD SWAP2 SWAP1 PUSH1 0x0 MSTORE PUSH1 0x20 PUSH1 0x0 KECCAK256 SWAP1 JUMPDEST DUP2 SLOAD DUP2 MSTORE SWAP1 PUSH1 0x1 ADD SWAP1 PUSH1 0x20 ADD DUP1 DUP4 GT PUSH2 0x1EFA JUMPI DUP3 SWAP1 SUB PUSH1 0x1F AND DUP3 ADD SWAP2 JUMPDEST POP SWAP9 SWAP16 SWAP4 SWAP15 POP SWAP6 SWAP13 POP SWAP4 SWAP11 POP SWAP2 SWAP9 POP SWAP7 POP POP POP POP POP POP POP JUMP JUMPDEST PUSH2 0x1F38 PUSH2 0x22E0 JUMP JUMPDEST PUSH2 0x1F40 PUSH2 0x21C6 JUMP JUMPDEST SELFBALANCE DUP1 PUSH2 0x1F84 JUMPI PUSH1 0x40 MLOAD PUSH3 0x461BCD PUSH1 0xE5 SHL DUP2 MSTORE PUSH1 0x20 PUSH1 0x4 DUP3 ADD MSTORE PUSH1 0x13 PUSH1 0x24 DUP3 ADD MSTORE PUSH19 0x4E6F206665657320746F207769746864726177 PUSH1 0x68 SHL PUSH1 0x44 DUP3 ADD MSTORE PUSH1 0x64 ADD PUSH2 0x8C1 JUMP JUMPDEST PUSH1 0x0 PUSH2 0x1F98 PUSH1 0x5 SLOAD PUSH1 0x1 PUSH1 0x1 PUSH1 0xA0 SHL SUB AND SWAP1 JUMP JUMPDEST PUSH1 0x1 PUSH1 0x1 PUSH1 0xA0 SHL SUB AND DUP3 PUSH1 0x40 MLOAD PUSH1 0x0 PUSH1 0x40 MLOAD DUP1 DUP4 SUB DUP2 DUP6 DUP8 GAS CALL SWAP3 POP POP POP RETURNDATASIZE DUP1 PUSH1 0x0 DUP2 EQ PUSH2 0x1FE2 JUMPI PUSH1 0x40 MLOAD SWAP2 POP PUSH1 0x1F NOT PUSH1 0x3F RETURNDATASIZE ADD AND DUP3 ADD PUSH1 0x40 MSTORE RETURNDATASIZE DUP3 MSTORE RETURNDATASIZE PUSH1 0x0 PUSH1 0x20 DUP5 ADD RETURNDATACOPY PUSH2 0x1FE7 JUMP JUMPDEST PUSH1 0x60 SWAP2 POP JUMPDEST POP POP SWAP1 POP DUP1 PUSH2 0x202C JUMPI PUSH1 0x40 MLOAD PUSH3 0x461BCD PUSH1 0xE5 SHL DUP2 MSTORE PUSH1 0x20 PUSH1 0x4 DUP3 ADD MSTORE PUSH1 0x11 PUSH1 0x24 DUP3 ADD MSTORE PUSH17 0x15DA5D1A191C985DD85B0819985A5B1959 PUSH1 0x7A SHL PUSH1 0x44 DUP3 ADD MSTORE PUSH1 0x64 ADD PUSH2 0x8C1 JUMP JUMPDEST POP POP PUSH2 0x11B2 PUSH1 0x1 PUSH1 0x6 SSTORE JUMP JUMPDEST PUSH2 0x2040 PUSH2 0x22E0 JUMP JUMPDEST PUSH2 0x2048 PUSH2 0x21C6 JUMP JUMPDEST PUSH1 0x0 DUP2 DUP2 MSTORE PUSH1 0x7 PUSH1 0x20 MSTORE PUSH1 0x40 DUP2 KECCAK256 DUP1 SLOAD SWAP1 SWAP2 SUB PUSH2 0x2077 JUMPI PUSH1 0x40 MLOAD PUSH3 0x461BCD PUSH1 0xE5 SHL DUP2 MSTORE PUSH1 0x4 ADD PUSH2 0x8C1 SWAP1 PUSH2 0x2BF1 JUMP JUMPDEST PUSH1 0x3 PUSH1 0x6 DUP3 ADD SLOAD PUSH1 0xFF AND PUSH1 0x5 DUP2 GT ISZERO PUSH2 0x2092 JUMPI PUSH2 0x2092 PUSH2 0x272A JUMP JUMPDEST SUB PUSH2 0x20D7 JUMPI PUSH1 0x40 MLOAD PUSH3 0x461BCD PUSH1 0xE5 SHL DUP2 MSTORE PUSH1 0x20 PUSH1 0x4 DUP3 ADD MSTORE PUSH1 0x15 PUSH1 0x24 DUP3 ADD MSTORE PUSH21 0x15185CDAC8185B1C9958591E481D995C9A599A5959 PUSH1 0x5A SHL PUSH1 0x44 DUP3 ADD MSTORE PUSH1 0x64 ADD PUSH2 0x8C1 JUMP JUMPDEST PUSH1 0x6 DUP2 ADD DUP1 SLOAD PUSH1 0xFF NOT AND PUSH1 0x5 OR SWAP1 SSTORE PUSH1 0x1 DUP2 ADD SLOAD PUSH1 0x4 DUP3 ADD SLOAD PUSH1 0x40 MLOAD PUSH1 0x0 SWAP3 PUSH1 0x1 PUSH1 0x1 PUSH1 0xA0 SHL SUB AND SWAP2 SWAP1 DUP4 DUP2 DUP2 DUP2 DUP6 DUP8 GAS CALL SWAP3 POP POP POP RETURNDATASIZE DUP1 PUSH1 0x0 DUP2 EQ PUSH2 0x2139 JUMPI PUSH1 0x40 MLOAD SWAP2 POP PUSH1 0x1F NOT PUSH1 0x3F RETURNDATASIZE ADD AND DUP3 ADD PUSH1 0x40 MSTORE RETURNDATASIZE DUP3 MSTORE RETURNDATASIZE PUSH1 0x0 PUSH1 0x20 DUP5 ADD RETURNDATACOPY PUSH2 0x213E JUMP JUMPDEST PUSH1 0x60 SWAP2 POP JUMPDEST POP POP SWAP1 POP DUP1 PUSH2 0x217F JUMPI PUSH1 0x40 MLOAD PUSH3 0x461BCD PUSH1 0xE5 SHL DUP2 MSTORE PUSH1 0x20 PUSH1 0x4 DUP3 ADD MSTORE PUSH1 0xD PUSH1 0x24 DUP3 ADD MSTORE PUSH13 0x1499599D5B990819985A5B1959 PUSH1 0x9A SHL PUSH1 0x44 DUP3 ADD MSTORE PUSH1 0x64 ADD PUSH2 0x8C1 JUMP JUMPDEST POP POP PUSH2 0xDB6 PUSH1 0x1 PUSH1 0x6 SSTORE JUMP JUMPDEST PUSH2 0x2193 PUSH2 0x22E0 JUMP JUMPDEST PUSH1 0x1 PUSH1 0x1 PUSH1 0xA0 SHL SUB DUP2 AND PUSH2 0x21BD JUMPI PUSH1 0x40 MLOAD PUSH4 0x1E4FBDF7 PUSH1 0xE0 SHL DUP2 MSTORE PUSH1 0x0 PUSH1 0x4 DUP3 ADD MSTORE PUSH1 0x24 ADD PUSH2 0x8C1 JUMP JUMPDEST PUSH2 0xDB6 DUP2 PUSH2 0x230D JUMP JUMPDEST PUSH1 0x2 PUSH1 0x6 SLOAD SUB PUSH2 0x21E9 JUMPI PUSH1 0x40 MLOAD PUSH4 0x3EE5AEB5 PUSH1 0xE0 SHL DUP2 MSTORE PUSH1 0x4 ADD PUSH1 0x40 MLOAD DUP1 SWAP2 SUB SWAP1 REVERT JUMPDEST PUSH1 0x2 PUSH1 0x6 SSTORE JUMP JUMPDEST PUSH2 0x21FD DUP4 DUP4 DUP4 PUSH1 0x1 PUSH2 0x235F JUMP JUMPDEST POP POP POP JUMP JUMPDEST PUSH1 0x1 PUSH1 0x1 PUSH1 0xA0 SHL SUB DUP4 DUP2 AND PUSH1 0x0 SWAP1 DUP2 MSTORE PUSH1 0x1 PUSH1 0x20 SWAP1 DUP2 MSTORE PUSH1 0x40 DUP1 DUP4 KECCAK256 SWAP4 DUP7 AND DUP4 MSTORE SWAP3 SWAP1 MSTORE KECCAK256 SLOAD PUSH1 0x0 NOT DUP2 LT ISZERO PUSH2 0x227B JUMPI DUP2 DUP2 LT ISZERO PUSH2 0x226C JUMPI PUSH1 0x40 MLOAD PUSH4 0x7DC7A0D9 PUSH1 0xE1 SHL DUP2 MSTORE PUSH1 0x1 PUSH1 0x1 PUSH1 0xA0 SHL SUB DUP5 AND PUSH1 0x4 DUP3 ADD MSTORE PUSH1 0x24 DUP2 ADD DUP3 SWAP1 MSTORE PUSH1 0x44 DUP2 ADD DUP4 SWAP1 MSTORE PUSH1 0x64 ADD PUSH2 0x8C1 JUMP JUMPDEST PUSH2 0x227B DUP5 DUP5 DUP5 DUP5 SUB PUSH1 0x0 PUSH2 0x235F JUMP JUMPDEST POP POP POP POP JUMP JUMPDEST PUSH1 0x1 PUSH1 0x1 PUSH1 0xA0 SHL SUB DUP4 AND PUSH2 0x22AB JUMPI PUSH1 0x40 MLOAD PUSH4 0x4B637E8F PUSH1 0xE1 SHL DUP2 MSTORE PUSH1 0x0 PUSH1 0x4 DUP3 ADD MSTORE PUSH1 0x24 ADD PUSH2 0x8C1 JUMP JUMPDEST PUSH1 0x1 PUSH1 0x1 PUSH1 0xA0 SHL SUB DUP3 AND PUSH2 0x22D5 JUMPI PUSH1 0x40 MLOAD PUSH4 0xEC442F05 PUSH1 0xE0 SHL DUP2 MSTORE PUSH1 0x0 PUSH1 0x4 DUP3 ADD MSTORE PUSH1 0x24 ADD PUSH2 0x8C1 JUMP JUMPDEST PUSH2 0x21FD DUP4 DUP4 DUP4 PUSH2 0x2434 JUMP JUMPDEST PUSH1 0x5 SLOAD PUSH1 0x1 PUSH1 0x1 PUSH1 0xA0 SHL SUB AND CALLER EQ PUSH2 0x11B2 JUMPI PUSH1 0x40 MLOAD PUSH4 0x118CDAA7 PUSH1 0xE0 SHL DUP2 MSTORE CALLER PUSH1 0x4 DUP3 ADD MSTORE PUSH1 0x24 ADD PUSH2 0x8C1 JUMP JUMPDEST PUSH1 0x5 DUP1 SLOAD PUSH1 0x1 PUSH1 0x1 PUSH1 0xA0 SHL SUB DUP4 DUP2 AND PUSH1 0x1 PUSH1 0x1 PUSH1 0xA0 SHL SUB NOT DUP4 AND DUP2 OR SWAP1 SWAP4 SSTORE PUSH1 0x40 MLOAD SWAP2 AND SWAP2 SWAP1 DUP3 SWAP1 PUSH32 0x8BE0079C531659141344CD1FD0A4F28419497F9722A3DAAFE3B4186F6B6457E0 SWAP1 PUSH1 0x0 SWAP1 LOG3 POP POP JUMP JUMPDEST PUSH1 0x1 PUSH1 0x1 PUSH1 0xA0 SHL SUB DUP5 AND PUSH2 0x2389 JUMPI PUSH1 0x40 MLOAD PUSH4 0xE602DF05 PUSH1 0xE0 SHL DUP2 MSTORE PUSH1 0x0 PUSH1 0x4 DUP3 ADD MSTORE PUSH1 0x24 ADD PUSH2 0x8C1 JUMP JUMPDEST PUSH1 0x1 PUSH1 0x1 PUSH1 0xA0 SHL SUB DUP4 AND PUSH2 0x23B3 JUMPI PUSH1 0x40 MLOAD PUSH4 0x4A1406B1 PUSH1 0xE1 SHL DUP2 MSTORE PUSH1 0x0 PUSH1 0x4 DUP3 ADD MSTORE PUSH1 0x24 ADD PUSH2 0x8C1 JUMP JUMPDEST PUSH1 0x1 PUSH1 0x1 PUSH1 0xA0 SHL SUB DUP1 DUP6 AND PUSH1 0x0 SWAP1 DUP2 MSTORE PUSH1 0x1 PUSH1 0x20 SWAP1 DUP2 MSTORE PUSH1 0x40 DUP1 DUP4 KECCAK256 SWAP4 DUP8 AND DUP4 MSTORE SWAP3 SWAP1 MSTORE KECCAK256 DUP3 SWAP1 SSTORE DUP1 ISZERO PUSH2 0x227B JUMPI DUP3 PUSH1 0x1 PUSH1 0x1 PUSH1 0xA0 SHL SUB AND DUP5 PUSH1 0x1 PUSH1 0x1 PUSH1 0xA0 SHL SUB AND PUSH32 0x8C5BE1E5EBEC7D5BD14F71427D1E84F3DD0314C0F7B2291E5B200AC8C7C3B925 DUP5 PUSH1 0x40 MLOAD PUSH2 0x2426 SWAP2 DUP2 MSTORE PUSH1 0x20 ADD SWAP1 JUMP JUMPDEST PUSH1 0x40 MLOAD DUP1 SWAP2 SUB SWAP1 LOG3 POP POP POP POP JUMP JUMPDEST PUSH1 0x1 PUSH1 0x1 PUSH1 0xA0 SHL SUB DUP4 AND PUSH2 0x245F JUMPI DUP1 PUSH1 0x2 PUSH1 0x0 DUP3 DUP3 SLOAD PUSH2 0x2454 SWAP2 SWAP1 PUSH2 0x2C4A JUMP JUMPDEST SWAP1 SWAP2 SSTORE POP PUSH2 0x24D1 SWAP1 POP JUMP JUMPDEST PUSH1 0x1 PUSH1 0x1 PUSH1 0xA0 SHL SUB DUP4 AND PUSH1 0x0 SWAP1 DUP2 MSTORE PUSH1 0x20 DUP2 SWAP1 MSTORE PUSH1 0x40 SWAP1 KECCAK256 SLOAD DUP2 DUP2 LT ISZERO PUSH2 0x24B2 JUMPI PUSH1 0x40 MLOAD PUSH4 0x391434E3 PUSH1 0xE2 SHL DUP2 MSTORE PUSH1 0x1 PUSH1 0x1 PUSH1 0xA0 SHL SUB DUP6 AND PUSH1 0x4 DUP3 ADD MSTORE PUSH1 0x24 DUP2 ADD DUP3 SWAP1 MSTORE PUSH1 0x44 DUP2 ADD DUP4 SWAP1 MSTORE PUSH1 0x64 ADD PUSH2 0x8C1 JUMP JUMPDEST PUSH1 0x1 PUSH1 0x1 PUSH1 0xA0 SHL SUB DUP5 AND PUSH1 0x0 SWAP1 DUP2 MSTORE PUSH1 0x20 DUP2 SWAP1 MSTORE PUSH1 0x40 SWAP1 KECCAK256 SWAP1 DUP3 SWAP1 SUB SWAP1 SSTORE JUMPDEST PUSH1 0x1 PUSH1 0x1 PUSH1 0xA0 SHL SUB DUP3 AND PUSH2 0x24ED JUMPI PUSH1 0x2 DUP1 SLOAD DUP3 SWAP1 SUB SWAP1 SSTORE PUSH2 0x250C JUMP JUMPDEST PUSH1 0x1 PUSH1 0x1 PUSH1 0xA0 SHL SUB DUP3 AND PUSH1 0x0 SWAP1 DUP2 MSTORE PUSH1 0x20 DUP2 SWAP1 MSTORE PUSH1 0x40 SWAP1 KECCAK256 DUP1 SLOAD DUP3 ADD SWAP1 SSTORE JUMPDEST DUP2 PUSH1 0x1 PUSH1 0x1 PUSH1 0xA0 SHL SUB AND DUP4 PUSH1 0x1 PUSH1 0x1 PUSH1 0xA0 SHL SUB AND PUSH32 0xDDF252AD1BE2C89B69C2B068FC378DAA952BA7F163C4A11628F55A4DF523B3EF DUP4 PUSH1 0x40 MLOAD PUSH2 0x2551 SWAP2 DUP2 MSTORE PUSH1 0x20 ADD SWAP1 JUMP JUMPDEST PUSH1 0x40 MLOAD DUP1 SWAP2 SUB SWAP1 LOG3 POP POP POP JUMP JUMPDEST PUSH4 0x4E487B71 PUSH1 0xE0 SHL PUSH1 0x0 MSTORE PUSH1 0x41 PUSH1 0x4 MSTORE PUSH1 0x24 PUSH1 0x0 REVERT JUMPDEST PUSH1 0x0 DUP3 PUSH1 0x1F DUP4 ADD SLT PUSH2 0x2585 JUMPI PUSH1 0x0 DUP1 REVERT JUMPDEST DUP2 CALLDATALOAD PUSH8 0xFFFFFFFFFFFFFFFF DUP1 DUP3 GT ISZERO PUSH2 0x25A0 JUMPI PUSH2 0x25A0 PUSH2 0x255E JUMP JUMPDEST PUSH1 0x40 MLOAD PUSH1 0x1F DUP4 ADD PUSH1 0x1F NOT SWAP1 DUP2 AND PUSH1 0x3F ADD AND DUP2 ADD SWAP1 DUP3 DUP3 GT DUP2 DUP4 LT OR ISZERO PUSH2 0x25C8 JUMPI PUSH2 0x25C8 PUSH2 0x255E JUMP JUMPDEST DUP2 PUSH1 0x40 MSTORE DUP4 DUP2 MSTORE DUP7 PUSH1 0x20 DUP6 DUP9 ADD ADD GT ISZERO PUSH2 0x25E1 JUMPI PUSH1 0x0 DUP1 REVERT JUMPDEST DUP4 PUSH1 0x20 DUP8 ADD PUSH1 0x20 DUP4 ADD CALLDATACOPY PUSH1 0x0 PUSH1 0x20 DUP6 DUP4 ADD ADD MSTORE DUP1 SWAP5 POP POP POP POP POP SWAP3 SWAP2 POP POP JUMP JUMPDEST PUSH1 0x0 DUP1 PUSH1 0x40 DUP4 DUP6 SUB SLT ISZERO PUSH2 0x2614 JUMPI PUSH1 0x0 DUP1 REVERT JUMPDEST DUP3 CALLDATALOAD PUSH8 0xFFFFFFFFFFFFFFFF DUP2 GT ISZERO PUSH2 0x262B JUMPI PUSH1 0x0 DUP1 REVERT JUMPDEST PUSH2 0x2637 DUP6 DUP3 DUP7 ADD PUSH2 0x2574 JUMP JUMPDEST SWAP6 PUSH1 0x20 SWAP5 SWAP1 SWAP5 ADD CALLDATALOAD SWAP5 POP POP POP POP JUMP JUMPDEST PUSH1 0x0 JUMPDEST DUP4 DUP2 LT ISZERO PUSH2 0x2661 JUMPI DUP2 DUP2 ADD MLOAD DUP4 DUP3 ADD MSTORE PUSH1 0x20 ADD PUSH2 0x2649 JUMP JUMPDEST POP POP PUSH1 0x0 SWAP2 ADD MSTORE JUMP JUMPDEST PUSH1 0x0 DUP2 MLOAD DUP1 DUP5 MSTORE PUSH2 0x2682 DUP2 PUSH1 0x20 DUP7 ADD PUSH1 0x20 DUP7 ADD PUSH2 0x2646 JUMP JUMPDEST PUSH1 0x1F ADD PUSH1 0x1F NOT AND SWAP3 SWAP1 SWAP3 ADD PUSH1 0x20 ADD SWAP3 SWAP2 POP POP JUMP JUMPDEST PUSH1 0x20 DUP2 MSTORE PUSH1 0x0 PUSH2 0x26A9 PUSH1 0x20 DUP4 ADD DUP5 PUSH2 0x266A JUMP JUMPDEST SWAP4 SWAP3 POP POP POP JUMP JUMPDEST DUP1 CALLDATALOAD PUSH1 0x1 PUSH1 0x1 PUSH1 0xA0 SHL SUB DUP2 AND DUP2 EQ PUSH2 0x26C7 JUMPI PUSH1 0x0 DUP1 REVERT JUMPDEST SWAP2 SWAP1 POP JUMP JUMPDEST PUSH1 0x0 PUSH1 0x20 DUP3 DUP5 SUB SLT ISZERO PUSH2 0x26DE JUMPI PUSH1 0x0 DUP1 REVERT JUMPDEST PUSH2 0x26A9 DUP3 PUSH2 0x26B0 JUMP JUMPDEST PUSH1 0x0 DUP1 PUSH1 0x40 DUP4 DUP6 SUB SLT ISZERO PUSH2 0x26FA JUMPI PUSH1 0x0 DUP1 REVERT JUMPDEST PUSH2 0x2703 DUP4 PUSH2 0x26B0 JUMP JUMPDEST SWAP5 PUSH1 0x20 SWAP4 SWAP1 SWAP4 ADD CALLDATALOAD SWAP4 POP POP POP JUMP JUMPDEST PUSH1 0x0 PUSH1 0x20 DUP3 DUP5 SUB SLT ISZERO PUSH2 0x2723 JUMPI PUSH1 0x0 DUP1 REVERT JUMPDEST POP CALLDATALOAD SWAP2 SWAP1 POP JUMP JUMPDEST PUSH4 0x4E487B71 PUSH1 0xE0 SHL PUSH1 0x0 MSTORE PUSH1 0x21 PUSH1 0x4 MSTORE PUSH1 0x24 PUSH1 0x0 REVERT JUMPDEST PUSH1 0x6 DUP2 LT PUSH2 0x275E JUMPI PUSH4 0x4E487B71 PUSH1 0xE0 SHL PUSH1 0x0 MSTORE PUSH1 0x21 PUSH1 0x4 MSTORE PUSH1 0x24 PUSH1 0x0 REVERT JUMPDEST SWAP1 MSTORE JUMP JUMPDEST PUSH1 0x20 DUP2 MSTORE DUP2 MLOAD PUSH1 0x20 DUP3 ADD MSTORE PUSH1 0x0 PUSH1 0x20 DUP4 ADD MLOAD PUSH2 0x2789 PUSH1 0x40 DUP5 ADD DUP3 PUSH1 0x1 PUSH1 0x1 PUSH1 0xA0 SHL SUB AND SWAP1 MSTORE JUMP JUMPDEST POP PUSH1 0x40 DUP4 ADD MLOAD PUSH1 0x1 PUSH1 0x1 PUSH1 0xA0 SHL SUB DUP2 AND PUSH1 0x60 DUP5 ADD MSTORE POP PUSH1 0x60 DUP4 ADD MLOAD PUSH2 0x140 DUP1 PUSH1 0x80 DUP6 ADD MSTORE PUSH2 0x27BB PUSH2 0x160 DUP6 ADD DUP4 PUSH2 0x266A JUMP JUMPDEST SWAP2 POP PUSH1 0x80 DUP6 ADD MLOAD PUSH1 0xA0 DUP6 ADD MSTORE PUSH1 0xA0 DUP6 ADD MLOAD PUSH1 0xC0 DUP6 ADD MSTORE PUSH1 0xC0 DUP6 ADD MLOAD PUSH2 0x27E3 PUSH1 0xE0 DUP7 ADD DUP3 PUSH2 0x2740 JUMP JUMPDEST POP PUSH1 0xE0 DUP6 ADD MLOAD PUSH2 0x100 PUSH1 0x1F NOT DUP7 DUP6 SUB ADD DUP2 DUP8 ADD MSTORE PUSH2 0x2801 DUP5 DUP4 PUSH2 0x266A JUMP JUMPDEST SWAP1 DUP8 ADD MLOAD PUSH2 0x120 DUP8 DUP2 ADD SWAP2 SWAP1 SWAP2 MSTORE SWAP1 SWAP7 ADD MLOAD SWAP2 SWAP1 SWAP5 ADD MSTORE POP SWAP2 SWAP3 SWAP2 POP POP JUMP JUMPDEST PUSH1 0x0 DUP1 PUSH1 0x0 PUSH1 0x60 DUP5 DUP7 SUB SLT ISZERO PUSH2 0x2835 JUMPI PUSH1 0x0 DUP1 REVERT JUMPDEST PUSH2 0x283E DUP5 PUSH2 0x26B0 JUMP JUMPDEST SWAP3 POP PUSH2 0x284C PUSH1 0x20 DUP6 ADD PUSH2 0x26B0 JUMP JUMPDEST SWAP2 POP PUSH1 0x40 DUP5 ADD CALLDATALOAD SWAP1 POP SWAP3 POP SWAP3 POP SWAP3 JUMP JUMPDEST PUSH1 0x0 DUP1 PUSH1 0x40 DUP4 DUP6 SUB SLT ISZERO PUSH2 0x286F JUMPI PUSH1 0x0 DUP1 REVERT JUMPDEST DUP3 CALLDATALOAD SWAP2 POP PUSH1 0x20 DUP4 ADD CALLDATALOAD PUSH8 0xFFFFFFFFFFFFFFFF DUP2 GT ISZERO PUSH2 0x288D JUMPI PUSH1 0x0 DUP1 REVERT JUMPDEST PUSH2 0x2899 DUP6 DUP3 DUP7 ADD PUSH2 0x2574 JUMP JUMPDEST SWAP2 POP POP SWAP3 POP SWAP3 SWAP1 POP JUMP JUMPDEST PUSH1 0x0 DUP1 PUSH1 0x40 DUP4 DUP6 SUB SLT ISZERO PUSH2 0x28B6 JUMPI PUSH1 0x0 DUP1 REVERT JUMPDEST DUP3 CALLDATALOAD SWAP2 POP PUSH2 0x28C6 PUSH1 0x20 DUP5 ADD PUSH2 0x26B0 JUMP JUMPDEST SWAP1 POP SWAP3 POP SWAP3 SWAP1 POP JUMP JUMPDEST PUSH1 0x0 PUSH1 0x20 DUP3 DUP5 SUB SLT ISZERO PUSH2 0x28E1 JUMPI PUSH1 0x0 DUP1 REVERT JUMPDEST DUP2 CALLDATALOAD PUSH8 0xFFFFFFFFFFFFFFFF DUP2 GT ISZERO PUSH2 0x28F8 JUMPI PUSH1 0x0 DUP1 REVERT JUMPDEST PUSH2 0x2904 DUP5 DUP3 DUP6 ADD PUSH2 0x2574 JUMP JUMPDEST SWAP5 SWAP4 POP POP POP POP JUMP JUMPDEST DUP11 DUP2 MSTORE PUSH1 0x1 PUSH1 0x1 PUSH1 0xA0 SHL SUB DUP11 DUP2 AND PUSH1 0x20 DUP4 ADD MSTORE DUP10 AND PUSH1 0x40 DUP3 ADD MSTORE PUSH2 0x140 PUSH1 0x60 DUP3 ADD DUP2 SWAP1 MSTORE PUSH1 0x0 SWAP1 PUSH2 0x293F DUP4 DUP3 ADD DUP12 PUSH2 0x266A JUMP JUMPDEST SWAP1 POP DUP9 PUSH1 0x80 DUP5 ADD MSTORE DUP8 PUSH1 0xA0 DUP5 ADD MSTORE PUSH2 0x295A PUSH1 0xC0 DUP5 ADD DUP9 PUSH2 0x2740 JUMP JUMPDEST DUP3 DUP2 SUB PUSH1 0xE0 DUP5 ADD MSTORE PUSH2 0x296C DUP2 DUP8 PUSH2 0x266A JUMP JUMPDEST PUSH2 0x100 DUP5 ADD SWAP6 SWAP1 SWAP6 MSTORE POP POP PUSH2 0x120 ADD MSTORE SWAP9 SWAP8 POP POP POP POP POP POP POP POP JUMP JUMPDEST PUSH1 0x20 DUP1 DUP3 MSTORE DUP3 MLOAD DUP3 DUP3 ADD DUP2 SWAP1 MSTORE PUSH1 0x0 SWAP2 SWAP1 DUP5 DUP3 ADD SWAP1 PUSH1 0x40 DUP6 ADD SWAP1 DUP5 JUMPDEST DUP2 DUP2 LT ISZERO PUSH2 0x29C0 JUMPI DUP4 MLOAD DUP4 MSTORE SWAP3 DUP5 ADD SWAP3 SWAP2 DUP5 ADD SWAP2 PUSH1 0x1 ADD PUSH2 0x29A4 JUMP JUMPDEST POP SWAP1 SWAP7 SWAP6 POP POP POP POP POP POP JUMP JUMPDEST DUP6 ISZERO ISZERO DUP2 MSTORE PUSH1 0xA0 PUSH1 0x20 DUP3 ADD MSTORE PUSH1 0x0 PUSH2 0x29E7 PUSH1 0xA0 DUP4 ADD DUP8 PUSH2 0x266A JUMP JUMPDEST PUSH1 0x40 DUP4 ADD SWAP6 SWAP1 SWAP6 MSTORE POP PUSH1 0x60 DUP2 ADD SWAP3 SWAP1 SWAP3 MSTORE PUSH1 0x80 SWAP1 SWAP2 ADD MSTORE SWAP3 SWAP2 POP POP JUMP JUMPDEST PUSH1 0x0 DUP1 PUSH1 0x40 DUP4 DUP6 SUB SLT ISZERO PUSH2 0x2A17 JUMPI PUSH1 0x0 DUP1 REVERT JUMPDEST PUSH2 0x2A20 DUP4 PUSH2 0x26B0 JUMP JUMPDEST SWAP2 POP PUSH2 0x28C6 PUSH1 0x20 DUP5 ADD PUSH2 0x26B0 JUMP JUMPDEST PUSH4 0x4E487B71 PUSH1 0xE0 SHL PUSH1 0x0 MSTORE PUSH1 0x11 PUSH1 0x4 MSTORE PUSH1 0x24 PUSH1 0x0 REVERT JUMPDEST PUSH1 0x0 PUSH1 0x1 DUP3 ADD PUSH2 0x2A56 JUMPI PUSH2 0x2A56 PUSH2 0x2A2E JUMP JUMPDEST POP PUSH1 0x1 ADD SWAP1 JUMP JUMPDEST DUP1 DUP3 MUL DUP2 ISZERO DUP3 DUP3 DIV DUP5 EQ OR PUSH2 0xBD9 JUMPI PUSH2 0xBD9 PUSH2 0x2A2E JUMP JUMPDEST PUSH1 0x0 DUP3 PUSH2 0x2A91 JUMPI PUSH4 0x4E487B71 PUSH1 0xE0 SHL PUSH1 0x0 MSTORE PUSH1 0x12 PUSH1 0x4 MSTORE PUSH1 0x24 PUSH1 0x0 REVERT JUMPDEST POP DIV SWAP1 JUMP JUMPDEST DUP2 DUP2 SUB DUP2 DUP2 GT ISZERO PUSH2 0xBD9 JUMPI PUSH2 0xBD9 PUSH2 0x2A2E JUMP JUMPDEST PUSH1 0x1 DUP2 DUP2 SHR SWAP1 DUP3 AND DUP1 PUSH2 0x2ABD JUMPI PUSH1 0x7F DUP3 AND SWAP2 POP JUMPDEST PUSH1 0x20 DUP3 LT DUP2 SUB PUSH2 0x2ADD JUMPI PUSH4 0x4E487B71 PUSH1 0xE0 SHL PUSH1 0x0 MSTORE PUSH1 0x22 PUSH1 0x4 MSTORE PUSH1 0x24 PUSH1 0x0 REVERT JUMPDEST POP SWAP2 SWAP1 POP JUMP JUMPDEST PUSH1 0x1F DUP3 GT ISZERO PUSH2 0x21FD JUMPI PUSH1 0x0 DUP2 DUP2 MSTORE PUSH1 0x20 DUP2 KECCAK256 PUSH1 0x1F DUP6 ADD PUSH1 0x5 SHR DUP2 ADD PUSH1 0x20 DUP7 LT ISZERO PUSH2 0x2B0A JUMPI POP DUP1 JUMPDEST PUSH1 0x1F DUP6 ADD PUSH1 0x5 SHR DUP3 ADD SWAP2 POP JUMPDEST DUP2 DUP2 LT ISZERO PUSH2 0x2B29 JUMPI DUP3 DUP2 SSTORE PUSH1 0x1 ADD PUSH2 0x2B16 JUMP JUMPDEST POP POP POP POP POP POP JUMP JUMPDEST DUP2 MLOAD PUSH8 0xFFFFFFFFFFFFFFFF DUP2 GT ISZERO PUSH2 0x2B4B JUMPI PUSH2 0x2B4B PUSH2 0x255E JUMP JUMPDEST PUSH2 0x2B5F DUP2 PUSH2 0x2B59 DUP5 SLOAD PUSH2 0x2AA9 JUMP JUMPDEST DUP5 PUSH2 0x2AE3 JUMP JUMPDEST PUSH1 0x20 DUP1 PUSH1 0x1F DUP4 GT PUSH1 0x1 DUP2 EQ PUSH2 0x2B94 JUMPI PUSH1 0x0 DUP5 ISZERO PUSH2 0x2B7C JUMPI POP DUP6 DUP4 ADD MLOAD JUMPDEST PUSH1 0x0 NOT PUSH1 0x3 DUP7 SWAP1 SHL SHR NOT AND PUSH1 0x1 DUP6 SWAP1 SHL OR DUP6 SSTORE PUSH2 0x2B29 JUMP JUMPDEST PUSH1 0x0 DUP6 DUP2 MSTORE PUSH1 0x20 DUP2 KECCAK256 PUSH1 0x1F NOT DUP7 AND SWAP2 JUMPDEST DUP3 DUP2 LT ISZERO PUSH2 0x2BC3 JUMPI DUP9 DUP7 ADD MLOAD DUP3 SSTORE SWAP5 DUP5 ADD SWAP5 PUSH1 0x1 SWAP1 SWAP2 ADD SWAP1 DUP5 ADD PUSH2 0x2BA4 JUMP JUMPDEST POP DUP6 DUP3 LT ISZERO PUSH2 0x2BE1 JUMPI DUP8 DUP6 ADD MLOAD PUSH1 0x0 NOT PUSH1 0x3 DUP9 SWAP1 SHL PUSH1 0xF8 AND SHR NOT AND DUP2 SSTORE JUMPDEST POP POP POP POP POP PUSH1 0x1 SWAP1 DUP2 SHL ADD SWAP1 SSTORE POP JUMP JUMPDEST PUSH1 0x20 DUP1 DUP3 MSTORE PUSH1 0x13 SWAP1 DUP3 ADD MSTORE PUSH19 0x15185CDAC8191BD95CC81B9BDD08195E1A5CDD PUSH1 0x6A SHL PUSH1 0x40 DUP3 ADD MSTORE PUSH1 0x60 ADD SWAP1 JUMP JUMPDEST PUSH1 0x20 DUP1 DUP3 MSTORE PUSH1 0x12 SWAP1 DUP3 ADD MSTORE PUSH18 0x15185CDAC81B9BDD0818DBDB5C1B195D1959 PUSH1 0x72 SHL PUSH1 0x40 DUP3 ADD MSTORE PUSH1 0x60 ADD SWAP1 JUMP JUMPDEST DUP1 DUP3 ADD DUP1 DUP3 GT ISZERO PUSH2 0xBD9 JUMPI PUSH2 0xBD9 PUSH2 0x2A2E JUMP JUMPDEST PUSH1 0x0 DUP3 MLOAD PUSH2 0x2C6F DUP2 DUP5 PUSH1 0x20 DUP8 ADD PUSH2 0x2646 JUMP JUMPDEST SWAP2 SWAP1 SWAP2 ADD SWAP3 SWAP2 POP POP JUMP JUMPDEST PUSH4 0x4E487B71 PUSH1 0xE0 SHL PUSH1 0x0 MSTORE PUSH1 0x32 PUSH1 0x4 MSTORE PUSH1 0x24 PUSH1 0x0 REVERT INVALID LOG2 PUSH5 0x6970667358 0x22 SLT KECCAK256 0xC7 0xCB 0x2C SWAP14 SGT JUMPDEST SGT SWAP11 CALLCODE 0xB8 PUSH11 0x8664BE1E7664286C073DC7 0x21 0xB3 PUSH28 0xCB1EA5A11322564736F6C6343000814003300000000000000000000 "},"methodIdentifiers":{"MIN_REWARD()":"48ea0c03","PLATFORM_FEE_PERCENT()":"560d52d4","TASK_TIMEOUT()":"5e9dbe4f","VERIFICATION_PERIOD()":"521523ff","allowance(address,address)":"dd62ed3e","approve(address,uint256)":"095ea7b3","assignTask(uint256,address)":"5293ee81","autoVerifyTask(uint256)":"103027d2","balanceOf(address)":"70a08231","claimRewards()":"372500ab","createTask(string,uint256)":"04fe2b34","decimals()":"313ce567","disputeTask(uint256,string)":"4bddd209","emergencyCancel(uint256)":"dd75cd9b","getAvailableTasks(uint256)":"ac760d81","getPlatformStats()":"136d8883","getTask(uint256)":"1d65e77e","getUserTasks(address)":"95d57660","getWorkerInfo(address)":"ce8ef7a6","getWorkerTasks(address)":"aae895c5","name()":"06fdde03","nextTaskId()":"fdc3d8d7","owner()":"8da5cb5b","peerIdToWorker(string)":"fa62375c","registerWorker(string)":"80c8f4fa","registeredWorkers(address)":"420569da","renounceOwnership()":"715018a6","submitResult(uint256,string)":"8c0dd79a","symbol()":"95d89b41","tasks(uint256)":"8d977672","totalRewardsDistributed()":"ee172546","totalSupply()":"18160ddd","totalTasksCompleted()":"108ab45e","totalTasksCreated()":"fd4df69b","transfer(address,uint256)":"a9059cbb","transferFrom(address,address,uint256)":"23b872dd","transferOwnership(address)":"f2fde38b","userTasks(address,uint256)":"66873a55","verifyTask(uint256)":"5573e3ef","withdrawPlatformFees()":"d0b7830b","workerPeerIds(address)":"bc5fe2d9","workerReputation(address)":"08a101b8","workerRewards(address)":"3355bc4d","workerTasks(address,uint256)":"2bf70dee"}}}}}