{"address":"0x0B306BF915C4d645ff596e518fAf3F9669b97016","bytecode":"0x60806040526001600f553480156200001657600080fd5b506040518060400160405280600f81526020016e23a82a9021b430b4b7102a37b5b2b760891b815250604051806040016040528060048152602001634750554360e01b81525081600390816200006d919062000291565b5060046200007c828262000291565b5050506200009962000093620000cc60201b60201c565b620000d0565b6001600655620000c633620000b16012600a62000472565b620000c090620f42406200048a565b62000122565b620004ba565b3390565b600580546001600160a01b038381166001600160a01b0319831681179093556040519116919082907f8be0079c531659141344cd1fd0a4f28419497f9722a3daafe3b4186f6b6457e090600090a35050565b6001600160a01b0382166200017d5760405162461bcd60e51b815260206004820152601f60248201527f45524332303a206d696e7420746f20746865207a65726f206164647265737300604482015260640160405180910390fd5b8060026000828254620001919190620004a4565b90915550506001600160a01b038216600081815260208181526040808320805486019055518481527fddf252ad1be2c89b69c2b068fc378daa952ba7f163c4a11628f55a4df523b3ef910160405180910390a35050565b505050565b634e487b7160e01b600052604160045260246000fd5b600181811c908216806200021857607f821691505b6020821081036200023957634e487b7160e01b600052602260045260246000fd5b50919050565b601f821115620001e857600081815260208120601f850160051c81016020861015620002685750805b601f850160051c820191505b81811015620002895782815560010162000274565b505050505050565b81516001600160401b03811115620002ad57620002ad620001ed565b620002c581620002be845462000203565b846200023f565b602080601f831160018114620002fd5760008415620002e45750858301515b600019600386901b1c1916600185901b17855562000289565b600085815260208120601f198616915b828110156200032e578886015182559484019460019091019084016200030d565b50858210156200034d5787850151600019600388901b60f8161c191681555b5050505050600190811b01905550565b634e487b7160e01b600052601160045260246000fd5b600181815b80851115620003b45781600019048211156200039857620003986200035d565b80851615620003a657918102915b93841c939080029062000378565b509250929050565b600082620003cd575060016200046c565b81620003dc575060006200046c565b8160018114620003f55760028114620004005762000420565b60019150506200046c565b60ff8411156200041457620004146200035d565b50506001821b6200046c565b5060208310610133831016604e8410600b841016171562000445575081810a6200046c565b62000451838362000373565b80600019048211156200046857620004686200035d565b0290505b92915050565b60006200048360ff841683620003bc565b9392505050565b80820281158282048414176200046c576200046c6200035d565b808201808211156200046c576200046c6200035d565b612eac80620004ca6000396000f3fe60806040526004361061027d5760003560e01c806366873a551161014f578063aae895c5116100c1578063dd75cd9b1161007a578063dd75cd9b146107e2578063ee17254614610802578063f2fde38b14610818578063fa62375c14610838578063fd4df69b14610879578063fdc3d8d71461088f57600080fd5b8063aae895c51461071c578063ac760d811461073c578063bc5fe2d91461075c578063ce8ef7a61461077c578063d0b7830b146107ad578063dd62ed3e146107c257600080fd5b80638d977672116101135780638d977672146106325780638da5cb5b1461066857806395d576601461069a57806395d89b41146106c7578063a457c2d7146106dc578063a9059cbb146106fc57600080fd5b806366873a551461058757806370a08231146105a7578063715018a6146105dd57806380c8f4fa146105f25780638c0dd79a1461061257600080fd5b8063313ce567116101f35780634bddd209116101ac5780634bddd209146104e6578063521523ff146105065780635293ee811461051c5780635573e3ef1461053c578063560d52d41461055c5780635e9dbe4f1461057157600080fd5b8063313ce5671461041d5780633355bc4d14610439578063372500ab14610466578063395093511461047b578063420569da1461049b57806348ea0c03146104cb57600080fd5b8063108ab45e11610245578063108ab45e1461034d578063136d88831461036357806318160ddd1461039b5780631d65e77e146103b057806323b872dd146103dd5780632bf70dee146103fd57600080fd5b806304fe2b341461028257806306fdde031461029757806308a101b8146102c2578063095ea7b3146102fd578063103027d21461032d575b600080fd5b6102956102903660046127e8565b6108a5565b005b3480156102a357600080fd5b506102ac610b63565b6040516102b9919061287d565b60405180910390f35b3480156102ce57600080fd5b506102ef6102dd3660046128b3565b600e6020526000908152604090205481565b6040519081526020016102b9565b34801561030957600080fd5b5061031d6103183660046128ce565b610bf5565b60405190151581526020016102b9565b34801561033957600080fd5b506102956103483660046128f8565b610c0f565b34801561035957600080fd5b506102ef60115481565b34801561036f57600080fd5b5060105460115460125460006040805194855260208501939093529183015260608201526080016102b9565b3480156103a757600080fd5b506002546102ef565b3480156103bc57600080fd5b506103d06103cb3660046128f8565b610de9565b6040516102b99190612949565b3480156103e957600080fd5b5061031d6103f8366004612a07565b61103e565b34801561040957600080fd5b506102ef6104183660046128ce565b611062565b34801561042957600080fd5b50604051601281526020016102b9565b34801561044557600080fd5b506102ef6104543660046128b3565b600a6020526000908152604090205481565b34801561047257600080fd5b50610295611093565b34801561048757600080fd5b5061031d6104963660046128ce565b6111e4565b3480156104a757600080fd5b5061031d6104b63660046128b3565b600d6020526000908152604090205460ff1681565b3480156104d757600080fd5b506102ef66038d7ea4c6800081565b3480156104f257600080fd5b50610295610501366004612a43565b611206565b34801561051257600080fd5b506102ef61025881565b34801561052857600080fd5b50610295610537366004612a8a565b6113bb565b34801561054857600080fd5b506102956105573660046128f8565b611588565b34801561056857600080fd5b506102ef600581565b34801561057d57600080fd5b506102ef610e1081565b34801561059357600080fd5b506102ef6105a23660046128ce565b611643565b3480156105b357600080fd5b506102ef6105c23660046128b3565b6001600160a01b031660009081526020819052604090205490565b3480156105e957600080fd5b5061029561165f565b3480156105fe57600080fd5b5061029561060d366004612ab6565b611671565b34801561061e57600080fd5b5061029561062d366004612a43565b61183c565b34801561063e57600080fd5b5061065261064d3660046128f8565b611a04565b6040516102b99a99989796959493929190612af3565b34801561067457600080fd5b506005546001600160a01b03165b6040516001600160a01b0390911681526020016102b9565b3480156106a657600080fd5b506106ba6106b53660046128b3565b611b78565b6040516102b99190612b6f565b3480156106d357600080fd5b506102ac611be4565b3480156106e857600080fd5b5061031d6106f73660046128ce565b611bf3565b34801561070857600080fd5b5061031d6107173660046128ce565b611c6e565b34801561072857600080fd5b506106ba6107373660046128b3565b611c7c565b34801561074857600080fd5b506106ba6107573660046128f8565b611ce6565b34801561076857600080fd5b506102ac6107773660046128b3565b611e74565b34801561078857600080fd5b5061079c6107973660046128b3565b611f0e565b6040516102b9959493929190612bb3565b3480156107b957600080fd5b50610295611ffd565b3480156107ce57600080fd5b506102ef6107dd366004612beb565b612105565b3480156107ee57600080fd5b506102956107fd3660046128f8565b612130565b34801561080e57600080fd5b506102ef60125481565b34801561082457600080fd5b506102956108333660046128b3565b612283565b34801561084457600080fd5b50610682610853366004612ab6565b8051602081830181018051600c825292820191909301209152546001600160a01b031681565b34801561088557600080fd5b506102ef60105481565b34801561089b57600080fd5b506102ef600f5481565b6108ad6122f9565b66038d7ea4c680003410156108fa5760405162461bcd60e51b815260206004820152600e60248201526d52657761726420746f6f206c6f7760901b60448201526064015b60405180910390fd5b42811161093c5760405162461bcd60e51b815260206004820152601060248201526f496e76616c696420646561646c696e6560801b60448201526064016108f1565b60008251116109815760405162461bcd60e51b8152602060048201526011602482015270092dcecc2d8d2c840e8c2e6d640d0c2e6d607b1b60448201526064016108f1565b600f80546000918261099283612c2b565b909155509050600060646109a7600534612c44565b6109b19190612c5b565b905060006109bf8234612c7d565b60408051610140810182528581523360208083019182526000838501818152606085018c81526080860188905260a086018c905260c086018390528651808501885283815260e08701524261010087015261012086018390528a835260079093529490208351815591516001830180546001600160a01b03199081166001600160a01b039384161790915594516002840180549096169116179093559151929350916003820190610a709082612d18565b506080820151816004015560a0820151816005015560c08201518160060160006101000a81548160ff02191690836005811115610aaf57610aaf612911565b021790555060e08201516007820190610ac89082612d18565b506101008201516008808301919091556101209092015160099091015533600090815260209182526040812080546001810182559082529181209091018490556010805491610b1683612c2b565b9091555050604051818152339084907f6cf53aa7292e664152c2ea948c3b3c95d4b05c36daeb2626d0293473c4a4a1539060200160405180910390a3505050610b5f6001600655565b5050565b606060038054610b7290612c90565b80601f0160208091040260200160405190810160405280929190818152602001828054610b9e90612c90565b8015610beb5780601f10610bc057610100808354040283529160200191610beb565b820191906000526020600020905b815481529060010190602001808311610bce57829003601f168201915b5050505050905090565b600033610c03818585612352565b60019150505b92915050565b610c176122f9565b60008181526007602052604081208054909103610c465760405162461bcd60e51b81526004016108f190612dd8565b6002600682015460ff166005811115610c6157610c61612911565b14610c7e5760405162461bcd60e51b81526004016108f190612e05565b6102588160090154610c909190612e31565b4211610cde5760405162461bcd60e51b815260206004820152601f60248201527f566572696669636174696f6e20706572696f64206e6f7420657870697265640060448201526064016108f1565b60068101805460ff19166003179055600481015460028201546001600160a01b03166000908152600a602052604081208054909190610d1e908490612e31565b909155505060118054906000610d3383612c2b565b909155505060028101546001600160a01b03166000908152600e602052604090205460641115610d905760028101546001600160a01b03166000908152600e60205260408120805460019290610d8a908490612e31565b90915550505b600281015460048201546040519081526001600160a01b039091169083907f477d9dbad436f899729571bd347ca39a0d163bbc0870482ce5e298e4145d42519060200160405180910390a350610de66001600655565b50565b610e3e60408051610140810182526000808252602082018190529181018290526060808201526080810182905260a081018290529060c082019081526020016060815260200160008152602001600081525090565b6000828152600760205260408120549003610e6b5760405162461bcd60e51b81526004016108f190612dd8565b6000828152600760209081526040918290208251610140810184528154815260018201546001600160a01b0390811693820193909352600282015490921692820192909252600382018054919291606084019190610ec890612c90565b80601f0160208091040260200160405190810160405280929190818152602001828054610ef490612c90565b8015610f415780601f10610f1657610100808354040283529160200191610f41565b820191906000526020600020905b815481529060010190602001808311610f2457829003601f168201915b5050509183525050600482015460208201526005808301546040830152600683015460609092019160ff1690811115610f7c57610f7c612911565b6005811115610f8d57610f8d612911565b8152602001600782018054610fa190612c90565b80601f0160208091040260200160405190810160405280929190818152602001828054610fcd90612c90565b801561101a5780601f10610fef5761010080835404028352916020019161101a565b820191906000526020600020905b815481529060010190602001808311610ffd57829003601f168201915b50505050508152602001600882015481526020016009820154815250509050919050565b60003361104c858285612476565b6110578585856124f0565b506001949350505050565b6009602052816000526040600020818154811061107e57600080fd5b90600052602060002001600091509150505481565b61109b6122f9565b336000908152600a6020526040902054806110ee5760405162461bcd60e51b81526020600482015260136024820152724e6f207265776172647320746f20636c61696d60681b60448201526064016108f1565b336000908152600a6020526040812081905560128054839290611112908490612e31565b9091555050604051600090339083908381818185875af1925050503d8060008114611159576040519150601f19603f3d011682016040523d82523d6000602084013e61115e565b606091505b50509050806111a15760405162461bcd60e51b815260206004820152600f60248201526e151c985b9cd9995c8819985a5b1959608a1b60448201526064016108f1565b60405182815233907f106f923f993c2149d49b4255ff723acafa1f2d94393f561d3eda32ae348f72419060200160405180910390a250506111e26001600655565b565b600033610c038185856111f78383612105565b6112019190612e31565b612352565b600082815260076020526040812080549091036112355760405162461bcd60e51b81526004016108f190612dd8565b60018101546001600160a01b031633146112815760405162461bcd60e51b815260206004820152600d60248201526c4e6f7420796f7572207461736b60981b60448201526064016108f1565b6002600682015460ff16600581111561129c5761129c612911565b146112b95760405162461bcd60e51b81526004016108f190612e05565b61025881600901546112cb9190612e31565b42111561131a5760405162461bcd60e51b815260206004820152601b60248201527f566572696669636174696f6e20706572696f642065787069726564000000000060448201526064016108f1565b60068101805460ff1916600417905560028101546001600160a01b03166000908152600e60205260409020541561137e5760028101546001600160a01b03166000908152600e60205260408120805460059290611378908490612c7d565b90915550505b827f08824ea73fe0c710b8488bb1d0d50ab5b21b6019aa7eaebafbe0076e5f7ab945836040516113ae919061287d565b60405180910390a2505050565b600082815260076020526040812080549091036113ea5760405162461bcd60e51b81526004016108f190612dd8565b6000600682015460ff16600581111561140557611405612911565b146114475760405162461bcd60e51b81526020600482015260126024820152715461736b206e6f7420617661696c61626c6560701b60448201526064016108f1565b6001600160a01b0382166000908152600d602052604090205460ff166114a75760405162461bcd60e51b815260206004820152601560248201527415dbdc9ad95c881b9bdd081c9959da5cdd195c9959605a1b60448201526064016108f1565b60018101546001600160a01b03163314806114ca5750336001600160a01b038316145b6115075760405162461bcd60e51b815260206004820152600e60248201526d139bdd08185d5d1a1bdc9a5e995960921b60448201526064016108f1565b6002810180546001600160a01b0319166001600160a01b03841690811790915560068201805460ff191660019081179091556000828152600960209081526040808320805494850181558352908220909201869055905185917f52476d55ecef5cf13caa64038f297fe6bbf865d9584a98b8722a15a6d5db128f91a3505050565b6115906122f9565b600081815260076020526040812080549091036115bf5760405162461bcd60e51b81526004016108f190612dd8565b60018101546001600160a01b0316331461160b5760405162461bcd60e51b815260206004820152600d60248201526c4e6f7420796f7572207461736b60981b60448201526064016108f1565b6002600682015460ff16600581111561162657611626612911565b14610cde5760405162461bcd60e51b81526004016108f190612e05565b6008602052816000526040600020818154811061107e57600080fd5b611667612694565b6111e260006126ee565b60008151116116b45760405162461bcd60e51b815260206004820152600f60248201526e125b9d985b1a59081c19595c881251608a1b60448201526064016108f1565b336000908152600d602052604090205460ff16156117095760405162461bcd60e51b8152602060048201526012602482015271105b1c9958591e481c9959da5cdd195c995960721b60448201526064016108f1565b60006001600160a01b0316600c826040516117249190612e44565b908152604051908190036020019020546001600160a01b0316146117825760405162461bcd60e51b81526020600482015260156024820152742832b2b91024a21030b63932b0b23c903a30b5b2b760591b60448201526064016108f1565b336000908152600d60209081526040808320805460ff19166001179055600b90915290206117b08282612d18565b5033600c826040516117c29190612e44565b908152604080516020928190038301812080546001600160a01b0319166001600160a01b039590951694909417909355336000818152600e909352912060329055907fb2bc7d962e634836b6f2383ee5f842b8829c7771d414c3f8862c577f4730a3e89061183190849061287d565b60405180910390a250565b6000828152600760205260408120805490910361186b5760405162461bcd60e51b81526004016108f190612dd8565b60028101546001600160a01b031633146118bd5760405162461bcd60e51b81526020600482015260136024820152724e6f742061737369676e656420746f20796f7560681b60448201526064016108f1565b6001600682015460ff1660058111156118d8576118d8612911565b1461191c5760405162461bcd60e51b81526020600482015260146024820152735461736b206e6f7420696e2070726f677265737360601b60448201526064016108f1565b80600501544211156119675760405162461bcd60e51b815260206004820152601460248201527315185cdac8191958591b1a5b99481c185cdcd95960621b60448201526064016108f1565b60008251116119ae5760405162461bcd60e51b8152602060048201526013602482015272092dcecc2d8d2c840e4cae6ead8e840d0c2e6d606b1b60448201526064016108f1565b600781016119bc8382612d18565b5060068101805460ff1916600217905542600982015560405183907f7e6ffc29fe63759579d96a0457a8f2e08339aca345bd469f59dc2e61f82a5aeb906113ae90859061287d565b600760205260009081526040902080546001820154600283015460038401805493946001600160a01b03938416949390921692611a4090612c90565b80601f0160208091040260200160405190810160405280929190818152602001828054611a6c90612c90565b8015611ab95780601f10611a8e57610100808354040283529160200191611ab9565b820191906000526020600020905b815481529060010190602001808311611a9c57829003601f168201915b5050506004840154600585015460068601546007870180549697939692955060ff909116935090611ae990612c90565b80601f0160208091040260200160405190810160405280929190818152602001828054611b1590612c90565b8015611b625780601f10611b3757610100808354040283529160200191611b62565b820191906000526020600020905b815481529060010190602001808311611b4557829003601f168201915b505050505090806008015490806009015490508a565b6001600160a01b038116600090815260086020908152604091829020805483518184028101840190945280845260609392830182828015611bd857602002820191906000526020600020905b815481526020019060010190808311611bc4575b50505050509050919050565b606060048054610b7290612c90565b60003381611c018286612105565b905083811015611c615760405162461bcd60e51b815260206004820152602560248201527f45524332303a2064656372656173656420616c6c6f77616e63652062656c6f77604482015264207a65726f60d81b60648201526084016108f1565b6110578286868403612352565b600033610c038185856124f0565b6001600160a01b038116600090815260096020908152604091829020805483518184028101840190945280845260609392830182828015611bd85760200282019190600052602060002090815481526020019060010190808311611bc45750505050509050919050565b606060008267ffffffffffffffff811115611d0357611d03612745565b604051908082528060200260200182016040528015611d2c578160200160208202803683370190505b509050600060015b600f5481108015611d4457508482105b15611dcf5760008181526007602052604081206006015460ff166005811115611d6f57611d6f612911565b148015611d8c575060008181526007602052604090206005015442105b15611dbd5780838381518110611da457611da4612e60565b602090810291909101015281611db981612c2b565b9250505b80611dc781612c2b565b915050611d34565b5060008167ffffffffffffffff811115611deb57611deb612745565b604051908082528060200260200182016040528015611e14578160200160208202803683370190505b50905060005b82811015611e6b57838181518110611e3457611e34612e60565b6020026020010151828281518110611e4e57611e4e612e60565b602090810291909101015280611e6381612c2b565b915050611e1a565b50949350505050565b600b6020526000908152604090208054611e8d90612c90565b80601f0160208091040260200160405190810160405280929190818152602001828054611eb990612c90565b8015611f065780601f10611edb57610100808354040283529160200191611f06565b820191906000526020600020905b815481529060010190602001808311611ee957829003601f168201915b505050505081565b6001600160a01b0381166000908152600d6020908152604080832054600b8352818420600e845282852054600a855283862054600990955292852054815460609587958695869560ff9091169490939192918490611f6b90612c90565b80601f0160208091040260200160405190810160405280929190818152602001828054611f9790612c90565b8015611fe45780601f10611fb957610100808354040283529160200191611fe4565b820191906000526020600020905b815481529060010190602001808311611fc757829003601f168201915b50989f939e50959c50939a509198509650505050505050565b612005612694565b61200d6122f9565b47806120515760405162461bcd60e51b81526020600482015260136024820152724e6f206665657320746f20776974686472617760681b60448201526064016108f1565b60006120656005546001600160a01b031690565b6001600160a01b03168260405160006040518083038185875af1925050503d80600081146120af576040519150601f19603f3d011682016040523d82523d6000602084013e6120b4565b606091505b50509050806120f95760405162461bcd60e51b815260206004820152601160248201527015da5d1a191c985dd85b0819985a5b1959607a1b60448201526064016108f1565b50506111e26001600655565b6001600160a01b03918216600090815260016020908152604080832093909416825291909152205490565b612138612694565b6121406122f9565b6000818152600760205260408120805490910361216f5760405162461bcd60e51b81526004016108f190612dd8565b6003600682015460ff16600581111561218a5761218a612911565b036121cf5760405162461bcd60e51b815260206004820152601560248201527415185cdac8185b1c9958591e481d995c9a599a5959605a1b60448201526064016108f1565b60068101805460ff19166005179055600181015460048201546040516000926001600160a01b031691908381818185875af1925050503d8060008114612231576040519150601f19603f3d011682016040523d82523d6000602084013e612236565b606091505b50509050806122775760405162461bcd60e51b815260206004820152600d60248201526c1499599d5b990819985a5b1959609a1b60448201526064016108f1565b5050610de66001600655565b61228b612694565b6001600160a01b0381166122f05760405162461bcd60e51b815260206004820152602660248201527f4f776e61626c653a206e6577206f776e657220697320746865207a65726f206160448201526564647265737360d01b60648201526084016108f1565b610de6816126ee565b60026006540361234b5760405162461bcd60e51b815260206004820152601f60248201527f5265656e7472616e637947756172643a207265656e7472616e742063616c6c0060448201526064016108f1565b6002600655565b6001600160a01b0383166123b45760405162461bcd60e51b8152602060048201526024808201527f45524332303a20617070726f76652066726f6d20746865207a65726f206164646044820152637265737360e01b60648201526084016108f1565b6001600160a01b0382166124155760405162461bcd60e51b815260206004820152602260248201527f45524332303a20617070726f766520746f20746865207a65726f206164647265604482015261737360f01b60648201526084016108f1565b6001600160a01b0383811660008181526001602090815260408083209487168084529482529182902085905590518481527f8c5be1e5ebec7d5bd14f71427d1e84f3dd0314c0f7b2291e5b200ac8c7c3b925910160405180910390a3505050565b60006124828484612105565b905060001981146124ea57818110156124dd5760405162461bcd60e51b815260206004820152601d60248201527f45524332303a20696e73756666696369656e7420616c6c6f77616e636500000060448201526064016108f1565b6124ea8484848403612352565b50505050565b6001600160a01b0383166125545760405162461bcd60e51b815260206004820152602560248201527f45524332303a207472616e736665722066726f6d20746865207a65726f206164604482015264647265737360d81b60648201526084016108f1565b6001600160a01b0382166125b65760405162461bcd60e51b815260206004820152602360248201527f45524332303a207472616e7366657220746f20746865207a65726f206164647260448201526265737360e81b60648201526084016108f1565b6001600160a01b0383166000908152602081905260409020548181101561262e5760405162461bcd60e51b815260206004820152602660248201527f45524332303a207472616e7366657220616d6f756e7420657863656564732062604482015265616c616e636560d01b60648201526084016108f1565b6001600160a01b03848116600081815260208181526040808320878703905593871680835291849020805487019055925185815290927fddf252ad1be2c89b69c2b068fc378daa952ba7f163c4a11628f55a4df523b3ef910160405180910390a36124ea565b6005546001600160a01b031633146111e25760405162461bcd60e51b815260206004820181905260248201527f4f776e61626c653a2063616c6c6572206973206e6f7420746865206f776e657260448201526064016108f1565b600580546001600160a01b038381166001600160a01b0319831681179093556040519116919082907f8be0079c531659141344cd1fd0a4f28419497f9722a3daafe3b4186f6b6457e090600090a35050565b505050565b634e487b7160e01b600052604160045260246000fd5b600082601f83011261276c57600080fd5b813567ffffffffffffffff8082111561278757612787612745565b604051601f8301601f19908116603f011681019082821181831017156127af576127af612745565b816040528381528660208588010111156127c857600080fd5b836020870160208301376000602085830101528094505050505092915050565b600080604083850312156127fb57600080fd5b823567ffffffffffffffff81111561281257600080fd5b61281e8582860161275b565b95602094909401359450505050565b60005b83811015612848578181015183820152602001612830565b50506000910152565b6000815180845261286981602086016020860161282d565b601f01601f19169290920160200192915050565b6020815260006128906020830184612851565b9392505050565b80356001600160a01b03811681146128ae57600080fd5b919050565b6000602082840312156128c557600080fd5b61289082612897565b600080604083850312156128e157600080fd5b6128ea83612897565b946020939093013593505050565b60006020828403121561290a57600080fd5b5035919050565b634e487b7160e01b600052602160045260246000fd5b6006811061294557634e487b7160e01b600052602160045260246000fd5b9052565b60208152815160208201526000602083015161297060408401826001600160a01b03169052565b5060408301516001600160a01b03811660608401525060608301516101408060808501526129a2610160850183612851565b9150608085015160a085015260a085015160c085015260c08501516129ca60e0860182612927565b5060e0850151610100601f1986850301818701526129e88483612851565b9087015161012087810191909152909601519190940152509192915050565b600080600060608486031215612a1c57600080fd5b612a2584612897565b9250612a3360208501612897565b9150604084013590509250925092565b60008060408385031215612a5657600080fd5b82359150602083013567ffffffffffffffff811115612a7457600080fd5b612a808582860161275b565b9150509250929050565b60008060408385031215612a9d57600080fd5b82359150612aad60208401612897565b90509250929050565b600060208284031215612ac857600080fd5b813567ffffffffffffffff811115612adf57600080fd5b612aeb8482850161275b565b949350505050565b8a81526001600160a01b038a811660208301528916604082015261014060608201819052600090612b268382018b612851565b90508860808401528760a0840152612b4160c0840188612927565b82810360e0840152612b538187612851565b6101008401959095525050610120015298975050505050505050565b6020808252825182820181905260009190848201906040850190845b81811015612ba757835183529284019291840191600101612b8b565b50909695505050505050565b851515815260a060208201526000612bce60a0830187612851565b604083019590955250606081019290925260809091015292915050565b60008060408385031215612bfe57600080fd5b612c0783612897565b9150612aad60208401612897565b634e487b7160e01b600052601160045260246000fd5b600060018201612c3d57612c3d612c15565b5060010190565b8082028115828204841417610c0957610c09612c15565b600082612c7857634e487b7160e01b600052601260045260246000fd5b500490565b81810381811115610c0957610c09612c15565b600181811c90821680612ca457607f821691505b602082108103612cc457634e487b7160e01b600052602260045260246000fd5b50919050565b601f82111561274057600081815260208120601f850160051c81016020861015612cf15750805b601f850160051c820191505b81811015612d1057828155600101612cfd565b505050505050565b815167ffffffffffffffff811115612d3257612d32612745565b612d4681612d408454612c90565b84612cca565b602080601f831160018114612d7b5760008415612d635750858301515b600019600386901b1c1916600185901b178555612d10565b600085815260208120601f198616915b82811015612daa57888601518255948401946001909101908401612d8b565b5085821015612dc85787850151600019600388901b60f8161c191681555b5050505050600190811b01905550565b60208082526013908201527215185cdac8191bd95cc81b9bdd08195e1a5cdd606a1b604082015260600190565b60208082526012908201527115185cdac81b9bdd0818dbdb5c1b195d195960721b604082015260600190565b80820180821115610c0957610c09612c15565b60008251612e5681846020870161282d565b9190910192915050565b634e487b7160e01b600052603260045260246000fdfea264697066735822122074b00649ee5433d29db2f6edafcf922850bb8cb0e1b5f0ec0c35f657b5d6c3a164736f6c63430008130033","abi":[{"inputs":[],"stateMutability":"nonpayable","type":"constructor"},{"anonymous":false,"inputs":[{"indexed":true,"internalType":"address","name":"owner","type":"address"},{"indexed":true,"internalType":"address","name":"spender","type":"address"},{"indexed":false,"internalType":"uint256","name":"value","type":"uint256"}],"name":"Approval","type":"event"},{"anonymous":false,"inputs":[{"indexed":true,"internalType":"address","name":"previousOwner","type":"address"},{"indexed":true,"internalType":"address","name":"newOwner","type":"address"}],"name":"OwnershipTransferred","type":"event"},{"anonymous":false,"inputs":[{"indexed":true,"internalType":"address","name":"worker","type":"address"},{"indexed":false,"internalType":"uint256","name":"amount","type":"uint256"}],"name":"RewardClaimed","type":"event"},{"anonymous":false,"inputs":[{"indexed":true,"internalType":"uint256","name":"taskId","type":"uint256"},{"indexed":true,"internalType":"address","name":"worker","type":"address"}],"name":"TaskAssigned","type":"event"},{"anonymous":false,"inputs":[{"indexed":true,"internalType":"uint256","name":"taskId","type":"uint256"},{"indexed":false,"internalType":"string","name":"resultHash","type":"string"}],"name":"TaskCompleted","type":"event"},{"anonymous":false,"inputs":[{"indexed":true,"internalType":"uint256","name":"taskId","type":"uint256"},{"indexed":true,"internalType":"address","name":"requester","type":"address"},{"indexed":false,"internalType":"uint256","name":"rewardAmount","type":"uint256"}],"name":"TaskCreated","type":"event"},{"anonymous":false,"inputs":[{"indexed":true,"internalType":"uint256","name":"taskId","type":"uint256"},{"indexed":false,"internalType":"string","name":"reason","type":"string"}],"name":"TaskDisputed","type":"event"},{"anonymous":false,"inputs":[{"indexed":true,"internalType":"uint256","name":"taskId","type":"uint256"},{"indexed":true,"internalType":"address","name":"worker","type":"address"},{"indexed":false,"internalType":"uint256","name":"rewardAmount","type":"uint256"}],"name":"TaskVerified","type":"event"},{"anonymous":false,"inputs":[{"indexed":true,"internalType":"address","name":"from","type":"address"},{"indexed":true,"internalType":"address","name":"to","type":"address"},{"indexed":false,"internalType":"uint256","name":"value","type":"uint256"}],"name":"Transfer","type":"event"},{"anonymous":false,"inputs":[{"indexed":true,"internalType":"address","name":"worker","type":"address"},{"indexed":false,"internalType":"string","name":"peerId","type":"string"}],"name":"WorkerRegistered","type":"event"},{"inputs":[],"name":"MIN_REWARD","outputs":[{"internalType":"uint256","name":"","type":"uint256"}],"stateMutability":"view","type":"function"},{"inputs":[],"name":"PLATFORM_FEE_PERCENT","outputs":[{"internalType":"uint256","name":"","type":"uint256"}],"stateMutability":"view","type":"function"},{"inputs":[],"name":"TASK_TIMEOUT","outputs":[{"internalType":"uint256","name":"","type":"uint256"}],"stateMutability":"view","type":"function"},{"inputs":[],"name":"VERIFICATION_PERIOD","outputs":[{"internalType":"uint256","name":"","type":"uint256"}],"stateMutability":"view","type":"function"},{"inputs":[{"internalType":"address","name":"owner","type":"address"},{"internalType":"address","name":"spender","type":"address"}],"name":"allowance","outputs":[{"internalType":"uint256","name":"","type":"uint256"}],"stateMutability":"view","type":"function"},{"inputs":[{"internalType":"address","name":"spender","type":"address"},{"internalType":"uint256","name":"amount","type":"uint256"}],"name":"approve","outputs":[{"internalType":"bool","name":"","type":"bool"}],"stateMutability":"nonpayable","type":"function"},{"inputs":[{"internalType":"uint256","name":"taskId","type":"uint256"},{"internalType":"address","name":"worker","type":"address"}],"name":"assignTask","outputs":[],"stateMutability":"nonpayable","type":"function"},{"inputs":[{"internalType":"uint256","name":"taskId","type":"uint256"}],"name":"autoVerifyTask","outputs":[],"stateMutability":"nonpayable","type":"function"},{"inputs":[{"internalType":"address","name":"account","type":"address"}],"name":"balanceOf","outputs":[{"internalType":"uint256","name":"","type":"uint256"}],"stateMutability":"view","type":"function"},{"inputs":[],"name":"claimRewards","outputs":[],"stateMutability":"nonpayable","type":"function"},{"inputs":[{"internalType":"string","name":"taskHash","type":"string"},{"internalType":"uint256","name":"deadline","type":"uint256"}],"name":"createTask","outputs":[],"stateMutability":"payable","type":"function"},{"inputs":[],"name":"decimals","outputs":[{"internalType":"uint8","name":"","type":"uint8"}],"stateMutability":"view","type":"function"},{"inputs":[{"internalType":"address","name":"spender","type":"address"},{"internalType":"uint256","name":"subtractedValue","type":"uint256"}],"name":"decreaseAllowance","outputs":[{"internalType":"bool","name":"","type":"bool"}],"stateMutability":"nonpayable","type":"function"},{"inputs":[{"internalType":"uint256","name":"taskId","type":"uint256"},{"internalType":"string","name":"reason","type":"string"}],"name":"disputeTask","outputs":[],"stateMutability":"nonpayable","type":"function"},{"inputs":[{"internalType":"uint256","name":"taskId","type":"uint256"}],"name":"emergencyCancel","outputs":[],"stateMutability":"nonpayable","type":"function"},{"inputs":[{"internalType":"uint256","name":"limit","type":"uint256"}],"name":"getAvailableTasks","outputs":[{"internalType":"uint256[]","name":"","type":"uint256[]"}],"stateMutability":"view","type":"function"},{"inputs":[],"name":"getPlatformStats","outputs":[{"internalType":"uint256","name":"totalTasks","type":"uint256"},{"internalType":"uint256","name":"completedTasks","type":"uint256"},{"internalType":"uint256","name":"totalRewards","type":"uint256"},{"internalType":"uint256","name":"activeWorkers","type":"uint256"}],"stateMutability":"view","type":"function"},{"inputs":[{"internalType":"uint256","name":"taskId","type":"uint256"}],"name":"getTask","outputs":[{"components":[{"internalType":"uint256","name":"taskId","type":"uint256"},{"internalType":"address","name":"requester","type":"address"},{"internalType":"address","name":"worker","type":"address"},{"internalType":"string","name":"taskHash","type":"string"},{"internalType":"uint256","name":"rewardAmount","type":"uint256"},{"internalType":"uint256","name":"deadline","type":"uint256"},{"internalType":"enum ComputeReward.TaskStatus","name":"status","type":"uint8"},{"internalType":"string","name":"resultHash","type":"string"},{"internalType":"uint256","name":"createdAt","type":"uint256"},{"internalType":"uint256","name":"completedAt","type":"uint256"}],"internalType":"struct ComputeReward.ComputeTask","name":"","type":"tuple"}],"stateMutability":"view","type":"function"},{"inputs":[{"internalType":"address","name":"user","type":"address"}],"name":"getUserTasks","outputs":[{"internalType":"uint256[]","name":"","type":"uint256[]"}],"stateMutability":"view","type":"function"},{"inputs":[{"internalType":"address","name":"worker","type":"address"}],"name":"getWorkerInfo","outputs":[{"internalType":"bool","name":"isRegistered","type":"bool"},{"internalType":"string","name":"peerId","type":"string"},{"internalType":"uint256","name":"reputation","type":"uint256"},{"internalType":"uint256","name":"pendingRewards","type":"uint256"},{"internalType":"uint256","name":"completedTasks","type":"uint256"}],"stateMutability":"view","type":"function"},{"inputs":[{"internalType":"address","name":"worker","type":"address"}],"name":"getWorkerTasks","outputs":[{"internalType":"uint256[]","name":"","type":"uint256[]"}],"stateMutability":"view","type":"function"},{"inputs":[{"internalType":"address","name":"spender","type":"address"},{"internalType":"uint256","name":"addedValue","type":"uint256"}],"name":"increaseAllowance","outputs":[{"internalType":"bool","name":"","type":"bool"}],"stateMutability":"nonpayable","type":"function"},{"inputs":[],"name":"name","outputs":[{"internalType":"string","name":"","type":"string"}],"stateMutability":"view","type":"function"},{"inputs":[],"name":"nextTaskId","outputs":[{"internalType":"uint256","name":"","type":"uint256"}],"stateMutability":"view","type":"function"},{"inputs":[],"name":"owner","outputs":[{"internalType":"address","name":"","type":"address"}],"stateMutability":"view","type":"function"},{"inputs":[{"internalType":"string","name":"","type":"string"}],"name":"peerIdToWorker","outputs":[{"internalType":"address","name":"","type":"address"}],"stateMutability":"view","type":"function"},{"inputs":[{"internalType":"string","name":"peerId","type":"string"}],"name":"registerWorker","outputs":[],"stateMutability":"nonpayable","type":"function"},{"inputs":[{"internalType":"address","name":"","type":"address"}],"name":"registeredWorkers","outputs":[{"internalType":"bool","name":"","type":"bool"}],"stateMutability":"view","type":"function"},{"inputs":[],"name":"renounceOwnership","outputs":[],"stateMutability":"nonpayable","type":"function"},{"inputs":[{"internalType":"uint256","name":"taskId","type":"uint256"},{"internalType":"string","name":"resultHash","type":"string"}],"name":"submitResult","outputs":[],"stateMutability":"nonpayable","type":"function"},{"inputs":[],"name":"symbol","outputs":[{"internalType":"string","name":"","type":"string"}],"stateMutability":"view","type":"function"},{"inputs":[{"internalType":"uint256","name":"","type":"uint256"}],"name":"tasks","outputs":[{"internalType":"uint256","name":"taskId","type":"uint256"},{"internalType":"address","name":"requester","type":"address"},{"internalType":"address","name":"worker","type":"address"},{"internalType":"string","name":"taskHash","type":"string"},{"internalType":"uint256","name":"rewardAmount","type":"uint256"},{"internalType":"uint256","name":"deadline","type":"uint256"},{"internalType":"enum ComputeReward.TaskStatus","name":"status","type":"uint8"},{"internalType":"string","name":"resultHash","type":"string"},{"internalType":"uint256","name":"createdAt","type":"uint256"},{"internalType":"uint256","name":"completedAt","type":"uint256"}],"stateMutability":"view","type":"function"},{"inputs":[],"name":"totalRewardsDistributed","outputs":[{"internalType":"uint256","name":"","type":"uint256"}],"stateMutability":"view","type":"function"},{"inputs":[],"name":"totalSupply","outputs":[{"internalType":"uint256","name":"","type":"uint256"}],"stateMutability":"view","type":"function"},{"inputs":[],"name":"totalTasksCompleted","outputs":[{"internalType":"uint256","name":"","type":"uint256"}],"stateMutability":"view","type":"function"},{"inputs":[],"name":"totalTasksCreated","outputs":[{"internalType":"uint256","name":"","type":"uint256"}],"stateMutability":"view","type":"function"},{"inputs":[{"internalType":"address","name":"to","type":"address"},{"internalType":"uint256","name":"amount","type":"uint256"}],"name":"transfer","outputs":[{"internalType":"bool","name":"","type":"bool"}],"stateMutability":"nonpayable","type":"function"},{"inputs":[{"internalType":"address","name":"from","type":"address"},{"internalType":"address","name":"to","type":"address"},{"internalType":"uint256","name":"amount","type":"uint256"}],"name":"transferFrom","outputs":[{"internalType":"bool","name":"","type":"bool"}],"stateMutability":"nonpayable","type":"function"},{"inputs":[{"internalType":"address","name":"newOwner","type":"address"}],"name":"transferOwnership","outputs":[],"stateMutability":"nonpayable","type":"function"},{"inputs":[{"internalType":"address","name":"","type":"address"},{"internalType":"uint256","name":"","type":"uint256"}],"name":"userTasks","outputs":[{"internalType":"uint256","name":"","type":"uint256"}],"stateMutability":"view","type":"function"},{"inputs":[{"internalType":"uint256","name":"taskId","type":"uint256"}],"name":"verifyTask","outputs":[],"stateMutability":"nonpayable","type":"function"},{"inputs":[],"name":"withdrawPlatformFees","outputs":[],"stateMutability":"nonpayable","type":"function"},{"inputs":[{"internalType":"address","name":"","type":"address"}],"name":"workerPeerIds","outputs":[{"internalType":"string","name":"","type":"string"}],"stateMutability":"view","type":"function"},{"inputs":[{"internalType":"address","name":"","type":"address"}],"name":"workerReputation","outputs":[{"internalType":"uint256","name":"","type":"uint256"}],"stateMutability":"view","type":"function"},{"inputs":[{"internalType":"address","name":"","type":"address"}],"name":"workerRewards","outputs":[{"internalType":"uint256","name":"","type":"uint256"}],"stateMutability":"view","type":"function"},{"inputs":[{"internalType":"address","name":"","type":"address"},{"internalType":"uint256","name":"","type":"uint256"}],"name":"workerTasks","outputs":[{"internalType":"uint256","name":"","type":"uint256"}],"stateMutability":"view","type":"function"}]}